:100000000C9481010C94D1180C94F8180C94A9014B
:100010000C94A9010C94A9010C94A9010C94A901B8
:100020000C94A9010C94A9010C94A9010C94A901A8
:100030000C94A9010C94A9010C94A9010C94A90198
:100040000C9489180C94A9010C941F190C944C1948
:100050000C94A9010C94A9010C94A9010C94A90178
:100060000C9472190C94A9016364696E6F707375B6
:1000700078585B0053544154455F444F434B4544CB
:100080000053544154455F42555359005354415411
:10009000455F424C4F434B454400424C4F434B5FFE
:1000A0004F4B00424C4F434B5F4F4B004552524F1A
:1000B000525F554E4B4E4F574E5F434F4D4D414E45
:1000C00044004D4F56455F4F4B0050495443485FE5
:1000D0004F4B00534552564F355F4F4B00575249D7
:1000E0005354335F4F4B005752495354335F52457B
:1000F0005345545F4F4B005752495354335F4D4F54
:1001000044455F3336305F4F4B00575249535433A9
:100110005F4D4F44455F3138305F4F4B0057524978
:100120005354335F52494748545F4F4B005752492D
:100130005354335F4C4546545F4F4B00575249531D
:1001400054335F4343575F4F4B0057524953543327
:100150005F43575F4F4B00424153455F4F4B004257
:100160004153455F5350494E5F4F4B004241534509
:100170005F52494748545F4F4B00424153455F4CE3
:100180004546545F4F4B00424153455F4343575FE1
:100190004F4B00424153455F43575F4F4B00434134
:1001A00052445F4F4B005049434B55504D4F4445CF
:1001B0005F4F4B005049434B55505F414E474C45B4
:1001C0005320004552524F525F4241445F415247D3
:1001D00053005345545049434B55505F4F4B0050CB
:1001E00055544241434B5F4F4B005049434B555090
:1001F0005F4F4B0053544F505F4F4B00484F4C44A0
:10020000355F4F4B0020434C4F53453D004752490B
:10021000505045525F414E474C4553204F50454E3C
:100220003D00534554434C4F53455F4F4B0053459E
:10023000544F50454E5F4F4B00434C4F53455F4F1B
:100240004B004F50454E5F4F4B00484F4D455F4F61
:100250004B0052455452494556455F4F4B0052455D
:100260005452494556455F4F4B00506F7374757239
:10027000654775617264204669726D7761726520A9
:1002800076312E36205265616479202843616C698D
:10029000627261746564204772697070657220379C
:1002A000352F34302C205A65726F2D5265626F7570
:1002B0006E642042617365292E0000000000250055
:1002C00028002B00040404040404040402020202B3
:1002D0000202030303030303010204081020408009
:1002E0000102040810200102040810200000000888
:1002F00000020100000304070000000000000000ED
:10030000061C11241FBECFEFD8E0DEBFCDBF12E028
:10031000A0E0B1E0ECEEF9E402C005900D92AC3D36
:10032000B107D9F724E0ACEDB2E001C01D92AA35C7
:10033000B207E1F711E0C1E8D1E004C02197FE0166
:100340000E947A1CC038D107C9F70E948F1A0C94FA
:10035000F4240C9400003FB7F89480914D049091E0
:100360004E04A0914F04B091500426B5A89B05C03F
:100370002F3F19F00196A11DB11D3FBFBA2FA92F24
:10038000982F8827BC01CD01620F711D811D911D21
:1003900042E0660F771F881F991F4A95D1F708958D
:1003A0004F925F926F927F928F929F92AF92BF9285
:1003B000CF92DF92EF92FF920F931F93CF93DF9331
:1003C0008B01D82FC92F0E94AB01262F822E972E8A
:1003D0005C016801ED2EFC2E05C0C114D104E104BE
:1003E000F10409F10E94AB012B013C0148185908A6
:1003F0006A087B088601DE2DCF2D31E0C31AD108B3
:10040000E108F108282D792DC50138EE830E33E07F
:10041000931EA11CB11C38EE431633E05306610451
:100420007104D8F6D3CFDF91CF911F910F91FF9038
:10043000EF90DF90CF90BF90AF909F908F907F9084
:100440006F905F904F90089590E0FC01E451FD4F54
:100450002491FC01E852FD4F3491FC01EC53FD4F17
:10046000E491E11519F1211589F0243001F150F4DE
:10047000223029F12330F9F4809180008F77809326
:10048000800004C02730F1F0283011F1F0E0EE0FC9
:10049000FF1FE654FD4FA591B5919FB7F8948C913D
:1004A00061111AC0309538233C939FBF0895809105
:1004B00080008F7DE4CF84B58F7784BDE7CF84B58E
:1004C0008F7DFBCF8091B0008F778093B000DECF1F
:1004D0008091B0008F7DF9CF832B8C93E6CF089568
:1004E000FC01A48DA80FB92FB11DA35ABF4F2C91A9
:1004F000848D90E001968F739927848FA689B789A0
:100500002C93A089B1898C91837080648C93938D96
:10051000848D981306C00288F389E02D80818F7D39
:1005200080830895FC01818D228D90E0805C9F4F37
:10053000821B91098F739927089580EB93E00E94A5
:1005400092029C0181E0232B09F480E0089580E071
:1005500090E0892B29F00E949D0281110C940000EB
:100560000895FC01918D828D981731F0828DE80FEE
:10057000F11D858D90E008958FEF9FEF0895FC01A8
:10058000918D828D981761F0A28DAE0FBF2FB11D96
:100590005D968C91928D9F5F9F73928F90E00895EE
:1005A0008FEF9FEF0895FC01538D448D842F90E0D1
:1005B000252F30E0821B930B541710F0CF9608952F
:1005C00001970895CF93DF93EC01888D81110FC0BF
:1005D000DF91CF9108950FB607FC0DC08C9185FF78
:1005E0000AC0808185FF07C0CE010E947002AA89DF
:1005F000BB89E889F9898C9185FDEDCF808186FFE3
:10060000EACFE6CFEF92FF920F931F93CF93DF9342
:10061000EC01F62E81E0888F9B8D8C8D98131AC08B
:10062000E889F989808185FF15C09FB7F894EE8924
:10063000FF896083E889F989808183708064808381
:100640009FBF81E090E0DF91CF911F910F91FF90CC
:10065000EF9008950B8D10E00F5F1F4F0F73112760
:10066000E02E8C8D8E1579F0EB8DEC0FFD2FF11DAA
:10067000E35AFF4FF0829FB7F8940B8FEA89FB890A
:1006800080818062DCCF0FB607FCEBCFE889F98967
:10069000808185FFE6CFCE010E947002E2CF80E02C
:1006A00090E00895CF92DF92EF92FF920F931F9305
:1006B000CF93DF937C016A0100E010E00C151D056B
:1006C00051F4C801DF91CF911F910F91FF90EF90EE
:1006D000DF90CF900895EB01D701ED91FC9101904F
:1006E000F081E02D6991C7010995892B51F30F5FC6
:1006F0001F4FBE01E3CF1092970381E080939603D2
:100700001092950361E082E10E94240261E083E19E
:100710000E942402E9EBF0E080818E7F808380815B
:100720008D7F808388E48093B80085E48093BC004B
:10073000089520919403260F3327331F213231056A
:10074000ECF420919703FC0180E090E0243069F004
:1007500082E00895A09194032191AC014C585C4F24
:10076000A40FB52FB11D2C930196861798F3809195
:100770009403680F6093940380E0089581E00895E6
:10078000CF93DF9391E090936E038115B9F0C09100
:10079000B800D091BA008091BC008A7B8093BC00E5
:1007A00060E082E10E94240260E083E10E94240272
:1007B0000E947B03D093BA00C093B800DF91CF9121
:1007C0000895CF93DF930F92CDB7DEB7FC01698315
:1007D000809123038115F1F080912203803250F043
:1007E00081E090E09383828380E090E00F90DF913E
:1007F000CF91089580912103E82FF0E0EF5FFC4F47
:10080000998190838F5F809321038093220381E0FD
:1008100090E0ECCF61E0CE0101960E949903F7CF02
:10082000CF92DF92EF92FF920F931F93CF93DF93BC
:100830007C01CB018A01209123032115D9F0EB0122
:100840006B01C40ED51ECC15DD0551F4C801DF9136
:10085000CF911F910F91FF90EF90DF90CF9008956F
:100860006991D701ED91FC910190F081E02DC701D4
:100870000995E9CF642F0E949903E8CF8091000386
:100880009091FF02891B990B08959091FF0280912E
:1008900000032FEF3FEF981748F4E92FF0E0E15203
:1008A000FD4F208130E09F5F9093FF02C9010895C2
:1008B000E091FF0280910003E81730F4F0E0E1528C
:1008C000FD4F808190E008958FEF9FEF0895089588
:1008D00008950895DC01853B91059CF0A4EBB0E000
:1008E00028EB31E00E945F1C24EB30E040E050E058
:1008F0000E945A23DA01C90184579F4FAF4FBF4F5F
:10090000089597FFEDCFA0E0B0E0EACFCF93DF935B
:100910002FB7F8948091520490915304A0915404FD
:10092000B09155042FBF8093B8039093B903A0935F
:10093000BA03B093BB0380EB93E00E94BF02EC01CB
:10094000CF3FDC0721F52FB7F894809152049091A6
:100950005304A0915404B09155042FBF4091B803A3
:100960005091B9036091BA037091BB03841B950B3E
:10097000A60BB70B4091B4035091B5036091B60339
:100980007091B70384179507A607B707A0F2CE01A9
:10099000DF91CF910895CF93DF93EC01FE01649135
:1009A0002196611529F080EB93E00E940203F6CFB7
:1009B000DF91CF910895682F80EB93E00C940203B0
:1009C0004F925F926F927F928F929F92AF92BF925F
:1009D000CF92DF92EF92FF920F931F93CF93DF930B
:1009E000082F10912203C1E0113208F09DC0D09170
:1009F000DE020E94AB012B013C01C0919703C111A3
:100A00006DC082E080939703009396038FEF8093ED
:100A10004A0310926C0310936B0321E033E0ABE4C4
:100A2000B3E0F9018E2F821B811708F495C0109254
:100A30006D0380916D03DD0FD82BD0936D038091F2
:100A40009503813009F08BC0109295030E94AB0191
:100A50004B015C0180916D038093BB00809170031A
:100A600090917103A0917203B0917303892B8A2B2B
:100A70008B2BA1F00E94AB010091700310917103C8
:100A80002091720330917303681979098A099B09CF
:100A9000061717072807390708F441C08091BC00E2
:100AA00083FDD8CF85EC8093BC000E94AB016B0125
:100AB0007C0180919703823009F453C080914A03EE
:100AC0008F3F91F180914A03C2E0803269F18091B9
:100AD0004A03C3E0803341F1C4E026C08091700333
:100AE00090917103A0917203B0917303892B8A2BAB
:100AF0008B2B09F482CF0E94AB01209170033091BF
:100B0000710340917203509173036419750986094A
:100B10009709261737074807590708F06ECF8091C5
:100B20006F030E94C003C5E01092210310922203BC
:100B3000109223038C2FDF91CF911F910F91FF9083
:100B4000EF90DF90CF90BF90AF909F908F907F906D
:100B50006F905F904F90089581918D9363CF85EE54
:100B6000A2CF8091700390917103A0917203B09114
:100B70007303892B8A2B8B2B09F49BCF0E94AB012B
:100B800000917003109171032091720330917303EF
:100B90006C197D098E099F09061717072807390761
:100BA00008F087CFBCCF1092FF0210920003109282
:100BB0002103109222030E947B0389E694E0909324
:100BC00025038093240388E694E090932803809380
:100BD00027030895CF93DF93EC018B818115A1F05A
:100BE000888191E0909323038093DE021092210389
:100BF0001092220381E00E94E004982F81E091117D
:100C000080E0DF91CF9108950E94D30581E08B832E
:100C1000CE010E94EA058111E3CFF3CFEF92FF925C
:100C20000F931F93CF93DF93EC017B018881998110
:100C3000009729F02A813B8126173707A0F4B701D6
:100C40006F5F7F4F0E94131F8C0180E0011511051B
:100C500059F019830883FB82EA828C819D81892B5C
:100C600011F4F801108281E0DF91CF911F910F9173
:100C7000FF90EF900895FC01DB0184819581892B21
:100C800031F481E09C91911509F080E00895808114
:100C900091810E94E51F9C0181E021153105F4CF6F
:100CA000DC01FB014481558114968D919C9115972F
:100CB0008417950778F08D919C91009759F0608189
:100CC00071816115710531F00E94F51F9C0181E071
:100CD000232B09F080E00895BC01009761F0FC012E
:100CE00001900020E9F73197AF01481B590B80EBC9
:100CF00093E00C94520308950E94CB0487E491E0A2
:100D00000C946C064F925F926F927F928F929F929B
:100D1000AF92BF92CF92DF92EF92FF92CF93DF9389
:100D2000CDB7DEB7A1970FB6F894DEBF0FBECDBF2B
:100D30006B017C01F7FE3DC08DE20E94DB0422279F
:100D40003327A9012C193D094E095F0919A2CE01CB
:100D500081967C016AE0462E512C612C712C490150
:100D60005A01CA01B901A30192010E94B023605D3A
:100D7000F70162937F01FAE08F169104A104B10498
:100D800070F7C7010E946C06A1960FB6F894DEBFFB
:100D90000FBECDBFDF91CF91FF90EF90DF90CF904E
:100DA000BF90AF909F908F907F906F905F904F908B
:100DB00008959B0119A2AE014F5D5F4F7A014AE091
:100DC000442E512C612C712C49015C01B901A30105
:100DD00092010E94B023CA01605DF70162937F0116
:100DE000FAE08F169104A104B10470F7CACF0097FE
:100DF00011F00C94821E08951F93CF93DF93FC0192
:100E0000EA01122F848195818417950710F480E000
:100E10001DC0808191E0909323038093DE021092A5
:100E200021031092220381819281DC01ED91FC91DA
:100E30000280F381E02D0995C817D90741F7812F6A
:100E40000E94E004982F81E09111E1CFDF91CF91D2
:100E50001F910895CF93DF9300D0CDB7DEB789837C
:100E60006A8321E042E050E0BE016F5F7F4F8091D6
:100E70009E0390919F030E94FC060F900F90DF91BC
:100E8000CF9108952F923F924F925F926F927F92EF
:100E90008F929F92AF92BF92CF92DF92EF92FF928A
:100EA0000F931F93CF93DF93CDB7DEB7AD970FB6F8
:100EB000F894DEBF0FBECDBF7B018C0120E030E097
:100EC00040E85FE36E87FF86888B198B6E857F8590
:100ED000888999890E94C51C87FD32C120E030ECC9
:100EE0004AE555E44E2C5F2C602E712EC301B201F1
:100EF0000E94EF2418162CF4E12C30ECF32E0AE5B6
:100F000015E46091A0037091A1038091A2039091D8
:100F1000A3030E94CA1C2B013C0120E030E040E802
:100F200055E4EA8AFB8A0C8B1D8B6A897B898C8944
:100F30009D890E942B1D4B015C01A50194014E8AE5
:100F40005F8A688E798E6E897F89888D998D0E94DF
:100F50004E2420E030E040E05FE36A8F7B8F8C8F8F
:100F60009D8F6A8D7B8D8C8D9D8D0E94E22320E06C
:100F700030E040E85FE36E8F7F8F88A399A36E8D8A
:100F80007F8D88A199A10E94E1237B018C0120E043
:100F900030E040E450E46AA3FBA28CA31DA36AA145
:100FA0007BA18CA19DA10E94C51C87FDCEC020E025
:100FB00030E04FE753E4EEA2FFA208A719A76EA105
:100FC0007FA188A599A50E94EF24181624F4E12C8E
:100FD000F12C0FE713E4EAA6FBA60CA71DA76AA550
:100FE0007BA58CA59DA50E94C024562E1982C09079
:100FF0009E03D0909F03DF86CE8620E041E050E044
:10100000BE016F5F7F4FC6010E94FC06811509F487
:10101000EAC0442443948BE4682E83E0782E95EE56
:10102000392E25EC222EAE85BF851496AD90BC904E
:101030004501A114B10419F088248394912CDD2476
:10104000D394A114B10409F4D12C182DEE85FF8599
:1010500000810E94AB016A837B838C839D83809196
:101060009703811177C040929703D09296033FEF88
:1010700030934A0310926C038FEF810F80936B03C0
:1010800040926D0380916D03000F082B00936D0358
:1010900080919503813009F0D8C0109295030E9489
:1010A000AB016E837F838887998780916D038093DE
:1010B000BB008091700390917103A0917203B09175
:1010C0007303892B8A2B8B2BC1F00E94AB012091DB
:1010D0007003309171034091720350917303CE807D
:1010E000DF80E884F9846C197D098E099F09261731
:1010F00037074807590708F45AC08091BC0083FDA0
:10110000D4CF2092BC000E94AB016A877B878C877A
:101110009D8780919703813009F49AC080916C0378
:10112000811710F410916C03AFEDB2E0EBE4F3E043
:101130008E2F8619811708F03FC081918D93F8CFCB
:10114000E12CF12C00E81FE3DCCEE12CF12C00E4D3
:1011500010E441CF8091700390917103A0917203CC
:10116000B0917303892B8A2B8B2B09F478CF0E94C3
:10117000AB01209170033091710340917203509143
:1011800073032A8B3B8B4C8B5D8B2A813B814C817B
:101190005D81621B730B840B950B2A893B894C89FB
:1011A0005D89261737074807590708F058CF8091FF
:1011B0006F030E94C00310E01092FF02109300031F
:1011C0001815190481F4AB2809F42DCFAE85BF851D
:1011D00011968D919C91DC01ED91FC910284F38537
:1011E000E02D099589831981612F6F76606180E018
:1011F0000E942A07652D8EEF0E942A07612F80E04A
:101200000E942A0765E070E080E090E00E94D00133
:10121000612F606A80E0AD960FB6F894DEBF0FBE16
:10122000CDBFDF91CF911F910F91FF90EF90DF9095
:10123000CF90BF90AF909F908F907F906F905F9076
:101240004F903F902F900C942A073092BC005BCFB8
:101250008091700390917103A0917203B091730318
:10126000892B8A2B8B2B09F454CF0E94AB01209140
:101270007003309171034091720350917303CA84DB
:10128000DB84EC84FD846C197D098E099F09261787
:1012900037074807590708F03CCF89CFCF93DF9332
:1012A00000D000D00F92CDB7DEB7880F880F8A5FCD
:1012B00089831A821B827D836C8321E045E050E0A4
:1012C000BE016F5F7F4F80919E0390919F030E94AC
:1012D000FC060F900F900F900F900F90DF91CF9121
:1012E0000895CF93C0E060E070E08C2F0E944E091B
:1012F000CF5FC031C1F7CF910895CF93DF93EB015A
:1013000062E971E0019711F064ED70E080E00E9405
:101310004E09BE01DD0F880B990B0E94D00160E0E1
:1013200070E080E0DF91CF910C944E099B0164E660
:1013300070E01216130664F460E177E2213147E2AF
:10134000340734F4B9012A30310514F46AE070E04E
:101350000C947D09CF93DF93EC01C93681E0D80767
:101360005CF1C8E6D1E02091160130911701CE0161
:10137000821B930BC217D307E1F0AC0197FF03C0A8
:10138000A9014C1B5D0B24E1249FB001259F700D2A
:1013900011246E31710514F46EE170E0181619060F
:1013A00084F481E090E00E947D09D0931701C093FE
:1013B0001601DF91CF910895D7FFD5CFC0E0D0E0DF
:1013C000D2CF8FEF9FEFEFCF8F929F92AF92BF92CE
:1013D000CF92DF92EF92FF920F931F93CF93DF9301
:1013E0008C019B01643981E078070CF07CC0CB0153
:1013F0009595879595958795AC01440F551FE90103
:10140000C41BD50BD7FF05C0C90195958795C0E0D2
:10141000D0E06AE070E08E31910524F063E070E086
:101420000E944B1C83E4E82EFF24F39496E6C92E19
:1014300092E0D92E4B01770FAA08BB08B6016E19AE
:101440007F090130110509F4B70183E00E944E09BC
:10145000C501B4010E94D00180E1E80EF11C83E7D0
:10146000E81681E0F80651F7209781F063E671E015
:101470000130110511F063E071E083E00E944E0934
:10148000BE01DD0F880B990B0E94D00163E171E072
:101490000130110511F463E571E083E00E944E090B
:1014A000C501B4010E94D00163E271E00130110571
:1014B00011F463E471E083E00E944E09C501B401B8
:1014C0000E94D00160E070E083E0DF91CF911F9136
:1014D0000F91FF90EF90DF90CF90BF90AF909F90D3
:1014E0008F900C944E0984E690E086CF9B0164E6D1
:1014F00070E01216130664F468E873E1293843E1DA
:10150000340734F4B9012F30310514F46FE070E082
:101510000C94E409CF93DF93EC018B3A9105FCF036
:10152000CAEAD0E0CE010E946A04BC0185E00E94B4
:101530004E0964EA71E080E090E00E94D001809161
:10154000DC02811105C060E070E085E00E944E0978
:10155000D0930D01C0930C01DF91CF9108950A97AC
:101560000CF7CAE0D0E0DECF80910A0190910B0128
:101570000C948A0A80910801909109010C948A0ABE
:101580002F923F924F925F926F927F928F929F9293
:10159000AF92BF92CF92DF92EF92FF920F931F9381
:1015A000CF93DF9300D00F92CDB7DEB78C016A8363
:1015B0007B83EA81FB81E53BF10574F184EB90E0EC
:1015C0009B838A830330110509F46DC064F50130F3
:1015D000110509F45FC0C0901201D0901301B2E16F
:1015E0004B2EB1E05B2E0230110541F10F900F90B0
:1015F0000F90DF91CF911F910F91FF90EF90DF90AF
:10160000CF90BF90AF909F908F907F906F905F90A2
:101610004F903F902F900895EA81FB81F7FFD2CF42
:101620001B821A82CFCFC0900E01D0900F01FEE036
:101630004F2EF1E05F2E04301105C1F609838A8137
:101640009B818C159D05C1F50E946A04BC01802F09
:101650000E944E0966E970E080E090E00E94D001AF
:1016600060E070E0802F0F900F900F90DF91CF918E
:101670001F910F91FF90EF90DF90CF90BF90AF90B0
:101680009F908F907F906F905F904F903F902F90A2
:101690000C944E09C0901401D090150184E1482E9D
:1016A00081E0582ECBCFC0901001D0901101A0E165
:1016B0004A2EA1E05A2EC2CFEA81FB8166246A94A9
:1016C000762CCE16DF061CF466246394712CAA8057
:1016D000BB80AC18BD08812C912C1801F1E02F1AA9
:1016E0003108C6010E946A04BC0189810E944E092A
:1016F000C40197FE04C08827992788199909950184
:10170000B7FE04C0222733272A193B0928173907B7
:101710000CF4C90122E022163104D8F58430910579
:101720000CF441C032E2E32EF12C8830910544F0F4
:1017300068E1E62EF12C0E971CF42CE1E22EF12C40
:10174000B701FF0C880B990B0E94D001C60CD71C67
:10175000860C971CA618B7088A819B818C159D055D
:1017600009F0BFCF0E946A04BC01802F0E944E097D
:1017700064E071E080E090E00E94D00160E070E001
:10178000802F0E944E098A819B81F2019183808380
:101790002DCF843091055CF052E1E52E08972CF4B2
:1017A00088E1E82E02C04AE2E42EF12CC9CF90E293
:1017B000E92EFBCFCF93DF93BC018091DD02811531
:1017C00031F083E090E0DF91CF910C94C00AC4EB3C
:1017D000D0E0653B71052CF4EB0177FF02C0C0E05F
:1017E000D0E02091100130911101CE01821B930BAA
:1017F000C217D307E1F0AC0197FF03C0A9014C1B4E
:101800005D0B2CE0249FB001259F700D11246832E0
:10181000710514F468E270E0181619065CF481E0B2
:1018200090E00E94E409D0931101C0931001DF9170
:10183000CF9108958FEF9FEFF4CF85ED8093BC009B
:101840008091700390917103A0917203B091730322
:101850000796A11DB11D23E0B695A795979587958D
:101860002A95D1F72091BC0024FD03C01092970364
:1018700008954091700350917103609172037091CB
:101880007303452B462B472B69F30097A105B10540
:1018900041F02AE22A95F1F700C00197A109B109A8
:1018A000E1CF80916F030C94C003DF92EF92FF921F
:1018B0000F931F93CF93DF93CDB7DEB72B970FB660
:1018C000F894DEBF0FBECDBF85EA8983809199036E
:1018D0008A83809198038B83809118018C838091F7
:1018E0001601909117019E838D83809114018F833F
:1018F00080911201888780911001898780910E0163
:101900008A8780910C018B87CE0101967C0100E0D3
:1019100010E0F701D0809FEFE91AF90AC8010E9490
:101920004423D81621F06D2DC8010E944C230F5F6F
:101930001F4F0B30110569F72B960FB6F894DEBFD9
:101940000FBECDBFDF91CF911F910F91FF90EF9010
:10195000DF9008950E94B40A66E970E080E090E0AC
:101960000E94D00180910601909107010E94AA096E
:1019700068EC70E080E090E00E94D001609104018A
:101980007091050181E090E00E94C00A66E970E074
:1019900080E090E00E94D00160910201709103010B
:1019A00082E090E00E94C00A66E970E080E090E08A
:1019B0000E94D001609100017091010184E090E0EB
:1019C0000E94C00A68EC70E080E090E00E94D001C4
:1019D0000E94BA0A6AEF70E080E090E00E94D001B5
:1019E00081E0809398036AE570E084E090E00E94D3
:1019F000C00A66E970E080E090E00E94D0016FEAE2
:101A000070E082E090E00E94C00A66E970E080E049
:101A100090E00E94D00168E770E081E090E00E94D1
:101A2000C00A68EC70E080E090E00E94D0018AE596
:101A300090E00E94AA096AEF70E080E090E00E94C6
:101A4000D0010C94550C0E94BA0A64E670E080E064
:101A500090E00E94D0016AE570E084E090E00E948E
:101A6000C00A64E670E080E090E00E94D0018AE560
:101A700090E00E94DA0B64E670E080E090E00E9463
:101A8000D00164EB70E082E090E00E94C00A66E959
:101A900070E080E090E00E94D00167E870E081E0B3
:101AA00090E00E94C00A66E970E080E090E00E9449
:101AB000D00180910601909107010E94AA0968EC6B
:101AC00070E080E090E00E94D0016091040170918C
:101AD000050181E090E00E94C00A66E970E080E0C4
:101AE00090E00E94D001609102017091030182E0B8
:101AF00090E00E94C00A66E970E080E090E00E94F9
:101B0000D001609100017091010184E090E00E9499
:101B1000C00A68EC70E080E090E00E94D0010E9472
:101B2000B40A6AEF70E080E090E00E94D001109269
:101B300098030E94BA0A64E670E080E090E00E9498
:101B4000D0016AE570E084E090E00E94C00A64E69B
:101B500070E080E090E00E94D0018AE590E00E9471
:101B6000DA0B64E670E080E090E00E94D00164EB64
:101B700070E082E090E00E94C00A66E970E080E0D8
:101B800090E00E94D00167E870E081E090E00E9460
:101B9000C00A66E970E080E090E00E94D0018AE52A
:101BA00090E00E94AA096AEF70E080E090E00E9455
:101BB000D0010C94550C8091990390919A03892B34
:101BC00041F480919803811104C08EE592E00C9459
:101BD0007C0682E090E090939A03809399030E94A0
:101BE000550C0E94BA0A64E670E080E090E00E9422
:101BF000D0016AE570E084E090E00E94C00A64E6EB
:101C000070E080E090E00E94D0018AE590E00E94C0
:101C1000DA0B64E670E080E090E00E94D00164EBB3
:101C200070E082E090E00E94C00A66E970E080E027
:101C300090E00E94D00167E870E081E090E00E94AF
:101C4000C00A66E970E080E090E00E94D0018AE579
:101C500090E00E94AA0968EC70E080E090E00E94A9
:101C6000D00180911801811529F08091980381118C
:101C70000E94230D0E94550C10929A031092990312
:101C800082E592E0A4CFEF92FF920F931F93CF9340
:101C9000DF93EC017B018A01BA010E940E06282F16
:101CA00088819981211111C0009711F00E94821E34
:101CB000198218821D821C821B821A82DF91CF91A9
:101CC0001F910F91FF90EF9008950C831D83B70132
:101CD000DF91CF911F910F91FF90EF900C94EE1F29
:101CE000FB0101900020E9F73197AF01461B570B2C
:101CF0000C94430EAF92BF92CF92DF92EF92FF927D
:101D00000F931F93CF93DF93EC015B016A0179017D
:101D10002417350720F08F2D7A01C22ED82E198274
:101D200018821B821A821D821C8269E471E0CE0136
:101D30000E94700ED50114960D911C91E016F106CB
:101D400020F5C016D10608F48601D501ED91FC916D
:101D50001197E00FF11FD08010826D917C916E0D74
:101D60007F1D61157105E9F0FB0101900020E9F785
:101D70003197AF01461B570BCE010E94430ED50190
:101D8000ED91FC91E00FF11FD082CE01DF91CF9158
:101D90001F910F91FF90EF90DF90CF90BF90AF9089
:101DA000089588819981009711F00E94821E1982FE
:101DB00018821D821C821B821A82E1CFCF93DF938F
:101DC000D82FC92FFB01248135810E947A0E8D2FD7
:101DD0009C2FDF91CF910895BF92CF92DF92EF9227
:101DE000FF920F931F93CF93DF938C01DC01149626
:101DF000CD90DC901597C114D10461F48FEF9FEF63
:101E0000DF91CF911F910F91FF90EF90DF90CF90D6
:101E1000BF900895ED91FC911197EC0DFD1DB080E0
:101E20001082ED90FC9060E270E0C7010E940320F8
:101E3000EC01EC0CFD1CF701B082892BF9F2D80102
:101E40008D919C91FE01E81BF90BCF01D9CF009732
:101E500011F00C94801C60E070E0CB0108952F928B
:101E60003F924F925F926F927F928F929F92AF922A
:101E7000BF92CF92DF92EF92FF920F931F93CF9377
:101E8000DF93CDB7DEB7C055D1090FB6F894DEBFEA
:101E90000FBECDBF1E8A1D8A1C8A1B8A188E1F8A00
:101EA0007E0123E1E20EF11C69E471E0C7010E94AA
:101EB000700ECB88DC880F89188D0E9486045C0127
:101EC0008FEFA816B80621F09AE0A916B104A9F57B
:101ED000C114D10409F45FC00115110561F1460177
:101EE0005401F40181914F01082E000C990B0E94BE
:101EF000BC1C892BA9F7015011090C0D1D1DF801FF
:101F00008081082E000C990B0E94BC1C892B19F0B3
:101F10000A151B0588F50F5F1F4F0A191B09CA1404
:101F2000DB0428F4A801B501C6010E94D11FF60107
:101F3000E00FF11F1082560129C0A9821A824801C0
:101F40003FEF831A930ADC8ACB8A188F0F8BB40178
:101F5000C7010E940E06CB88DC880F89188D811579
:101F600009F4ABCFBE016F5F7F4FC601800F911F99
:101F70000E94EE1F8401A1CF01501109C0CF082E8D
:101F8000000C990B0E94C91FF5018293F501819104
:101F90005F018111F4CF01151105E1F4C601C05BA9
:101FA000DF4F0FB6F894DEBF0FBECDBFDF91CF91EC
:101FB0001F910F91FF90EF90DF90CF90BF90AF9067
:101FC0009F908F907F906F905F904F903F902F9059
:101FD0000C94F706DC8ACB8A188F0F8B6AE471E0C9
:101FE000C7010E943B06811509F46AC080919903DC
:101FF00090919A03019729F483EA90E00E947C066D
:1020000068C082E090E090939A03809399030E94C5
:10201000550C80911801811509F449C080919803ED
:10202000811145C00E94AA0C8AE590E00E94AA098D
:1020300066E970E080E090E00E94D00168E770E01F
:1020400084E090E00E94C00A68EC70E080E090E0DC
:102050000E94D0018AE590E00E94DA0B66E970E008
:1020600080E090E00E94D0016CE870E082E090E0B7
:102070000E94C00A68EC70E080E090E00E94D0010D
:102080006BE470E081E090E00E94C00A68EC70E0D0
:1020900080E090E00E94D0010E94550C81E090E029
:1020A00090939A03809399038AE990E0A7CF0E94C6
:1020B000BA0A66E970E080E090E00E94D001B4CFF7
:1020C00060E571E0C7010E943B06811529F00E947E
:1020D000DB0D0E94550C62CF69E571E0C7010E94DB
:1020E0003B068115A9F08091990390919A03813064
:1020F000910541F08230910541F0892B51F784E739
:1021000090E07CCF8CE890E079CF81E890E076CFCA
:1021100060E671E0C7010E943B06811108C065E6D8
:1021200071E0C7010E943B06811509F45AC082E0A4
:1021300090E090939A038093990380911801811500
:1021400029F08091980381110E94230D0E94BA0A00
:1021500066E970E080E090E00E94D0016AE570E0FE
:1021600084E090E00E94C00A66E970E080E090E0C0
:102170000E94D0018AE590E00E94DA0B64E670E0EC
:1021800080E090E00E94D00164EB70E082E090E09B
:102190000E94C00A68EC70E080E090E00E94D001EC
:1021A00067E870E081E090E00E94C00A68EC70E0AF
:1021B00080E090E00E94D0018AE590E00E94AA09A8
:1021C0006AEF70E080E090E00E94D00110929803E6
:1021D00010929A03109299030E94550C8AE492E09F
:1021E0000DCF6AE671E0C7010E943B06811164C011
:1021F0006FE671E0C7010E943B0681115DC061E797
:1022000071E0C7010E943B0681115BC067E771E086
:10221000C7010E943B06811154C01C821B821E8292
:102220001D821A82198269E771E08E010F5F1F4FCC
:10223000C8010E94700EA980BA80B801C7010E942F
:102240005006982EC5010E94F70691103FC01C82CF
:102250001B821E821D821A82198262E871E0C80107
:102260000E94700EA980BA80B801C7010E94500672
:10227000982EC5010E94F706911409F4A5C049E003
:1022800050E0B701C8010E94DE0E09811A81C80121
:102290000E94270F6A307105810591050CF061C01D
:1022A0008AE090E09093090180930801C8010E94A0
:1022B000F70682E292E0A2CE0E94B40A82E492E0A3
:1022C0009DCE0E94BA0A89E392E098CE48E050E0A1
:1022D000B701C8010E94DE0E09811A81C8010E945F
:1022E000270F6A3071058105910564F48AE090E05A
:1022F00090930B0180930A01C8010E94F7068EE2B9
:1023000092E07CCE48E050E0B701CE0107960E94F3
:10231000DE0EAF80B884C5010E94270F6B3A7105AD
:102320008105910554F08AEA90E090930B01809327
:102330000A01C5010E94F706DFCF48E050E0B7016F
:10234000CE010D960E94DE0EED84FE84C7010E9430
:10235000270F70930B0160930A01C7010E94F706D3
:10236000E8CF49E050E0B701CE0107960E94DE0EAB
:10237000AF80B884C5010E94270F6B3A71058105B3
:10238000910554F08AEA90E0909309018093080146
:10239000C5010E94F7068ACF49E050E0B701CE019F
:1023A0000D960E94DE0EED84FE84C7010E94270F69
:1023B0006DA77EA72DA53EA53093090120930801A6
:1023C000C7010E94F706E4CF6CE871E0C7010E94E4
:1023D0003B06811509F18DE092E00E94CB046091EB
:1023E0000A0170910B01072E000C880B990B0E94BB
:1023F000820685E092E00E94CB0460910801709112
:102400000901072E000C880B990B0E94820687E4B5
:1024100091E00E946C065DCE1C821B821E821D8292
:102420001A8219826AE971E0C8010E94700EA980BF
:10243000BA80B801C7010E94500633243394811139
:1024400019C01A8619861C861B8618861F8267E9A2
:1024500071E0CE0107960E94700E8F809884BE01B5
:10246000695F7F4FC7010E9450068170382EC401FA
:102470000E94F706C5010E94F706311409F1C70151
:102480000E94EC0EAC014F5F5F4FB701C8010E9484
:10249000DE0E09811A81C8010E94270F6F8F78A371
:1024A00089A39AA3C8010E94F70681E0EF8DF8A1E5
:1024B000EF2B09F480E08093DC028CEF91E09ECD5D
:1024C00062EA71E0C7010E943B0681116BC063EBB9
:1024D00071E0C7010E943B06811164C06BED71E0A1
:1024E000C7010E943B06811162C067EA71E0C70123
:1024F0000E943B06811160C06FEA71E0C7010E9433
:102500003B06811159C01C821B821E821D821A82C9
:10251000198267EB71E0C8010E94700EA980BA8031
:10252000B801C7010E945006982EC5010E94F70607
:10253000911047C068ED71E0C7010E943B0681150C
:1025400009F4A1C084EB91E00E94CB0460910601E4
:1025500070910701072E000C880B990B0E948206D0
:1025600080E20E94DB046091040170910501072E56
:10257000000C880B990B0E94820680E20E94DB040B
:102580006091020170910301072E000C880B990BDA
:102590000E94820680E20E94DB046091000170913B
:1025A00001012FCF0E94710984EF91E027CD0E9495
:1025B000AA0C8AEE91E022CD0E94230D8FED91E0CE
:1025C0001DCDCE0149969F938F930C979F938F9328
:1025D00006979F938F931F930F9382EC91E09F93A5
:1025E0008F93DF92CF920E940E200FB6F894DEBF39
:1025F0000FBECDBF049709F043C089819A81853B06
:10260000910554F184EB90E09093070180930601CB
:102610008F819885853B910524F184EB90E0909320
:102620000501809304018D859E85853B9105F4F01D
:1026300084EB90E09093030180930201898D9A8D41
:10264000853B9105C4F084EB90E090930101809369
:10265000000182ED91E0D2CC97FFD6CF80E090E0F0
:10266000D3CF97FFDCCF80E090E0D9CF97FFE2CFC8
:1026700080E090E0DFCF97FFE8CF80E090E0E5CF0B
:1026800083EC91E0BBCC1C821B821E821D821A82CD
:10269000198262EE71E0C8010E94700EA980BA80B2
:1026A000B801C7010E945006982EC5010E94F70686
:1026B0009114E9F04BE050E0B701C8010E94DE0E32
:1026C00009811A81C8010E94270F6BA37CA38DA3E7
:1026D0009EA3C8010E94F70681E0EBA1FCA1EF2BAD
:1026E00009F480E08093180186EA91E087CC1C828F
:1026F0001B821E821D821A8219826EEE71E0C80151
:102700000E94700EA980BA80B801C7010E945006CD
:10271000982EC5010E94F7069114E9F045E050E0BB
:10272000B701C8010E94DE0E09811A81C8010E940A
:10273000270F6FA378A789A79AA7C8010E94F70659
:1027400081E02FA138A5232B09F480E08093980322
:102750008EE991E053CC1C821B821E821D821A825C
:10276000198264EF71E0C8010E94700EA980BA80DE
:10277000B801C7010E94500633243394811119C057
:102780001A8619861C861B8618861F826DEF71E0DB
:10279000CE0107960E94700E8F809884BE01695FFB
:1027A0007F4FC7010E9450068170382EC4010E94DD
:1027B000F706C5010E94F7063114F1F0C7010E9427
:1027C000EC0EAC014F5F5F4FB701C8010E94DE0EF7
:1027D000E980FA80C7010E94270F8B01C7010E9480
:1027E000F7060FA718AB6FA578A981E090E00E94CB
:1027F000960983E991E002CC1C821B821E821D8215
:102800001A82198263E072E0C8010E94700EA980EA
:10281000BA80B801C7010E94500681113FC01A86D4
:1028200019861C861B8618861F826DE072E0CE0119
:1028300007960E94700E8F809884BE01695F7F4F5B
:10284000C7010E9450068170F82EC4010E94F7064D
:10285000C5010E94F706F11421F1CE0143960E94B2
:10286000EC0EAC014F5F5F4FBE016D5E7F4FC80144
:102870000E94DE0EE980FA80C7010E94270F8B01BB
:10288000C7010E94F70609AB1AAB69A97AA98FEFB5
:102890009FEF0E94960987E891E0B0CBFF24F39464
:1028A000D7CF1C821B821E821D821A82198264E18C
:1028B00072E0C8010E94700EE980FA80B801CE0172
:1028C00043960E9450069924939481111AC01A8647
:1028D00019861C861B8618861F826FE172E0CE0166
:1028E00007960E94700EAF80B884BE01695F7F4F6B
:1028F000CE0143960E9450068170982EC5010E9419
:10290000F706C7010E94F706911409F1CE0143961C
:102910000E94EC0EAC014F5F5F4FBE016D5E7F4FBA
:10292000C8010E94DE0EE980FA80C7010E94270FCD
:102930008B01C7010E94F7060BAB1CAB6BA97CA9EE
:102940008FEF9FEF0E9496098AE791E057CB1C8298
:102950001B821E821D821A82198267E272E0C80100
:102960000E94700EE980FA80B801CE0143960E9461
:1029700050069924939481111AC01A8619861C86D0
:102980001B8618861F8263E372E0CE0107960E94C1
:10299000700EAF80B884BE01695F7F4FCE01439651
:1029A0000E9450068170982EC5010E94F706C7014B
:1029B0000E94F706911409F1CE0143960E94EC0E95
:1029C000AC014F5F5F4FBE016D5E7F4FC8010E943B
:1029D000DE0EE980FA80C7010E94270F8B01C70134
:1029E0000E94F7060DAB1EAB6DA97EA981E090E0B9
:1029F0000E9496098CE691E001CB1C821B821E820C
:102A00001D821A8219826CE372E0C8010E94700E66
:102A1000E980FA80B801CE0143960E9450069924BD
:102A2000939481111AC01A8619861C861B861886F3
:102A30001F8267E472E0CE0107960E94700EAF809D
:102A4000B884BE01695F7F4FCE0143960E94500655
:102A50008170982EC5010E94F706C7010E94F706F3
:102A6000911499F1CE0143960E94EC0EAC014F5F98
:102A70005F4FBE016D5E7F4FC8010E94DE0E09816F
:102A80001A81C8010E94270F6B8F7C8F8D8F9E8FBC
:102A9000EB8CFC8CC8010E94F7068B8D9C8DF7FE99
:102AA00003C091958195910924E1289FB001299F48
:102AB000700D112481E090E0F7FE02C08FEF9FEFD0
:102AC0000E9496098FE591E099CA1C821B821E82A2
:102AD0001D821A8219826FE472E0C8010E94700E92
:102AE000E980FA80B801CE0143960E945006B82EC4
:102AF000C7010E94F706B114D1F045E050E0BE01D5
:102B00006D5E7F4FC8010E94DE0EE980FA80C7012A
:102B10000E94270F8B01C7010E94F7060FAB18AF69
:102B20008FA998AD0E94AA0987E591E067CA1C8227
:102B30001B821E821D821A82198265E572E0C8011D
:102B40000E94700EE980FA80B801CE0143960E947F
:102B500050069924939481111AC01A8619861C86EE
:102B60001B8618861F826AE572E0CE0107960E94D6
:102B7000700EAF80B884BE01695F7F4FCE0143966F
:102B80000E9450068170982EC5010E94F706C70169
:102B90000E94F706911409F1CE0143960E94EC0EB3
:102BA000AC014F5F5F4FBE016D5E7F4FC8010E9459
:102BB000DE0EE980FA80C7010E94270F8B01C70152
:102BC0000E94F70609AF1AAF69AD7AAD81E090E0D7
:102BD0000E94760A8AE491E011CA1C821B821E823E
:102BE0001D821A82198260E672E0C8010E94700E8E
:102BF000E980FA80B801CE0143960E9450069924DC
:102C0000939481111AC01A8619861C861B86188611
:102C10001F8265E672E0CE0107960E94700EAF80BB
:102C2000B884BE01695F7F4FCE0143960E94500673
:102C30008170982EC5010E94F706C7010E94F70611
:102C4000911409F1CE0143960E94EC0EAC014F5F46
:102C50005F4FBE016D5E7F4FC8010E94DE0EE980AE
:102C6000FA80C7010E94270F8B01C7010E94F70657
:102C70000BAF1CAF6BAD7CAD8FEF9FEF0E94760A60
:102C80008CE391E0BBC91C821B821E821D821A82CA
:102C900019826CE672E0C8010E94700EE980FA8029
:102CA000B801CE0143960E945006BB24B394811113
:102CB0001AC01A8619861C861B8618861F8261E731
:102CC00072E0CE0107960E94700E0F811885BE013A
:102CD000695F7F4FCE0143960E9450068170B82EE7
:102CE000C8010E94F706C7010E94F706B11411F14E
:102CF000CE0143960E94EC0EAC014F5F5F4FBE01C8
:102D00006D5E7F4FCE0101960E94DE0EE980FA8053
:102D1000C7010E94270F8B01C7010E94F7060DAF64
:102D20001EAF6DAD7EAD8FEF9FEF0E94760A8DE2F4
:102D300091E064C91C821B821E821D821A82198244
:102D400069E772E0CE0101960E94700E09811A8136
:102D5000BE016F5F7F4FCE0143960E945006BB2499
:102D6000B39481111AC01A8619861C861B86188690
:102D70001F826EE772E0CE0107960E94700EEF8010
:102D8000F884BE01695F7F4FCE0143960E945006D2
:102D90008170B82EC7010E94F706C8010E94F7068D
:102DA000B11431F1CE0143960E94EC0EAC014F5F9D
:102DB0005F4FBE016D5E7F4FCE0101960E94DE0E19
:102DC000E980FA80C7010E94270F8B01C7010E948A
:102DD000F7060FAF21961FAF219721966EAD7FADFD
:102DE000219781E090E00E94760A8DE191E006C98A
:102DF00067E872E0CE0143960E943B06811180C0D5
:102E000062E972E0CE0143960E943B06811178C0D0
:102E10006DE972E0CE0143960E943B06811176C0B7
:102E200068EA72E0CE0143960E943B0681116EC0B3
:102E300063EB72E0CE0143960E943B0681116BC0AA
:102E40006BEB72E0CE0143960E943B06811163C09A
:102E50001C821B821E821D821A82198263EC72E020
:102E6000CE0101960E94700E09811A81BE016F5F2A
:102E70007F4FCE0143960E945006F82EC8010E9453
:102E8000F706F11051C01C821B821E821D821A821D
:102E900019826BEC72E0CE0101960E94700E0981DE
:102EA0001A81BE016F5F7F4FCE0143960E9450068C
:102EB000F82EC8010E94F706F11409F456C048E044
:102EC00050E0BE016D5E7F4FCE0101960E94DE0E86
:102ED000E980FA80C7010E94270F8B01C7010E9479
:102EE000F70624960FAF249725961FAF25972596B2
:102EF0008EAD9FAD25970E948A0A83ED90E07EC833
:102F000081E08093DD028AE091E078C81092DD02D2
:102F100087EF90E073C88AE590E090931101809369
:102F2000100187EE90E06AC847E050E0BE016D5E98
:102F30007F4FCE0101960E94DE0EE980FA80C70124
:102F40000E94270F8B01C7010E94F70622960FAF40
:102F5000229723961FAF239723968EAD9FAD23977D
:102F60000E94DA0B8DED90E049C81C821B821E8204
:102F70001D821A82198264ED72E0CE0101960E94D0
:102F8000700E09811A81BE016F5F7F4FCE0143969B
:102F90000E945006F82EC8010E94F706F11421F194
:102FA00046E050E0BE016D5E7F4FCE0101960E946B
:102FB000DE0EE980FA80C7010E94270F8B01C7014E
:102FC0000E94F70626960FAF269727961FAF2797E2
:102FD00027966EAD7FAD279784E090E00E94C00AEF
:102FE0008AEC90E00C94FE0F60E270E0C6010E9453
:102FF000DA1F8BA79CA78BA59CA5009709F485C019
:103000008C010C191D09101611060CF07EC09801D8
:1030100040E050E0BE016D5E7F4FCE0101960E9400
:103020007A0EA980BA80C5010E94270F2B01C50125
:103030000E94F706A8014F5F5F4FBE016D5E7F4F94
:10304000CE0101960E94DE0E09811A81C8010E94FC
:10305000270F5B01C8010E94F7064114510481F457
:103060002896AFAE28972996BFAE299729968EADA0
:103070009FAD29970E94AA0982EC90E00C94FE0F64
:1030800095E04916510469F42A96AFAE2A972B961B
:10309000BFAE2B972B968EAD9FAD2B970E948A0AC1
:1030A000EBCFE3E04E16510469F42C96AFAE2C97AB
:1030B0002D96BFAE2D972D968EAD9FAD2D970E946C
:1030C000DA0BDACFF4E04F16510479F42E96AFAE56
:1030D0002E972F96BFAE2F972F966EAD7FAD2F9761
:1030E00084E090E00E94C00AC7CFC2010197029716
:1030F00018F66096AFAE60976196BFAE6197619625
:103100006EAD7FAD6197C201EDCF8CEA90E00C947B
:10311000FE0F1F921FB61F9211242F933F938F9380
:103120009F93AF93BF938091520490915304A091C9
:103130005404B09155043091510423E0230F2D37EE
:1031400050F50196A11DB11D2093510480935204A6
:1031500090935304A0935404B093550480914D046C
:1031600090914E04A0914F04B09150040196A11D7E
:10317000B11D80934D0490934E04A0934F04B093DF
:103180005004BF91AF919F918F913F912F911F90CC
:103190001FBE1F90189526E8230F0296A11DB11D92
:1031A000D3CF1F920F920FB60F9211242F933F93FC
:1031B0004F935F936F937F938F939F93AF93BF933F
:1031C000EF93FF93E0911901F0911A010995FF9196
:1031D000EF91BF91AF919F918F917F916F915F918F
:1031E0004F913F912F910F900FBE0F901F90189508
:1031F0001F920F920FB60F9211242F933F934F936C
:103200005F936F937F938F939F93AF93BF93EF934E
:10321000FF93E0911B01F0911C010995FF91EF9143
:10322000BF91AF919F918F917F916F915F914F91DE
:103230003F912F910F900FBE0F901F9018952F93D5
:103240002FB72F938F939F93EF93FF93E091C0033A
:10325000F091C1038081E091C603F091C70382FD24
:1032600019C090818091C9038F5F8F732091CA0329
:10327000821741F0E091C903F0E0E055FC4F958FD3
:103280008093C903FF91EF919F918F912F912FBF51
:103290002F9118958081F6CF1F920F920FB60F9243
:1032A00011242F933F934F935F936F937F938F934B
:1032B0009F93AF93BF93EF93FF9380EB93E00E94B4
:1032C0007002FF91EF91BF91AF919F918F917F918C
:1032D0006F915F914F913F912F910F900FBE0F9083
:1032E0001F9018951F920F920FB60F9211242F93D3
:1032F0003F934F935F936F937F938F939F93AF937E
:10330000BF93EF93FF939091B900892F887F803509
:1033100009F4C0C008F042C0803309F4B6C098F583
:10332000883101F1D0F4883009F4A7C0803109F464
:10333000A4C0811509F4F0C0FF91EF91BF91AF9146
:103340009F918F917F916F915F914F913F912F91BD
:103350000F900FBE0F901F901895803209F495C002
:10336000883251F790916C0380916B03981778F530
:10337000E0916C0381E08E0F80936C03F0E0E55BDD
:10338000FC4F80817CC0803409F490C0883409F4FB
:103390007EC0883389F680934A036DC0803A09F471
:1033A0009FC0B8F5803809F489C050F5803611F116
:1033B000D8F4883509F6E0916C0381E08E0F809394
:1033C0006C038091BB00F0E0E55BFC4F8083809153
:1033D000960381115CC081E08093950384EA809319
:1033E000BC0010929703A8CF803721F0987E9836C2
:1033F00009F0A2CF83E0809397031092490341C064
:10340000803909F45BC0987E983809F095CF85E83B
:1034100039C0883BD9F058F5883A19F0803B09F05B
:103420008BCF84E08093970310922603109294032D
:10343000E0912403F0912503099580919403811173
:1034400005C081E08093940310927403E0912603F9
:1034500081E08E0F80932603F0E0EC58FC4F8081D2
:103460008093BB00909126038091940323C0907FAA
:10347000903C09F061CF85ECB2CF80916D038093D1
:10348000BB0085EC8093BC0057CF80934A030E9419
:103490001D0C52CFE0916C0381E08E0F80936C0382
:1034A0008091BB00F0E0E55BFC4F808390916C0362
:1034B00080916B03981708F0AACFE3CF809149035E
:1034C000803208F0A4CFE091490381E08E0F809311
:1034D00049038091BB00F0E0E75DFC4F8083D1CFD2
:1034E00085EC8093BC001092970380914903803251
:1034F00030F4E0914903F0E0E75DFC4F1082609109
:10350000490370E0E0912703F091280389E293E0FA
:1035100009951092490310CF10924A03B8CFCDB746
:10352000DEB72B970FB6F894DEBF0FBECDBF7894F1
:1035300084B5826084BD84B5816084BD85B58260B8
:1035400085BD85B5816085BD80916E008160809369
:103550006E001092810080918100826080938100D2
:1035600080918100816080938100809180008160E2
:10357000809380008091B10084608093B10080913D
:10358000B00081608093B00080917A008460809365
:103590007A0080917A00826080937A0080917A002C
:1035A000816080937A0080917A00806880937A00AD
:1035B0001092C100E091C003F091C10382E08083CA
:1035C000E091BC03F091BD031082E091BE03F09145
:1035D000BF0380E180831092C803E091C403F0919F
:1035E000C50386E08083E091C203F091C30380812C
:1035F00080618083E091C203F091C3038081886081
:103600008083E091C203F091C3038081806880834E
:10361000E091C203F091C30380818F7D80830E947B
:10362000D30564E670E080E090E00E94D0018091D4
:103630009E0390919F03009711F00E94821E86E0E6
:1036400090E00E94EC1D8C0180919C0390919D0361
:1036500020919B03F801208392838183138280E26F
:1036600090E09583848310939F0300939E030E94B0
:10367000D30581E0F8018383C8010E94EA05811522
:10368000E1F060E880E00E942A076AE070E080E0F4
:1036900090E00E94D00180E498E7ADE7B1E080932C
:1036A000A0039093A103A093A203B093A30360E0AF
:1036B00070E08AE794E40E94420780EC9CEFABE95B
:1036C000B1E08093A0039093A103A093A203B093D1
:1036D000A30360E070E088E492E40E9442070E9445
:1036E000710910929A0310929903CE0101967C0100
:1036F00000E010E0C8010E944423F70181937F019C
:103700000F5F1F4F0B301105A9F78981853A09F02A
:103710005AC08A81833028F490E090939A03809372
:1037200099032B8181E0213009F080E08093980398
:1037300081E09C81913009F080E0809318018D81B7
:103740009E818936F1E09F070CF45BC088E691E02A
:1037500090931701809316018F81853B08F084EBCD
:1037600090E090931501809314018885853B08F0C3
:1037700084EB90E090931301809312018985853B3F
:1037800008F084EB90E090931101809310018A85FA
:10379000853B08F084EB90E090930F0180930E013D
:1037A0008B85853B08F084EB90E090930D0180932E
:1037B0000C01213031F08091990390919A03892B6B
:1037C00011F00E94DB0D10929A03109299030E944F
:1037D000550C8AE692E00E947C0600E010E080EB47
:1037E00093E00E949202892B11F00E942F0F011585
:1037F0001105A9F30E949D02811589F30E94000022
:10380000EECF97FFA5CF80E090E0A2CFABE9B3E089
:1038100080E48C93E4EAF3E01296FC93EE93119724
:1038200014961C921E9213971382128288EE93E0D4
:10383000A0E0B0E084839583A683B78327E231E0DC
:1038400031832083E0EBF3E013821282848395833B
:10385000A683B78389E391E09183808385EC90E030
:103860009587848784EC90E09787868780EC90E04A
:10387000918B808B81EC90E0938B828B82EC90E03B
:10388000958B848B86EC90E0978B868B118E128EB5
:10389000138E148E089597FB072E16F4009407D00C
:1038A00077FD09D00E94661C07FC05D03EF4909578
:1038B00081959F4F0895709561957F4F08950E945F
:1038C000D223B7FF0895821B930B0895AA1BBB1B3D
:1038D00051E107C0AA1FBB1FA617B70710F0A61B10
:1038E000B70B881F991F5A95A9F780959095BC0131
:1038F000CD010895EE0FFF1F0590F491E02D09947E
:103900001F93FC0199278827BC01E894119110327C
:10391000E9F3193010F01E30C8F31B3251F01D329C
:1039200049F4689406C00E94A71C610F711D811D97
:10393000911D119110531A30B0F33EF4909580957B
:10394000709561957F4F8F4F9F4F1F910895592F0D
:10395000482F372F262F660F771F881F991F660F56
:10396000771F881F991F620F731F841F951F660F93
:10397000771F881F991F089591110C94981D80320C
:1039800019F089508550C8F708950E94071D08F462
:1039900081E00895E89409C097FB3EF490958095E6
:1039A000709561957F4F8F4F9F4F9923A9F0F92F05
:1039B00096E9BB279395F695879577956795B79583
:1039C000F111F8CFFAF4BB0F11F460FF1BC06F5F69
:1039D0007F4F8F4F9F4F16C0882311F096E911C07B
:1039E000772321F09EE8872F762F05C0662371F09C
:1039F00096E8862F70E060E02AF09A95660F771FB0
:103A0000881FDAF7880F9695879597F90895990F8B
:103A10000008550FAA0BE0E8FEEF16161706E80798
:103A2000F907C0F012161306E407F50798F0621BB9
:103A3000730B840B950B39F40A2661F0232B242B8E
:103A4000252B21F408950A2609F4A140A6958FEFAD
:103A5000811D811D08950E943E1D0C94B21D0E947F
:103A6000A41D38F00E94AB1D20F0952311F00C949A
:103A70009B1D0C94A11D11240C94E61D0E94C31DD6
:103A800070F3959FC1F3950F50E0551F629FF001B1
:103A9000729FBB27F00DB11D639FAA27F00DB11DCA
:103AA000AA1F649F6627B00DA11D661F829F222753
:103AB000B00DA11D621F739FB00DA11D621F839FDA
:103AC000A00D611D221F749F3327A00D611D231FB0
:103AD000849F600D211D822F762F6A2F11249F57FE
:103AE00050409AF0F1F088234AF0EE0FFF1FBB1F01
:103AF000661F771F881F91505040A9F79E3F5105C0
:103B000080F00C949B1D0C94E61D5F3FE4F3983EFF
:103B1000D4F3869577956795B795F795E7959F5F69
:103B2000C1F7FE2B880F911D9695879597F90895FB
:103B300099278827089597F99F6780E870E060E0EB
:103B400008959FEF80EC089500240A941616170636
:103B500018060906089500240A941216130614067E
:103B600005060895092E0394000C11F4882352F0E1
:103B7000BB0F40F4BF2B11F460FF04C06F5F7F4F99
:103B80008F4F9F4F089557FD9058440F551F59F080
:103B90005F3F71F04795880F97FB991F61F09F3F3A
:103BA00079F087950895121613061406551FF2CF63
:103BB0004695F1DF08C0161617061806991FF1CFB3
:103BC00086957105610508940895E894BB276627DA
:103BD0007727CB0197F908950F931F93CF93DF9326
:103BE0009C01029710F422E030E0E0915604F0913D
:103BF000570480E090E0A0E0B0E0309791F40097A7
:103C000009F448C0821B930B84309105D0F58A815A
:103C10009B816115710581F1FB0193838283FE0114
:103C200011C0408151810281138142175307D8F09E
:103C30004217530799F4109761F012960C9312975C
:103C400013961C933296CF01DF91CF911F910F9164
:103C500008950093560410935704F4CF009751F041
:103C60004817590738F0AC01DB01CA01BD01DF017B
:103C7000F801C3CFEF01F9CF909357048093560416
:103C8000CECFFE01E80FF91F21933193029799835C
:103C90008883D9CF4091580450915904411551055A
:103CA00041F440911F0150912001509359044093D9
:103CB000580480911D0190911E01009741F48DB729
:103CC0009EB76091210170912201861B970B4817C6
:103CD000590708F0B8CF841B950B8217930708F497
:103CE000B2CFB9016E5F7F4F8617970708F4ABCF4D
:103CF000640F751F7093590460935804FA0121935F
:103D00003193A1CFCF93DF939C010097E9F0FC01A1
:103D1000329713821282C0915604D0915704DE016B
:103D200080E090E02097A1F480819181280F391FD5
:103D300080915804909159048217930709F068C044
:103D4000F0935904E0935804DF91CF910895DA017C
:103D5000AE17BF0708F042C012964D915C911397C1
:103D6000CD014115510599F7DC011396FC93EE93B3
:103D700012974D915D919D01240F351FE217F307B6
:103D800081F4208131812E5F3F4F240F351FDC01EC
:103D900011963C932E932281338113963C932E935C
:103DA0001297E0E0F0E08A819B810097B1F5DE0197
:103DB0008D919D918A0F9B1F209158043091590439
:103DC0002817390709F6309759F5109257041092C1
:103DD0005604D0935904C0935804B6CFB383A2833A
:103DE00040815181240F351FA217B30771F44E5F34
:103DF0005F4F2D913C911197240F351F3183208304
:103E000012962D913C9133832283009709F0ACCF19
:103E1000F0935704E093560497CFFE01EC01C3CF13
:103E200013821282D6CFA0E0B0E0E9E1FFE10C946A
:103E30007B237C019B01009751F4CB010E94EC1D78
:103E4000EC01CE01CDB7DEB7E0E10C949723FC0185
:103E5000E60FF71FDC011297C0E0D0E0EA17FB077E
:103E600080F30D911C91119706171707A8F00530E4
:103E7000110580F0C80104978617970758F0061BB4
:103E8000170B02501109019311936D937C93CF018D
:103E90000E94821EE701D5CF4B01801A910A5C0176
:103EA000A00EB11EC0915604D0915704412C512C44
:103EB00060E070E0209729F58091580490915904B2
:103EC0008A159B0509F056C04216530608F052C0E9
:103ED00080911D0190911E01009741F48DB79EB70E
:103EE0004091210150912201841B950BE817F9079D
:103EF00008F0A7CFF0935904E09358042D933C9316
:103F0000C9CF888199816A807B80CA15DB0559F504
:103F10006C0142E0C40ED11CC814D90420F1A801E0
:103F2000421B530B480F591FEA012296259778F040
:103F300062827382518340832D933C936115710596
:103F400069F0DB011396FC93EE931297A3CF9801CF
:103F50002E5F3F4F280F391FF301EECFF093570428
:103F6000E093560497CF4816590608F42C01BE0179
:103F7000E301A0CFC9010E94EC1DEC01009709F4F8
:103F800060CFA801B7010E94D11FC7010E94821E05
:103F900058CF9111089581568A5108F4805285585E
:103FA0000895FB01DC0102C001900D924150504088
:103FB000D8F70895FC018191861721F08823D9F75D
:103FC000992708953197CF010895FB01DC018D9168
:103FD000019080190110D9F3990B0895FB01DC01C0
:103FE00001900D920020E1F70895FB01DC014150A2
:103FF000504030F08D910190801919F40020B9F7EC
:10400000881B990B0895FC0181E090E00190061651
:1040100009F4CF010020D1F701970895AEE0B0E098
:10402000E4E1F0E20C94892385E08C838B899C8900
:104030009A838983AE01495E5F4F6D897E89CE0187
:1040400001960E94AE212E96E2E00C94A523CF9219
:10405000DF92EF92FF92FC016A017B0120FD08C014
:1040600023FD05C022FF02C0F382E282D182C0821A
:10407000FF90EF90DF90CF900895CF92DF92EF9274
:10408000FF926B017C0183E044FD10C084E046FD9B
:104090000DC0D601F701AA0FBB1FEE1FFF1F109422
:1040A000D1F7CA0EDB1EEE1EFF1E81E0CC0CDD1C1C
:1040B000EE1CFF1C8A95D1F7C701B601620F711D76
:1040C000811D911DFF90EF90DF90CF9008950F9389
:1040D0001F93CF93DF938C01C8010E94E822EC016B
:1040E00097FD08C00E94BC1C892BB1F7B801CE0116
:1040F0000E942B23CE01DF91CF911F910F91089544
:10410000A0E0B0E0E6E8F0E20C947F235C01162F1B
:104110004A01F22E0E94E822EC019927CB3221F0CD
:104120008D9781F46894F7F81A9531F480E0CDB753
:10413000DEB7ECE00C949B23C5010E94E822EC0161
:1041400097FDF4CF0F2D0D7F8F2D807381112FC020
:10415000C03369F5EE24EA94E10EE11431F0C501B3
:104160000E94E822EC0197FF15C0C12CD12C7601EA
:1041700007FF08C0F094E094D094C094C11CD11CF7
:10418000E11CF11C202FB701A601C4010E942720C9
:1041900081E0CDCF8F7D0F2D883511F5026412504F
:1041A00021F3C5010E94E822EC0197FDDECFC12C6E
:1041B000D12C76012C2F20532830D0F004FD09C0DB
:1041C0002A30B0F006FF05C02F7D8FEE820F8630BB
:1041D00070F0B501CE010E942B2301FFA7CFC8CFFD
:1041E000F6FE03C002601E2DE2CF0261FCCF275015
:1041F000402FC701B6010E943D206B017C01026087
:104200001A9509F4B5CFC5010E94E822EC0197FF89
:10421000D1CFAECFA0E2B0E0E0E1F1E20C947B239D
:104220004C01B62E7A01CE0101963C0180E2F301E9
:1042300011928A95E9F7F401B381890180E090E059
:10424000A0E050E070E021E030E0F801B3FD4591DE
:10425000B3FF4191642F8F01411107C000E010E0CE
:10426000C801A096E0E10C9497234E3511F4009715
:1042700041F178171906FCF44D3551F14D32D9F45E
:10428000511511F1E62FE695E695E695E60DF72D29
:10429000F11D462F4770290102C0440C551C4A9558
:1042A000E2F7A2015081452B40836A1779F06A1723
:1042B00030F46F5FE7CF5111E5CFA42FE3CF61500A
:1042C000E1CF71E00196C1CF51E0FCCF50E0FACFD1
:1042D000511519F08E8180628E83711561F0F301A2
:1042E0009E012F5D3F4F8081DF01319680958C9339
:1042F000E217F307C1F7AA24A394C4010E94E8229D
:104300006C0197FD17C0E82FE695E695E695E60D5A
:10431000F72DF11D808190E096012770332702C0B0
:10432000959587952A95E2F780FD07C0B401C601EF
:104330000E942B23A11459F091CFE114F10419F03C
:10434000F701C1927F01BA94A12CB110D6CFE1142C
:10435000F10409F485CFF701108282CFA5E0B0E027
:10436000E4EBF1E20C9479237C016C837D834B8335
:10437000252EFC0117821682312CF7014380EC8137
:10438000FD8143FC659043FE6190FD83EC836114E5
:1043900019F1862D90E00E94BC1C892B21F0C701E9
:1043A0000E946720EACFF5E26F120BC0EC81FD811D
:1043B00043FC759043FE7190FD83EC8385E2781297
:1043C0000EC0C7010E94E8224C0197FDAAC06816E2
:1043D000A1F2B7010E942B23832D90E0A6C09AE2A0
:1043E000612C79120AC0EC81FD8143FC759043FE7B
:1043F0007190FD83EC8366246394512C20ED270D8E
:104400002A3078F161FE40C0511431F3E8E67E169F
:1044100009F43DC0FCE67F1609F446C07114E1F2D0
:10442000672D70E088E690E00E94DD22892BA1F2E2
:1044300000E010E060FC08C0AB80B22CF5010191F7
:1044400011915F01EB832B2CFEE67F1238C0F70140
:104450004681578160E070E0262DC8010E94272028
:104460008CCF689461F8652D70E080E090E040E2C8
:104470000E943D20562EEC81FD8143FC759043FE49
:104480007190FD83EC83BACF55245A94BFCFEC8151
:10449000FD8143FC759043FE7190FD83EC8388E6BB
:1044A0007812BCCF689463F8689462F8EC81FD815F
:1044B00043FC759043FE7190FD83EC83AFCFF3E630
:1044C0007F1219C061FC02C055245394C7010E9499
:1044D000E82289839A8389819A8197FD22C00115F8
:1044E000110519F0F80181938F015A9479F760FC56
:1044F00044CF339442CF9BE579121BC02C813D8180
:10450000A801652DC7010E940A218C839D83EC813F
:10451000FD81EF2B61F7F70183818073811509F429
:104520005BCF8FEF9FEF311057CF2596E2E10C94D0
:104530009523C7010E94672097FDF3CFFFE67F1602
:10454000C9F180E7781648F494E6791661F0E9E657
:104550007E1659F0689466F808C0F3E77F16A9F054
:1045600085E77812F7CF689465F8262DA801652DA8
:10457000C7010E9480208115CDCF0115110519F0CA
:10458000F801C1928F015A9471F0C7010E94E8228C
:104590006C0197FD08C00E94BC1C892B71F3B70108
:1045A000C6010E942B230115110509F4A0CFF801C3
:1045B00010829DCF689464F8D8CFFC010590061650
:1045C00021F00020D9F7C00108953197CF01089557
:1045D0000F931F93CF93DF93EC018B8180FF1DC05E
:1045E00086FF0EC08F7B8B838E819F8101969F8378
:1045F0008E838A8190E0DF91CF911F910F91089572
:1046000082FF19C0E881F9819081092F092E000CE1
:10461000110B911105C080628B838FEF9FEFEBCF61
:104620003196F983E8838E819F8101969F838E83E3
:10463000C8019927E0CFEA85FB85CE0109958C0159
:1046400097FFF1CF8B810F3F1F4F19F490E1892B1A
:10465000E3CF90E2FCCF9C01FB01838180FF11C07E
:1046600086FD0FC02F3F320751F022838F7D80647B
:104670008383868197810197978386833327C90136
:1046800008952FEF3FEFFBCFF999FECF92BD81BD8B
:10469000F89A992780B50895262FF999FECF1FBA69
:1046A00092BD81BD20BD0FB6F894FA9AF99A0FBE5B
:1046B00001960895052E97FB1EF400940E94712325
:1046C00057FD07D00E94B02307FC03D04EF40C9492
:1046D000712350954095309521953F4F4F4F5F4F37
:1046E000089590958095709561957F4F8F4F9F4F5E
:1046F00008952F923F924F925F926F927F928F9286
:104700009F92AF92BF92CF92DF92EF92FF920F9360
:104710001F93CF93DF93CDB7DEB7CA1BDB0B0FB66A
:10472000F894DEBF0FBECDBF09942A883988488827
:104730005F846E847D848C849B84AA84B984C884BD
:10474000DF80EE80FD800C811B81AA81B981CE0FB4
:10475000D11D0FB6F894DEBF0FBECDBFED01089599
:10476000A1E21A2EAA1BBB1BFD010DC0AA1FBB1F75
:10477000EE1FFF1FA217B307E407F50720F0A21BE7
:10478000B30BE40BF50B661F771F881F991F1A9454
:1047900069F760957095809590959B01AC01BD017E
:1047A000CF010895A29FB001B39FC001A39F700DD8
:1047B000811D1124911DB29F700D811D1124911D29
:1047C00008955058BB27AA270E94F9230C94B21DC4
:1047D0000E94A41D38F00E94AB1D20F039F49F3FC9
:1047E00019F426F40C94A11D0EF4E095E7FB0C944B
:1047F0009B1DE92F0E94C31D58F3BA176207730768
:104800008407950720F079F4A6F50C94E51D0EF4C5
:10481000E0950B2EBA2FA02D0B01B90190010C01D0
:10482000CA01A0011124FF27591B99F0593F50F4E8
:10483000503E68F11A16F040A22F232F342F442740
:10484000585FF3CF469537952795A795F040539538
:10485000C9F77EF41F16BA0B620B730B840BBAF008
:104860009150A1F0FF0FBB1F661F771F881FC2F773
:104870000EC0BA0F621F731F841F48F48795779587
:104880006795B795F7959E3F08F0B0CF9395880F41
:1048900008F09927EE0F9795879508950E94622456
:1048A0000C94B21D0E94AB1D58F00E94A41D40F054
:1048B00029F45F3F29F00C949B1D51110C94E61DC7
:1048C0000C94A11D0E94C31D68F39923B1F35523D5
:1048D00091F3951B550BBB27AA2762177307840713
:1048E00038F09F5F5F4F220F331F441FAA1FA9F3A9
:1048F00035D00E2E3AF0E0E832D091505040E69597
:10490000001CCAF72BD0FE2F29D0660F771F881FF7
:10491000BB1F261737074807AB07B0E809F0BB0BEA
:10492000802DBF01FF2793585F4F3AF09E3F5105FE
:1049300078F00C949B1D0C94E61D5F3FE4F3983EC9
:10494000D4F3869577956795B795F7959F5FC9F7E7
:10495000880F911D9695879597F90895E1E0660F68
:10496000771F881FBB1F621773078407BA0720F0E1
:10497000621B730B840BBA0BEE1F88F7E09508954A
:104980000E94CB1D88F09F5798F0B92F9927B751F7
:10499000B0F0E1F0660F771F881F991F1AF0BA95E3
:1049A000C9F714C0B13091F00E94E51DB1E008953F
:1049B0000C94E51D672F782F8827B85F39F0B93F31
:1049C000CCF3869577956795B395D9F73EF4909596
:1049D0008095709561957F4F8F4F9F4F08950E94EE
:0C49E000071D08F48FEF0895F894FFCF36
:1049EC005A00A50073000F0028004B0028005A0045
:1049FC005A00B40087005A00016F026F0200005A7F
:104A0C0004200000000000E10310044F0367043E83
:104A1C0004450458040000000002035203D302E2D0
:104A2C00029202BF02B1020D0A00424C4F434B00EE
:104A3C005245545249455645005354415455530020
:104A4C00484F4D450042415345004F50454E004F95
:104A5C0000434C4F53450043005345544F50454E73
:104A6C002000534554434C4F534520004745544771
:104A7C0052495050455200534554484F4C442035F0
:104A8C00200053544F50005055544241434B004466
:104A9C00524F504F4646005345545049434B555086
:104AAC0020005345545049434B5550202564202534
:104ABC0064202564202564004745545049434B55D8
:104ACC0050005049434B55504D4F444520004341F5
:104ADC00524420004241534520435720003020438C
:104AEC005720004241534520434357200030204378
:104AFC004357200042415345204C4546542000303A
:104B0C00204C4546542000424153452052494748C9
:104B1C00542000302052494748542000424153450C
:104B2C00205350494E200030205350494E20004213
:104B3C0041534520005752495354332043572000CA
:104B4C00575249535433204343572000575249532B
:104B5C005433204C4546542000575249535433206B
:104B6C00524947485420004D4F444520332031389A
:104B7C00300033204D4F444520313830004D4F44E8
:104B8C00452033203336300033204D4F44452033FD
:104B9C003630005245534554203300332052455390
:104BAC004554005752495354332000534552564FE5
:0C4BBC00203520005049544348200000E0
:00000001FF
