:100000000C9487010C9458190C947F190C94AF012F
:100010000C94AF010C94AF010C94AF010C94AF01A0
:100020000C94AF010C94AF010C94AF010C94AF0190
:100030000C94AF010C94AF010C94AF010C94AF0180
:100040000C9410190C94AF010C94A6190C94D319AC
:100050000C94AF010C94AF010C94AF010C94AF0160
:100060000C94F9190C94AF016364696E6F70737529
:1000700078585B0053544154455F444F434B4544CB
:100080000053544154455F42555359005354415411
:10009000455F424C4F434B454400424C4F434B5FFE
:1000A0004F4B00424C4F434B5F4F4B004D4F56451B
:1000B0005F4F4B0050495443485F4F4B00534552EC
:1000C000564F355F4F4B005752495354335F4F4B98
:1000D000005752495354335F52455345545F4F4B79
:1000E000005752495354335F4D4F44455F333630C8
:1000F0005F4F4B005752495354335F4D4F44455F58
:100100003138305F4F4B005752495354335F524997
:100110004748545F4F4B005752495354335F4C4547
:1001200046545F4F4B005752495354335F43435734
:100130005F4F4B005752495354335F43575F4F4B08
:1001400000424153455F4F4B00424153455F53507E
:10015000494E5F4F4B00424153455F524947485417
:100160005F4F4B00424153455F4C4546545F4F4BF8
:1001700000424153455F4343575F4F4B0042415359
:10018000455F43575F4F4B00434152445F4F4B0025
:100190005049434B55504D4F44455F4F4B005049DC
:1001A000434B55505F414E474C45532000455252FA
:1001B0004F525F4241445F415247530053455450B0
:1001C00049434B55505F4F4B005055544241434BB0
:1001D0005F4F4B005049434B55505F4F4B005354BA
:1001E0004F505F4F4B00484F4C44355F4F4B002002
:1001F000434C4F53453D00475249505045525F4193
:100200004E474C4553204F50454E3D0050554C53A2
:1002100045355F4F4B004552524F525F554E4B4E46
:100220004F574E5F434F4D4D414E4400534554434D
:100230004C4F53455F4F4B005345544F50454E5F15
:100240004F4B00434C4F53455F4F4B004F50454E73
:100250005F4F4B00484F4D455F4F4B005245545246
:10026000494556455F4F4B00524554524945564506
:100270005F4F4B00506F73747572654775617264A0
:10028000204669726D776172652076312E37205273
:1002900065616479202843616C6962726174656488
:1002A00020477269707065722033302F2D32352CE3
:1002B000205A65726F2D5265626F756E64204261BF
:1002C0007365292E0000000000250028002B000483
:1002D00004040404040404020202020202030303ED
:1002E00003030301020408102040800102040810E7
:1002F0002001020408102000000008000201000094
:100300000304070000000000000000008F1C1124FF
:100310001FBECFEFD8E0DEBFCDBF12E0A0E0B1E05E
:10032000EEEFFAE402C005900D92A43EB107D9F7B2
:1003300024E0A4EEB2E001C01D92A236B207E1F7BC
:1003400011E0C7E8D1E004C02197FE010E94031D1F
:10035000C638D107C9F70E94161B0C947D250C9452
:1003600000003FB7F8948091550490915604A091F5
:100370005704B091580426B5A89B05C02F3F19F02B
:100380000196A11DB11D3FBFBA2FA92F982F882715
:10039000BC01CD01620F711D811D911D42E0660FF0
:1003A000771F881F991F4A95D1F708954F925F9242
:1003B0006F927F928F929F92AF92BF92CF92DF9275
:1003C000EF92FF920F931F93CF93DF938B01D82F60
:1003D000C92F0E94B101262F822E972E5C01680141
:1003E000ED2EFC2E05C0C114D104E104F10409F185
:1003F0000E94B1012B013C01481859086A087B088A
:100400008601DE2DCF2D31E0C31AD108E108F108B5
:10041000282D792DC50138EE830E33E0931EA11CE3
:10042000B11C38EE431633E0530661047104D8F66C
:10043000D3CFDF91CF911F910F91FF90EF90DF907D
:10044000CF90BF90AF909F908F907F906F905F9074
:100450004F90089590E0FC01E950FD4F2491FC017C
:10046000ED51FD4F3491FC01E153FD4FE491E11555
:1004700019F1211589F0243001F150F4223029F1CD
:100480002330F9F4809180008F778093800004C03E
:100490002730F1F0283011F1F0E0EE0FFF1FEB53A1
:1004A000FD4FA591B5919FB7F8948C9161111AC039
:1004B000309538233C939FBF0895809180008F7DB5
:1004C000E4CF84B58F7784BDE7CF84B58F7DFBCF34
:1004D0008091B0008F778093B000DECF8091B00024
:1004E0008F7DF9CF832B8C93E6CF0895FC01A48DEB
:1004F000A80FB92FB11DA35ABF4F2C91848D90E046
:1005000001968F739927848FA689B7892C93A08928
:10051000B1898C91837080648C93938D848D9813B2
:1005200006C00288F389E02D80818F7D8083089545
:10053000FC01818D228D90E0805C9F4F821B910990
:100540008F739927089588EB93E00E9498029C018D
:1005500081E0232B09F480E0089580E090E0892B6E
:1005600029F00E94A30281110C9400000895FC015F
:10057000918D828D981731F0828DE80FF11D858D58
:1005800090E008958FEF9FEF0895FC01918D828D8B
:10059000981761F0A28DAE0FBF2FB11D5D968C91A3
:1005A000928D9F5F9F73928F90E008958FEF9FEFE2
:1005B0000895FC01538D448D842F90E0252F30E069
:1005C000821B930B541710F0CF960895019708954E
:1005D000CF93DF93EC01888D81110FC0DF91CF9114
:1005E00008950FB607FC0DC08C9185FF0AC080816D
:1005F00085FF07C0CE010E947602AA89BB89E889DF
:10060000F9898C9185FDEDCF808186FFEACFE6CF19
:10061000EF92FF920F931F93CF93DF93EC01F62E8F
:1006200081E0888F9B8D8C8D98131AC0E889F98999
:10063000808185FF15C09FB7F894EE89FF8960839C
:10064000E889F98980818370806480839FBF81E01D
:1006500090E0DF91CF911F910F91FF90EF9008955F
:100660000B8D10E00F5F1F4F0F731127E02E8C8D45
:100670008E1579F0EB8DEC0FFD2FF11DE35AFF4F36
:10068000F0829FB7F8940B8FEA89FB8980818062A2
:10069000DCCF0FB607FCEBCFE889F989808185FFB5
:1006A000E6CFCE010E947602E2CF80E090E008958E
:1006B000CF92DF92EF92FF920F931F93CF93DF932E
:1006C0007C016A0100E010E00C151D0551F4C80121
:1006D000DF91CF911F910F91FF90EF90DF90CF901E
:1006E0000895EB01D701ED91FC910190F081E02D8F
:1006F0006991C7010995892B51F30F5F1F4FBE0107
:10070000E3CF10929F0381E080939E0310929D039C
:1007100061E082E10E942A0261E083E10E942A02F4
:10072000E9EBF0E080818E7F808380818D7F808304
:1007300088E48093B80085E48093BC0008952091FC
:100740009C03260F3327331F21323105ECF420910F
:100750009F03FC0180E090E0243069F082E008957E
:10076000A0919C032191AC0144585C4FA40FB52F7C
:10077000B11D2C930196861798F380919C03680F06
:1007800060939C0380E0089581E00895CF93DF9308
:1007900091E0909376038115B9F0C091B800D091A3
:1007A000BA008091BC008A7B8093BC0060E082E14B
:1007B0000E942A0260E083E10E942A020E948103D3
:1007C000D093BA00C093B800DF91CF910895CF9332
:1007D000DF930F92CDB7DEB7FC01698380912B03C5
:1007E0008115F1F080912A03803250F081E090E091
:1007F0009383828380E090E00F90DF91CF91089502
:1008000080912903E82FF0E0E75FFC4F9981908306
:100810008F5F8093290380932A0381E090E0ECCFDF
:1008200061E0CE0101960E949F03F7CFCF92DF9245
:10083000EF92FF920F931F93CF93DF937C01CB0135
:100840008A0120912B032115D9F0EB016B01C40E15
:10085000D51ECC15DD0551F4C801DF91CF911F9154
:100860000F91FF90EF90DF90CF9008956991D7019D
:10087000ED91FC910190F081E02DC7010995E9CF40
:10088000642F0E949F03E8CF809108039091070393
:10089000891B990B089590910703809108032FEF0E
:1008A0003FEF981748F4E92FF0E0E951FD4F208120
:1008B00030E09F5F90930703C9010895E09107031B
:1008C00080910803E81730F4F0E0E951FD4F808192
:1008D00090E008958FEF9FEF08950895089508958B
:1008E000DC01853B91059CF0A4EBB0E028EB31E006
:1008F0000E94E81C24EB30E040E050E00E94E3233B
:10090000DA01C90184579F4FAF4FBF4F0895A33DF0
:100910008FEFB8075CF7A3EDBFEFE8CFCF93DF937E
:100920002FB7F89480915A0490915B04A0915C04D5
:10093000B0915D042FBF8093C0039093C103A09337
:10094000C203B093C30388EB93E00E94C502EC019D
:10095000CF3FDC0721F52FB7F89480915A0490918E
:100960005B04A0915C04B0915D042FBF4091C00373
:100970005091C1036091C2037091C303841B950B16
:10098000A60BB70B4091BC035091BD036091BE0311
:100990007091BF0384179507A607B707A0F2CE0191
:1009A000DF91CF910895CF93DF93EC01FE01649125
:1009B0002196611529F088EB93E00E940803F6CF99
:1009C000DF91CF910895682F88EB93E00C94080392
:1009D0004F925F926F927F928F929F92AF92BF924F
:1009E000CF92DF92EF92FF920F931F93CF93DF93FB
:1009F000082F10912A03C1E0113208F09DC0D09158
:100A0000E6020E94B1012B013C01C0919F03C1117C
:100A10006DC082E080939F0300939E038FEF8093CD
:100A20005203109274031093730329E033E0A3E59B
:100A3000B3E0F9018E2F821B811708F495C0109244
:100A4000750380917503DD0FD82BD09375038091CA
:100A50009D03813009F08BC010929D030E94B1016B
:100A60004B015C01809175038093BB0080917803FA
:100A700090917903A0917A03B0917B03892B8A2B03
:100A80008B2BA1F00E94B1010091780310917903A2
:100A900020917A0330917B03681979098A099B09AF
:100AA000061717072807390708F441C08091BC00D2
:100AB00083FDD8CF85EC8093BC000E94B1016B010F
:100AC0007C0180919F03823009F453C080915203CE
:100AD0008F3F91F180915203C2E0803269F18091A1
:100AE0005203C3E0803341F1C4E026C08091780313
:100AF00090917903A0917A03B0917B03892B8A2B83
:100B00008B2B09F482CF0E94B101209178033091A0
:100B1000790340917A0350917B0364197509860922
:100B20009709261737074807590708F06ECF8091B5
:100B300077030E94C603C5E01092290310922A038E
:100B400010922B038C2FDF91CF911F910F91FF906B
:100B5000EF90DF90CF90BF90AF909F908F907F905D
:100B60006F905F904F90089581918D9363CF85EE44
:100B7000A2CF8091780390917903A0917A03B091EC
:100B80007B03892B8A2B8B2B09F49BCF0E94B1010D
:100B9000009178031091790320917A0330917B03BF
:100BA0006C197D098E099F09061717072807390751
:100BB00008F087CFBCCF1092070310920803109261
:100BC000290310922A030E9481038FE694E09093F8
:100BD0002D0380932C038EE694E090933003809352
:100BE0002F030895CF93DF93EC018B818115A1F042
:100BF000888191E090932B038093E6021092290361
:100C000010922A0381E00E94E804982F81E091115C
:100C100080E0DF91CF9108950E94DB0581E08B8316
:100C2000CE010E94F2058111E3CFF3CFEF92FF9244
:100C30000F931F93CF93DF93EC017B018881998100
:100C4000009729F02A813B8126173707A0F4B701C6
:100C50006F5F7F4F0E949C1F8C0180E00115110582
:100C600059F019830883FB82EA828C819D81892B4C
:100C700011F4F801108281E0DF91CF911F910F9163
:100C8000FF90EF900895FC01DB0184819581892B11
:100C900031F481E09C91911509F080E00895808104
:100CA00091810E946E209C0181E021153105F4CFD5
:100CB000DC01FB014481558114968D919C9115971F
:100CC0008417950778F08D919C91009759F0608179
:100CD00071816115710531F00E947E209C0181E0D7
:100CE000232B09F080E00895BC01009761F0FC011E
:100CF00001900020E9F73197AF01481B590B88EBB1
:100D000093E00C94580308950E94D30487E491E083
:100D10000C9474064F925F926F927F928F929F9283
:100D2000AF92BF92CF92DF92EF92FF92CF93DF9379
:100D3000CDB7DEB7A1970FB6F894DEBF0FBECDBF1B
:100D40006B017C01F7FE3DC08DE20E94E304222787
:100D50003327A9012C193D094E095F0919A2CE01BB
:100D600081967C016AE0462E512C612C712C490140
:100D70005A01CA01B901A30192010E943924605DA0
:100D8000F70162937F01FAE08F169104A104B10488
:100D900070F7C7010E947406A1960FB6F894DEBFE3
:100DA0000FBECDBFDF91CF91FF90EF90DF90CF903E
:100DB000BF90AF909F908F907F906F905F904F907B
:100DC00008959B0119A2AE014F5D5F4F7A014AE081
:100DD000442E512C612C712C49015C01B901A301F5
:100DE00092010E943924CA01605DF70162937F017C
:100DF000FAE08F169104A104B10470F7CACF0097EE
:100E000011F00C940B1F08951F93CF93DF93FC01F7
:100E1000EA01122F848195818417950710F480E0F0
:100E20001DC0808191E090932B038093E602109285
:100E3000290310922A0381819281DC01ED91FC91BA
:100E40000280F381E02D0995C817D90741F7812F5A
:100E50000E94E804982F81E09111E1CFDF91CF91BA
:100E60001F910895CF93DF9300D0CDB7DEB789836C
:100E70006A8321E042E050E0BE016F5F7F4F8091C6
:100E8000A6039091A7030E9404070F900F90DF9193
:100E9000CF9108952F923F924F925F926F927F92DF
:100EA0008F929F92AF92BF92CF92DF92EF92FF927A
:100EB0000F931F93CF93DF93CDB7DEB7AD970FB6E8
:100EC000F894DEBF0FBECDBF7B018C0120E030E087
:100ED00040E85FE36E87FF86888B198B6E857F8580
:100EE000888999890E944E1D87FD32C120E030EC2F
:100EF0004AE555E44E2C5F2C602E712EC301B201E1
:100F00000E94782518162CF4E12C30ECF32E0AE51B
:100F100015E46091A8037091A9038091AA039091B0
:100F2000AB030E94531D2B013C0120E030E040E860
:100F300055E4EA8AFB8A0C8B1D8B6A897B898C8934
:100F40009D890E94B41D4B015C01A50194014E8A4C
:100F50005F8A688E798E6E897F89888D998D0E94CF
:100F6000D72420E030E040E05FE36A8F7B8F8C8FF6
:100F70009D8F6A8D7B8D8C8D9D8D0E946B2420E0D2
:100F800030E040E85FE36E8F7F8F88A399A36E8D7A
:100F90007F8D88A199A10E946A247B018C0120E0A9
:100FA00030E040E450E46AA3FBA28CA31DA36AA135
:100FB0007BA18CA19DA10E944E1D87FDCEC020E08B
:100FC00030E04FE753E4EEA2FFA208A719A76EA1F5
:100FD0007FA188A599A50E947825181624F4E12CF4
:100FE000F12C0FE713E4EAA6FBA60CA71DA76AA540
:100FF0007BA58CA59DA50E944925562E1982C090DF
:10100000A603D090A703DF86CE8620E041E050E023
:10101000BE016F5F7F4FC6010E940407811509F46E
:10102000EAC04424439483E5682E83E0782E95EE4D
:10103000392E25EC222EAE85BF851496AD90BC903E
:101040004501A114B10419F088248394912CDD2466
:10105000D394A114B10409F4D12C182DEE85FF8589
:1010600000810E94B1016A837B838C839D83809180
:101070009F03811177C040929F03D0929E033FEF60
:1010800030935203109274038FEF810F8093730398
:101090004092750380917503000F082B0093750330
:1010A00080919D03813009F0D8C010929D030E9469
:1010B000B1016E837F8388879987809175038093C0
:1010C000BB008091780390917903A0917A03B0914D
:1010D0007B03892B8A2B8B2BC1F00E94B1012091BD
:1010E00078033091790340917A0350917B03CE804D
:1010F000DF80E884F9846C197D098E099F09261721
:1011000037074807590708F45AC08091BC0083FD8F
:10111000D4CF2092BC000E94B1016A877B878C8764
:101120009D8780919F03813009F49AC08091740358
:10113000811710F410917403A7EEB2E0E3E5F3E039
:101140008E2F8619811708F03FC081918D93F8CFBB
:10115000E12CF12C00E81FE3DCCEE12CF12C00E4C3
:1011600010E441CF8091780390917903A0917A03A4
:10117000B0917B03892B8A2B8B2B09F478CF0E94AB
:10118000B101209178033091790340917A03509115
:101190007B032A8B3B8B4C8B5D8B2A813B814C8163
:1011A0005D81621B730B840B950B2A893B894C89EB
:1011B0005D89261737074807590708F058CF8091EF
:1011C00077030E94C60310E01092070310930803F0
:1011D0001815190481F4AB2809F42DCFAE85BF850D
:1011E00011968D919C91DC01ED91FC910284F38527
:1011F000E02D099589831981612F6F76606180E008
:101200000E943207652D8EEF0E943207612F80E029
:101210000E94320765E070E080E090E00E94D60115
:10122000612F606A80E0AD960FB6F894DEBF0FBE06
:10123000CDBFDF91CF911F910F91FF90EF90DF9085
:10124000CF90BF90AF909F908F907F906F905F9066
:101250004F903F902F900C9432073092BC005BCFA0
:101260008091780390917903A0917A03B0917B03E8
:10127000892B8A2B8B2B09F454CF0E94B10120912A
:1012800078033091790340917A0350917B03CA84AB
:10129000DB84EC84FD846C197D098E099F09261777
:1012A00037074807590708F03CCF89CFCF93DF9322
:1012B00000D000D00F92CDB7DEB7880F880F8A5FBD
:1012C00089831A821B827D836C8321E045E050E094
:1012D000BE016F5F7F4F8091A6039091A7030E948C
:1012E00004070F900F900F900F900F90DF91CF9108
:1012F0000895CF93C0E060E070E08C2F0E94560903
:10130000CF5FC031C1F7CF910895CF93DF93EB0149
:1013100062E971E0019711F064ED70E080E00E94F5
:101320005609BE01DD0F880B990B0E94D60160E0C3
:1013300070E080E0DF91CF910C9456099B0164E648
:1013400070E01216130664F460E177E2213147E29F
:10135000340734F4B9012A30310514F46AE070E03E
:101360000C948509CF93DF93EC01C93681E0D8074F
:101370005CF1C8E6D1E02091160130911701CE0151
:10138000821B930BC217D307E1F0AC0197FF03C098
:10139000A9014C1B5D0B24E1249FB001259F700D1A
:1013A00011246E31710514F46EE170E018161906FF
:1013B00084F481E090E00E948509D0931701C093E6
:1013C0001601DF91CF910895D7FFD5CFC0E0D0E0CF
:1013D000D2CF8FEF9FEFEFCF8F929F92AF92BF92BE
:1013E000CF92DF92EF92FF920F931F93CF93DF93F1
:1013F0008C019B01643981E078070CF07CC0CB0143
:101400009595879595958795AC01440F551FE901F2
:10141000C41BD50BD7FF05C0C90195958795C0E0C2
:10142000D0E06AE070E08E31910524F063E070E076
:101430000E94D41C83E4E82EFF24F39496E6C92E80
:1014400092E0D92E4B01770FAA08BB08B6016E199E
:101450007F090130110509F4B70183E00E945609A4
:10146000C501B4010E94D60180E1E80EF11C83E7BA
:10147000E81681E0F80651F7209781F063E671E005
:101480000130110511F063E071E083E00E9456091C
:10149000BE01DD0F880B990B0E94D60163E171E05C
:1014A0000130110511F463E571E083E00E945609F3
:1014B000C501B4010E94D60163E271E0013011055B
:1014C00011F463E471E083E00E945609C501B401A0
:1014D0000E94D60160E070E083E0DF91CF911F9120
:1014E0000F91FF90EF90DF90CF90BF90AF909F90C3
:1014F0008F900C94560984E690E086CF9B0164E6B9
:1015000070E01216130664F468E873E1293843E1C9
:10151000340734F4B9012F30310514F46FE070E072
:101520000C94EC09CF93DF93EC01853B9105FCF023
:10153000C4EBD0E0CE010E947004BC0185E00E94A3
:10154000560964EA71E080E090E00E94D601809143
:10155000E402811105C060E070E085E00E94560958
:10156000D0930D01C0930C01DF91CF910895C33D3D
:101570008FEFD807FCF6C3EDDFEFDCCF80910A01D7
:1015800090910B010C94920A8091080190910901AD
:101590000C94920A2F923F924F925F926F927F9299
:1015A0008F929F92AF92BF92CF92DF92EF92FF9273
:1015B0000F931F93CF93DF9300D00F92CDB7DEB779
:1015C0008C016A837B83EA81FB81E53BF10574F141
:1015D00084EB90E09B838A830330110509F46DC08E
:1015E00064F50130110509F45FC0C0901201D0907C
:1015F0001301B2E14B2EB1E05B2E0230110541F137
:101600000F900F900F90DF91CF911F910F91FF904E
:10161000EF90DF90CF90BF90AF909F908F907F9092
:101620006F905F904F903F902F900895EA81FB81DB
:10163000F7FFD2CF1B821A82CFCFC0900E01D0907D
:101640000F01FEE04F2EF1E05F2E04301105C1F6D0
:1016500009838A819B818C159D05C1F50E947004C8
:10166000BC01802F0E94560966E970E080E090E09E
:101670000E94D60160E070E0802F0F900F900F90D5
:10168000DF91CF911F910F91FF90EF90DF90CF905E
:10169000BF90AF909F908F907F906F905F904F9092
:1016A0003F902F900C945609C0901401D0901501D2
:1016B00084E1482E81E0582ECBCFC0901001D0900D
:1016C0001101A0E14A2EA1E05A2EC2CFEA81FB818E
:1016D00066246A94762CCE16DF061CF46624639486
:1016E000712CAA80BB80AC18BD08812C912C1801EC
:1016F000F1E02F1A3108C6010E947004BC018981F3
:101700000E945609C40197FE04C0882799278819AA
:1017100099099501B7FE04C0222733272A193B09EE
:10172000281739070CF4C90122E022163104D8F534
:10173000843091050CF441C032E2E32EF12C883064
:10174000910544F068E1E62EF12C0E971CF42CE193
:10175000E22EF12CB701FF0C880B990B0E94D601E9
:10176000C60CD71C860C971CA618B7088A819B81CB
:101770008C159D0509F0BFCF0E947004BC01802F1D
:101780000E94560964E071E080E090E00E94D6017A
:1017900060E070E0802F0E9456098A819B81F201EF
:1017A000918380832DCF843091055CF052E1E52E4A
:1017B00008972CF488E1E82E02C04AE2E42EF12CCE
:1017C000C9CF90E2E92EFBCFCF93DF93BC0180918C
:1017D000E502811531F083E090E0DF91CF910C9428
:1017E000CA0AC4EBD0E0653B71052CF4EB0177FF2E
:1017F00002C0C0E0D0E02091100130911101CE0173
:10180000821B930BC217D307E1F0AC0197FF03C013
:10181000A9014C1B5D0B2CE0249FB001259F700D8E
:1018200011246832710514F468E270E01816190684
:101830005CF481E090E00E94EC09D0931101C09328
:101840001001DF91CF9108958FEF9FEFF4CF85EDD9
:101850008093BC008091780390917903A0917A03E2
:10186000B0917B030796A11DB11D23E0B695A79506
:10187000979587952A95D1F72091BC0024FD03C048
:1018800010929F03089540917803509179036091DD
:101890007A0370917B03452B462B472B69F3009706
:1018A000A105B10541F02AE22A95F1F700C00197A0
:1018B000A109B109E1CF809177030C94C603DF92AF
:1018C000EF92FF920F931F93CF93DF93CDB7DEB7C5
:1018D0002B970FB6F894DEBF0FBECDBF85EA898384
:1018E0008091A1038A838091A0038B83809118014A
:1018F0008C8380911601909117019E838D83809136
:1019000014018F838091120188878091100189874B
:1019100080910E018A8780910C018B87CE01019600
:101920007C0100E010E0F701D0809FEFE91AF90A8E
:10193000C8010E94CD23D81621F06D2DC8010E9448
:10194000D5230F5F1F4F0B30110569F72B960FB68C
:10195000F894DEBF0FBECDBFDF91CF911F910F91E5
:10196000FF90EF90DF9008950E94BE0A66E970E054
:1019700080E090E00E94D6018091060190910701DD
:101980000E94B20968EC70E080E090E00E94D6010D
:10199000609104017091050181E090E00E94CA0A03
:1019A00066E970E080E090E00E94D601609102015B
:1019B0007091030182E090E00E94CA0A66E970E03B
:1019C00080E090E00E94D6016091000170910101D9
:1019D00084E090E00E94CA0A68EC70E080E090E049
:1019E0000E94D6010E94C40A6AEF70E080E090E095
:1019F0000E94D60181E08093A0036AE570E084E054
:101A000090E00E94CA0A66E970E080E090E00E94DF
:101A1000D6016FEA70E082E090E00E94CA0A66E9AF
:101A200070E080E090E00E94D60168E770E081E01D
:101A300090E00E94CA0A68EC70E080E090E00E94AA
:101A4000D6018AE590E00E94B2096AEF70E080E07A
:101A500090E00E94D6010C945F0C0E94C40A64E6D8
:101A600070E080E090E00E94D6016AE570E084E0DA
:101A700090E00E94CA0A64E670E080E090E00E9474
:101A8000D6018AE590E00E94E40B64E670E080E015
:101A900090E00E94D60164EB70E082E090E00E944A
:101AA000CA0A66E970E080E090E00E94D60167E82B
:101AB00070E081E090E00E94CA0A66E970E080E090
:101AC00090E00E94D60180910601909107010E944A
:101AD000B20968EC70E080E090E00E94D60160916D
:101AE00004017091050181E090E00E94CA0A66E954
:101AF00070E080E090E00E94D60160910201709158
:101B0000030182E090E00E94CA0A66E970E080E08A
:101B100090E00E94D601609100017091010184E083
:101B200090E00E94CA0A68EC70E080E090E00E94B9
:101B3000D6010E94BE0A6AEF70E080E090E00E9449
:101B4000D6011092A0030E94C40A64E670E080E00F
:101B500090E00E94D6016AE570E084E090E00E9487
:101B6000CA0A64E670E080E090E00E94D6018AE54F
:101B700090E00E94E40B64E670E080E090E00E9458
:101B8000D60164EB70E082E090E00E94CA0A66E948
:101B900070E080E090E00E94D60167E870E081E0AC
:101BA00090E00E94CA0A66E970E080E090E00E943E
:101BB000D6018AE590E00E94B2096AEF70E080E009
:101BC00090E00E94D6010C945F0C8091A10390914B
:101BD000A203892B41F48091A003811104C088E6FF
:101BE00092E00C94840682E090E09093A2038093AC
:101BF000A1030E945F0C0E94C40A64E670E080E0CA
:101C000090E00E94D6016AE570E084E090E00E94D6
:101C1000CA0A64E670E080E090E00E94D6018AE59E
:101C200090E00E94E40B64E670E080E090E00E94A7
:101C3000D60164EB70E082E090E00E94CA0A66E997
:101C400070E080E090E00E94D60167E870E081E0FB
:101C500090E00E94CA0A66E970E080E090E00E948D
:101C6000D6018AE590E00E94B20968EC70E080E05D
:101C700090E00E94D60180911801811529F0809191
:101C8000A00381110E942D0D0E945F0C1092A203EF
:101C90001092A1038CE592E0A4CFEF92FF920F93F4
:101CA0001F93CF93DF93EC017B018A01BA010E945D
:101CB0001606282F88819981211111C0009711F0F3
:101CC0000E940B1F198218821D821C821B821A829D
:101CD000DF91CF911F910F91FF90EF9008950C83AA
:101CE0001D83B701DF91CF911F910F91FF90EF906E
:101CF0000C947720FB0101900020E9F73197AF01A8
:101D0000461B570B0C944D0EAF92BF92CF92DF92B1
:101D1000EF92FF920F931F93CF93DF93EC015B0140
:101D20006A0179012417350720F08F2D7A01C22E20
:101D3000D82E198218821B821A821D821C8269E4A5
:101D400071E0CE010E947A0ED50114960D911C917E
:101D5000E016F10620F5C016D10608F48601D5017B
:101D6000ED91FC911197E00FF11FD08010826D91E1
:101D70007C916E0D7F1D61157105E9F0FB010190ED
:101D80000020E9F73197AF01461B570BCE010E94A7
:101D90004D0ED501ED91FC91E00FF11FD082CE01E7
:101DA000DF91CF911F910F91FF90EF90DF90CF9037
:101DB000BF90AF90089588819981009711F00E949B
:101DC0000B1F198218821D821C821B821A82E1CF8E
:101DD000CF93DF93D82FC92FFB01248135810E9437
:101DE000840E8D2F9C2FDF91CF910895BF92CF92BB
:101DF000DF92EF92FF920F931F93CF93DF938C01AB
:101E0000DC011496CD90DC901597C114D10461F4D7
:101E10008FEF9FEFDF91CF911F910F91FF90EF9088
:101E2000DF90CF90BF900895ED91FC911197EC0D4C
:101E3000FD1DB0801082ED90FC9060E270E0C70163
:101E40000E948C20EC01EC0CFD1CF701B082892B68
:101E5000F9F2D8018D919C91FE01E81BF90BCF019D
:101E6000D9CF009711F00C94091D60E070E0CB0110
:101E700008952F923F924F925F926F927F928F922E
:101E80009F92AF92BF92CF92DF92EF92FF920F9309
:101E90001F93CF93DF93CDB7DEB7C255D1090FB6ED
:101EA000F894DEBF0FBECDBF1E8A1D8A1C8A1B8A16
:101EB000188E1F8A7E0123E1E20EF11C69E471E0B5
:101EC000C7010E947A0ECB88DC880F89188D0E948A
:101ED0008E045C018FEFA816B80621F09AE0A916CF
:101EE000B104A9F5C114D10409F45FC001151105AD
:101EF00061F146015401F40181914F01082E000C5B
:101F0000990B0E94451D892BA9F7015011090C0D51
:101F10001D1DF8018081082E000C990B0E94451DA3
:101F2000892B19F00A151B0588F50F5F1F4F0A1939
:101F30001B09CA14DB0428F4A801B501C6010E94DC
:101F40005A20F601E00FF11F1082560129C0A98224
:101F50001A8248013FEF831A930ADC8ACB8A188FD2
:101F60000F8BB401C7010E941606CB88DC880F894D
:101F7000188D811509F4ABCFBE016F5F7F4FC6018D
:101F8000800F911F0E9477208401A1CF0150110979
:101F9000C0CF082E000C990B0E945220F5018293AD
:101FA000F50181915F018111F4CF01151105E1F473
:101FB000C601CE5ADF4F0FB6F894DEBF0FBECDBFBD
:101FC000DF91CF911F910F91FF90EF90DF90CF9015
:101FD000BF90AF909F908F907F906F905F904F9049
:101FE0003F902F900C94FF06DC8ACB8A188F0F8BC2
:101FF0006AE471E0C7010E944306811509F46AC0D2
:102000008091A1039091A203019729F483EA90E0C3
:102010000E94840668C082E090E09093A2038093BF
:10202000A1030E945F0C80911801811509F449C039
:102030008091A003811145C00E94B40C8AE590E014
:102040000E94B20966E970E080E090E00E94D6014B
:1020500068E770E084E090E00E94CA0A68EC70E0F3
:1020600080E090E00E94D6018AE590E00E94E40BB7
:1020700066E970E080E090E00E94D6016CE870E0D4
:1020800082E090E00E94CA0A68EC70E080E090E094
:102090000E94D6016BE470E081E090E00E94CA0AE1
:1020A00068EC70E080E090E00E94D6010E945F0C36
:1020B00081E090E09093A2038093A1038AE990E0ED
:1020C000A7CF0E94C40A66E970E080E090E00E9419
:1020D000D601B4CF60E571E0C7010E9443068115C7
:1020E00029F00E94E50D0E945F0C62CF69E571E066
:1020F000C7010E9443068115A9F08091A103909128
:10210000A2038130910541F08230910541F0892B85
:1021100051F784E790E07CCF8CE890E079CF81E8BC
:1021200090E076CF60E671E0C7010E94430681111E
:1021300008C065E671E0C7010E944306811509F4F5
:102140005AC082E090E09093A2038093A103809113
:102150001801811529F08091A00381110E942D0D95
:102160000E94C40A66E970E080E090E00E94D60117
:102170006AE570E084E090E00E94CA0A66E970E0D7
:1021800080E090E00E94D6018AE590E00E94E40B96
:1021900064E670E080E090E00E94D60164EB70E0BD
:1021A00082E090E00E94CA0A68EC70E080E090E073
:1021B0000E94D60167E870E081E090E00E94CA0AC0
:1021C00068EC70E080E090E00E94D6018AE590E043
:1021D0000E94B2096AEF70E080E090E00E94D601B0
:1021E0001092A0031092A2031092A1030E945F0C10
:1021F00084E592E00DCF6AE671E0C7010E944306D4
:10220000811164C06FE671E0C7010E94430681112D
:102210005DC061E771E0C7010E94430681115BC0A8
:1022200067E771E0C7010E944306811154C01C8218
:102230001B821E821D821A82198269E771E08E015B
:102240000F5F1F4FC8010E947A0EA980BA80B801A3
:10225000C7010E945806982EC5010E94FF069110E2
:102260003FC01C821B821E821D821A82198262E874
:1022700071E0C8010E947A0EA980BA80B801C70136
:102280000E945806982EC5010E94FF06911409F479
:10229000A5C049E050E0B701C8010E94E80E0981DD
:1022A0001A81C8010E94310F633D7F4F8F4F9F4FAE
:1022B0000CF061C083ED9FEF9093090180930801BA
:1022C000C8010E94FF068CE292E0A2CE0E94BE0AE4
:1022D0008CE492E09DCE0E94C40A83E492E098CE02
:1022E00048E050E0B701C8010E94E80E09811A8158
:1022F000C8010E94310F633D7F4F8F4F9F4F64F4A1
:1023000083ED9FEF90930B0180930A01C8010E9417
:10231000FF0688E392E07CCE48E050E0B701CE01B2
:1023200007960E94E80EAF80B884C5010E94310F65
:10233000653B71058105910554F084EB90E0909325
:102340000B0180930A01C5010E94FF06DFCF48E020
:1023500050E0B701CE010D960E94E80EED84FE8498
:10236000C7010E94310F70930B0160930A01C701EE
:102370000E94FF06E8CF49E050E0B701CE01079682
:102380000E94E80EAF80B884C5010E94310F653B02
:1023900071058105910554F084EB90E0909309015B
:1023A00080930801C5010E94FF068ACF49E050E0F2
:1023B000B701CE010D960E94E80EED84FE84C701A0
:1023C0000E94310F6DA77EA78DA59EA59093090150
:1023D00080930801C7010E94FF06E4CF1C821B8284
:1023E0001E821D821A8219826CE871E0C8010E9467
:1023F0007A0EA980BA80B801C7010E945806982EAB
:10240000C5010E94FF06911409F459C048E050E04C
:10241000B701C8010E94E80E09811A81C8010E9413
:10242000310F6C3371058105910544F148E050E0AE
:10243000B701CE0107960E94E80EAF80B884C501AF
:102440000E94310F69357240810591059CF548E085
:1024500050E0B701CE010D960E94E80EED84FE8497
:10246000C7010E94310F6FA778AB8FA498A8C7014E
:102470000E94FF06C5010E94FF0603C09CE3892E4F
:10248000912CC8010E94FF06B40185E00E94560904
:1024900064EA71E080E090E00E94D6018091E4025D
:1024A000811105C060E070E085E00E9456098CE073
:1024B00092E0AECD88E5882E82E0982EDBCF65E9EC
:1024C00071E0C7010E944306811509F187EF91E091
:1024D0000E94D30460910A0170910B01072E000C39
:1024E000880B990B0E948A068FEE91E00E94D3041C
:1024F0006091080170910901072E000C880B990B5F
:102500000E948A0687E491E00E947406ECCD1C824A
:102510001B821E821D821A82198263EA71E0C80141
:102520000E947A0EA980BA80B801C7010E9458069D
:1025300033243394811119C01A8619861C861B8690
:1025400018861F8260EA71E0CE0107960E947A0E1B
:102550008F809884BE01695F7F4FC7010E94580633
:102560008170382EC4010E94FF06C5010E94FF063B
:10257000311409F1C7010E94F60EAC014F5F5F4FA5
:10258000B701C8010E94E80E09811A81C8010E94A2
:10259000310F6F8F78A389A39AA3C8010E94FF0609
:1025A00081E02F8D38A1232B09F480E08093E40291
:1025B00086EE91E02DCD6BEA71E0C7010E944306E3
:1025C00081116BC06CEB71E0C7010E944306811161
:1025D00064C064EE71E0C7010E944306811162C0CD
:1025E00060EB71E0C7010E944306811160C068EB97
:1025F00071E0C7010E944306811159C01C821B82F1
:102600001E821D821A82198260EC71E0C8010E944C
:102610007A0EA980BA80B801C7010E945806982E88
:10262000C5010E94FF06911047C061EE71E0C7012D
:102630000E944306811509F4A1C08EE991E00E9431
:10264000D3046091060170910701072E000C880BDE
:10265000990B0E948A0680E20E94E30460910401C3
:1026600070910501072E000C880B990B0E948A06B9
:1026700080E20E94E3046091020170910301072E41
:10268000000C880B990B0E948A0680E20E94E304EA
:1026900060910001709101012FCF0E9479098EEDA8
:1026A00091E0B6CC0E94B40C84ED91E0B1CC0E94D4
:1026B0002D0D89EC91E0ACCCCE0149969F938F9380
:1026C0000C979F938F9306979F938F931F930F93CE
:1026D0008BEC91E09F938F93DF92CF920E94972093
:1026E0000FB6F894DEBF0FBECDBF049709F043C00C
:1026F00089819A81853B910554F184EB90E0909318
:102700000701809306018F819885853B910524F10F
:1027100084EB90E090930501809304018D859E8564
:10272000853B9105F4F084EB90E090930301809356
:102730000201898D9A8D853B9105C4F084EB90E070
:1027400090930101809300018CEB91E061CC97FFA5
:10275000D6CF80E090E0D3CF97FFDCCF80E090E051
:10276000D9CF97FFE2CF80E090E0DFCF97FFE8CFAF
:1027700080E090E0E5CF8DEA91E04ACC1C821B829C
:102780001E821D821A8219826BEE71E0C8010E94BE
:102790007A0EA980BA80B801C7010E945806982E07
:1027A000C5010E94FF069114E9F04BE050E0B7012B
:1027B000C8010E94E80E09811A81C8010E94310FE8
:1027C0006BA37CA38DA39EA3C8010E94FF0681E09A
:1027D0002BA13CA1232B09F480E08093180180E910
:1027E00091E016CC1C821B821E821D821A821982E5
:1027F00067EF71E0C8010E947A0EA980BA80B80123
:10280000C7010E945806982EC5010E94FF06911428
:10281000E9F045E050E0B701C8010E94E80E0981E7
:102820001A81C8010E94310F6FA378A789A79AA7C0
:10283000C8010E94FF0681E0EFA1F8A5EF2B09F483
:1028400080E08093A00388E891E0E2CB1C821B82A9
:102850001E821D821A8219826DEF71E0C8010E94EA
:102860007A0EA980BA80B801C7010E9458063324A5
:102870003394811119C01A8619861C861B86188606
:102880001F8266E072E0CE0107960E947A0E8F806A
:102890009884BE01695F7F4FC7010E94580681700E
:1028A000382EC4010E94FF06C5010E94FF063114A4
:1028B000F1F0C7010E94F60EAC014F5F5F4FB70108
:1028C000C8010E94E80EE980FA80C7010E94310F1A
:1028D0008B01C7010E94FF0609AB1AAB69A97AA94F
:1028E00081E090E00E949E098DE791E091CB1C82EF
:1028F0001B821E821D821A8219826CE072E0C8015E
:102900000E947A0EA980BA80B801C7010E945806B9
:1029100081113FC01A8619861C861B8618861F8265
:1029200066E172E0CE0107960E947A0E8F8098844D
:10293000BE01695F7F4FC7010E9458068170F82E63
:10294000C4010E94FF06C5010E94FF06F11421F197
:10295000CE0143960E94F60EAC014F5F5F4FBE0161
:102960006D5E7F4FC8010E94E80EE980FA80C701C2
:102970000E94310F8B01C7010E94FF060BAB1CABFD
:102980006BA97CA98FEF9FEF0E949E0981E791E0E0
:102990003FCBFF24F394D7CF1C821B821E821D8263
:1029A0001A8219826DE172E0C8010E947A0EE980F4
:1029B000FA80B801CE0143960E9458069924939458
:1029C00081111AC01A8619861C861B8618861F82DA
:1029D00068E272E0CE0107960E947A0EAF80B8845A
:1029E000BE01695F7F4FCE0143960E9458068170F9
:1029F000982EC5010E94FF06C7010E94FF06911490
:102A000009F1CE0143960E94F60EAC014F5F5F4F75
:102A1000BE016D5E7F4FC8010E94E80EE980FA801A
:102A2000C7010E94310F8B01C7010E94FF060DAB49
:102A30001EAB6DA97EA98FEF9FEF0E949E0984E6D1
:102A400091E0E6CA1C821B821E821D821A821982B4
:102A500060E372E0C8010E947A0EE980FA80B80152
:102A6000CE0143960E9458069924939481111AC06E
:102A70001A8619861C861B8618861F826CE372E0F4
:102A8000CE0107960E947A0EAF80B884BE01695FBE
:102A90007F4FCE0143960E9458068170982EC50143
:102AA0000E94FF06C7010E94FF06911409F1CE01A2
:102AB00043960E94F60EAC014F5F5F4FBE016D5E04
:102AC0007F4FC8010E94E80EE980FA80C7010E948A
:102AD000310F8B01C7010E94FF060FAB18AF6FA922
:102AE00078AD81E090E00E949E0986E591E090CA71
:102AF0001C821B821E821D821A82198265E472E08A
:102B0000C8010E947A0EE980FA80B801CE0143968E
:102B10000E9458069924939481111AC01A86198626
:102B20001C861B8618861F8260E572E0CE01079620
:102B30000E947A0EAF80B884BE01695F7F4FCE01DC
:102B400043960E9458068170982EC5010E94FF0688
:102B5000C7010E94FF06911499F1CE0143960E948D
:102B6000F60EAC014F5F5F4FBE016D5E7F4FC80137
:102B70000E94E80E09811A81C8010E94310F6B8FF3
:102B80007C8F8D8F9E8FEB8CFC8CC8010E94FF0682
:102B90008B8D9C8DF7FE03C091958195910924E161
:102BA000289FB001299F700D112481E090E0F7FE6D
:102BB00002C08FEF9FEF0E949E0989E491E028CA2E
:102BC0001C821B821E821D821A82198268E572E0B5
:102BD000C8010E947A0EE980FA80B801CE014396BE
:102BE0000E945806B82EC7010E94FF06B114D1F00A
:102BF00045E050E0BE016D5E7F4FC8010E94E80EC7
:102C0000E980FA80C7010E94310F8B01C7010E9441
:102C1000FF0609AF1AAF89AD9AAD0E94B20981E4EF
:102C200091E0F6C91C821B821E821D821A821982C3
:102C30006EE572E0C8010E947A0EE980FA80B80160
:102C4000CE0143960E9458069924939481111AC08C
:102C50001A8619861C861B8618861F8263E672E018
:102C6000CE0107960E947A0EAF80B884BE01695FDC
:102C70007F4FCE0143960E9458068170982EC50161
:102C80000E94FF06C7010E94FF06911409F1CE01C0
:102C900043960E94F60EAC014F5F5F4FBE016D5E22
:102CA0007F4FC8010E94E80EE980FA80C7010E94A8
:102CB000310F8B01C7010E94FF060BAF1CAF6BAD3C
:102CC0007CAD81E090E00E947E0A84E391E0A0C99F
:102CD0001C821B821E821D821A82198269E672E0A2
:102CE000C8010E947A0EE980FA80B801CE014396AD
:102CF0000E9458069924939481111AC01A86198645
:102D00001C861B8618861F826EE672E0CE0107962F
:102D10000E947A0EAF80B884BE01695F7F4FCE01FA
:102D200043960E9458068170982EC5010E94FF06A6
:102D3000C7010E94FF06911409F1CE0143960E943B
:102D4000F60EAC014F5F5F4FBE016D5E7F4FC80155
:102D50000E94E80EE980FA80C7010E94310F8B01C2
:102D6000C7010E94FF060DAF1EAF6DAD7EAD8FEFA8
:102D70009FEF0E947E0A86E291E04AC91C821B8274
:102D80001E821D821A82198265E772E0C8010E94C4
:102D90007A0EE980FA80B801CE0143960E94580667
:102DA000BB24B39481111AC01A8619861C861B860F
:102DB00018861F826AE772E0CE0107960E947A0E9B
:102DC0000F811885BE01695F7F4FCE0143960E9437
:102DD00058068170B82EC8010E94FF06C7010E94E4
:102DE000FF06B11431F1CE0143960E94F60EAC01FC
:102DF0004F5F5F4FBE016D5E7F4FCE0101960E9417
:102E0000E80EE980FA80C7010E94310F8B01C701EB
:102E10000E94FF060FAF21961FAF219721966EAD3E
:102E20007FAD21978FEF9FEF0E947E0A87E191E0AF
:102E3000EFC81C821B821E821D821A82198262E8E0
:102E400072E0CE0101960E947A0E09811A81BE01BC
:102E50006F5F7F4FCE0143960E945806BB24B39408
:102E600081111AC01A8619861C861B8618861F8235
:102E700067E872E0CE0107960E947A0EEF80F88430
:102E8000BE01695F7F4FCE0143960E945806817054
:102E9000B82EC7010E94FF06C8010E94FF06B114A8
:102EA00041F1CE0143960E94F60EAC014F5F5F4F99
:102EB000BE016D5E7F4FCE0101960E94E80EE98053
:102EC000FA80C7010E94310F8B01C7010E94FF06E3
:102ED00022960FAF229723961FAF239723966EADAE
:102EE0007FAD239781E090E00E947E0A87E091E029
:102EF0008FC860E972E0CE0143960E9443068111BB
:102F000081C06BE972E0CE0143960E9443068111B5
:102F100079C066EA72E0CE0143960E9443068111B1
:102F200078C061EB72E0CE0143960E9443068111A6
:102F300070C06CEB72E0CE0143960E944306811193
:102F40006EC064EC72E0CE0143960E94430681118C
:102F500066C01C821B821E821D821A8219826CEC42
:102F600072E0CE0101960E947A0E09811A81BE019B
:102F70006F5F7F4FCE0143960E945806F82EC8011E
:102F80000E94FF06F11055C01C821B821E821D820A
:102F90001A82198264ED72E0CE0101960E947A0EC7
:102FA00009811A81BE016F5F7F4FCE0143960E9457
:102FB0005806F82EC8010E94FF06F11409F45BC000
:102FC00048E050E0BE016D5E7F4FCE0101960E9449
:102FD000E80EE980FA80C7010E94310F8B01C7011A
:102FE0000E94FF0626960FAF269727961FAF2797BA
:102FF00027968EAD9FAD27970E94920A8DEB90E0A9
:103000000C94081081E08093E50284EF90E00C942A
:1030100008101092E50281EE90E00C9408108AE509
:1030200090E0909311018093100181ED90E00C9459
:10303000081047E050E0BE016D5E7F4FCE01019663
:103040000E94E80EE980FA80C7010E94310F8B01CF
:10305000C7010E94FF0624960FAF249725961FAF45
:10306000259725968EAD9FAD25970E94E40B87ECA2
:1030700090E00C9408101C821B821E821D821A8212
:1030800019826DED72E0CE0101960E947A0E0981DF
:103090001A81BE016F5F7F4FCE0143960E94580692
:1030A000F82EC8010E94FF06F11421F146E050E01D
:1030B000BE016D5E7F4FCE0101960E94E80EE98051
:1030C000FA80C7010E94310F8B01C7010E94FF06E1
:1030D00028960FAF289729961FAF299729966EAD8E
:1030E0007FAD299784E090E00E94CA0A84EB90E0CB
:1030F0000C94081060E270E0C6010E9463208BA768
:103100009CA72BA53CA52115310509F485C0890193
:103110000C191D09101611060CF07EC0980140E034
:1031200050E0BE016D5E7F4FCE0101960E94840E7D
:10313000A980BA80C5010E94310F2B01C5010E94F0
:10314000FF06A8014F5F5F4FBE016D5E7F4FCE014E
:1031500001960E94E80E09811A81C8010E94310F70
:103160005B01C8010E94FF064114510481F42A96B4
:10317000AFAE2A972B96BFAE2B972B968EAD9FADF9
:103180002B970E94B2098CEA90E00C94081035E06D
:103190004316510469F42C96AFAE2C972D96BFAE12
:1031A0002D972D968EAD9FAD2D970E94920AEBCF55
:1031B00083E04816510469F42E96AFAE2E972F96F1
:1031C000BFAE2F972F968EAD9FAD2F970E94E40B29
:1031D000DACF94E04916510479F46096AFAE609767
:1031E0006196BFAE619761966EAD7FAD619784E0E9
:1031F00090E00E94CA0AC7CFC2010197029718F651
:103200006296AFAE62976396BFAE639763966EADFC
:103210007FAD6397C201EDCF86E192E00C94081078
:103220001F921FB61F9211242F933F938F939F934A
:10323000AF93BF9380915A0490915B04A0915C047A
:10324000B0915D043091590423E0230F2D3750F5E0
:103250000196A11DB11D2093590480935A049093A7
:103260005B04A0935C04B0935D048091550490913D
:103270005604A0915704B09158040196A11DB11DA8
:103280008093550490935604A0935704B093580428
:10329000BF91AF919F918F913F912F911F901FBE32
:1032A0001F90189526E8230F0296A11DB11DD3CFBC
:1032B0001F920F920FB60F9211242F933F934F93AB
:1032C0005F936F937F938F939F93AF93BF93EF938E
:1032D000FF93E0911901F0911A010995FF91EF9187
:1032E000BF91AF919F918F917F916F915F914F911E
:1032F0003F912F910F900FBE0F901F9018951F9226
:103300000F920FB60F9211242F933F934F935F9319
:103310006F937F938F939F93AF93BF93EF93FF939D
:10332000E0911B01F0911C010995FF91EF91BF9174
:10333000AF919F918F917F916F915F914F913F914D
:103340002F910F900FBE0F901F9018952F932FB7AE
:103350002F938F939F93EF93FF93E091C803F09186
:10336000C9038081E091CE03F091CF0382FD19C0A3
:1033700090818091D1038F5F8F732091D203821748
:1033800041F0E091D103F0E0E854FC4F958F809339
:10339000D103FF91EF919F918F912F912FBF2F918B
:1033A00018958081F6CF1F920F920FB60F921124BD
:1033B0002F933F934F935F936F937F938F939F933D
:1033C000AF93BF93EF93FF9388EB93E00E94760255
:1033D000FF91EF91BF91AF919F918F917F916F91ED
:1033E0005F914F913F912F910F900FBE0F901F90C3
:1033F00018951F920F920FB60F9211242F933F939F
:103400004F935F936F937F938F939F93AF93BF93EC
:10341000EF93FF939091B900892F887F803509F44D
:10342000C0C008F042C0803309F4B6C098F58831B6
:1034300001F1D0F4883009F4A7C0803109F4A4C0A8
:10344000811509F4F0C0FF91EF91BF91AF919F9169
:103450008F917F916F915F914F913F912F910F903D
:103460000FBE0F901F901895803209F495C08832D6
:1034700051F79091740380917303981778F5E09158
:10348000740381E08E0F80937403F0E0ED5AFC4FDB
:1034900080817CC0803409F490C0883409F47EC0F7
:1034A000883389F6809352036DC0803A09F49FC037
:1034B000B8F5803809F489C050F5803611F1D8F498
:1034C000883509F6E091740381E08E0F80937403D0
:1034D0008091BB00F0E0ED5AFC4F808380919E0309
:1034E00081115CC081E080939D0384EA8093BC00DD
:1034F00010929F03A8CF803721F0987E983609F06C
:10350000A2CF83E080939F031092510341C0803982
:1035100009F45BC0987E983809F095CF85E839C0EA
:10352000883BD9F058F5883A19F0803B09F08BCFE9
:1035300084E080939F0310922E0310929C03E091ED
:103540002C03F0912D03099580919C03811105C0F6
:1035500081E080939C0310927C03E0912E0381E034
:103560008E0F80932E03F0E0E458FC4F808180930F
:10357000BB0090912E0380919C0323C0907F903CD0
:1035800009F061CF85ECB2CF809175038093BB00C9
:1035900085EC8093BC0057CF809352030E94270C88
:1035A00052CFE091740381E08E0F80937403809179
:1035B000BB00F0E0ED5AFC4F808390917403809142
:1035C0007303981708F0AACFE3CF8091510380329C
:1035D00008F0A4CFE091510381E08E0F8093510356
:1035E0008091BB00F0E0EF5CFC4F8083D1CF85EC95
:1035F0008093BC0010929F0380915103803230F47D
:10360000E0915103F0E0EF5CFC4F108260915103B8
:1036100070E0E0912F03F091300381E393E009958E
:103620001092510310CF10925203B8CFCDB7DEB72E
:103630002B970FB6F894DEBF0FBECDBF789484B53C
:10364000826084BD84B5816084BD85B5826085BD9E
:1036500085B5816085BD80916E00816080936E002C
:10366000109281008091810082608093810080911E
:1036700081008160809381008091800081608093CF
:1036800080008091B10084608093B1008091B0008F
:1036900081608093B00080917A00846080937A008A
:1036A00080917A00826080937A0080917A008160B4
:1036B00080937A0080917A00806880937A001092DB
:1036C000C100E091C803F091C90382E08083E091DA
:1036D000C403F091C5031082E091C603F091C703C3
:1036E00080E180831092D003E091CC03F091CD0370
:1036F00086E08083E091CA03F091CB0380818061F2
:103700008083E091CA03F091CB038081886080833D
:10371000E091CA03F091CB03808180688083E091BF
:10372000CA03F091CB0380818F7D80830E94DB05EB
:1037300064E670E080E090E00E94D6018091A603EC
:103740009091A703009711F00E940B1F86E090E074
:103750000E94751E8C018091A4039091A503209175
:10376000A303F801208392838183138280E290E097
:10377000958384831093A7030093A6030E94DB051F
:1037800081E0F8018383C8010E94F2058115E1F010
:1037900060E880E00E9432076AE070E080E090E03C
:1037A0000E94D60180E498E7ADE7B1E08093A803DA
:1037B0009093A903A093AA03B093AB0360E070E0D9
:1037C0008AE794E40E944A0780EC9CEFABE9B1E001
:1037D0008093A8039093A903A093AA03B093AB038B
:1037E00060E070E088E492E40E944A070E94790950
:1037F0001092A2031092A103CE0101967C0100E079
:1038000010E0C8010E94CD23F70181937F010F5F73
:103810001F4F0B301105A9F78981853A09F05CC06B
:103820008A81833028F490E09093A2038093A103CF
:103830002B8181E0213009F080E08093A00381E0BA
:103840009C81913009F080E0809318018D819E81E8
:103850008936F1E09F070CF45DC088E691E0909313
:103860001701809316018F81853B08F084EB90E06F
:1038700090931501809314018885853B08F084EBB3
:1038800090E090931301809312018985853B08F0A5
:1038900084EB90E090931101809310018A85853B21
:1038A00008F084EB90E090930F0180930E018B85DC
:1038B000833D0CF483ED082E000C990B90930D01C1
:1038C00080930C01213031F08091A1039091A203EB
:1038D000892B11F00E94E50D1092A2031092A10312
:1038E0000E945F0C84E792E00E94840600E010E0F2
:1038F00088EB93E00E949802892B11F00E94390F07
:1039000001151105A9F30E94A302811589F30E94F4
:103910000000EECF97FFA3CF80E090E0A0CFA3EA16
:10392000B3E080E48C93ECEAF3E01296FC93EE9320
:10393000119714961C921E9213971382128288EE8E
:1039400093E0A0E0B0E084839583A683B78327E269
:1039500031E031832083E8EBF3E013821282848329
:103960009583A683B78389E391E09183808385EC77
:1039700090E09587848784EC90E09787868780EC39
:1039800090E0918B808B81EC90E0938B828B82EC2A
:1039900090E0958B848B86EC90E0978B868B118ED4
:1039A000128E138E148E089597FB072E16F4009432
:1039B00007D077FD09D00E94EF1C07FC05D03EF42C
:1039C000909581959F4F0895709561957F4F0895CB
:1039D0000E945B24B7FF0895821B930B0895AA1BD6
:1039E000BB1B51E107C0AA1FBB1FA617B70710F0EA
:1039F000A61BB70B881F991F5A95A9F7809590951C
:103A0000BC01CD010895EE0FFF1F0590F491E02D4C
:103A100009941F93FC0199278827BC01E894119110
:103A20001032E9F3193010F01E30C8F31B3251F098
:103A30001D3249F4689406C00E94301D610F711D4B
:103A4000811D911D119110531A30B0F33EF49095E1
:103A50008095709561957F4F8F4F9F4F1F9108956F
:103A6000592F482F372F262F660F771F881F991F32
:103A7000660F771F881F991F620F731F841F951F82
:103A8000660F771F881F991F089591110C94211EAE
:103A9000803219F089508550C8F708950E94901D12
:103AA00008F481E00895E89409C097FB3EF49095EE
:103AB0008095709561957F4F8F4F9F4F9923A9F007
:103AC000F92F96E9BB279395F69587957795679596
:103AD000B795F111F8CFFAF4BB0F11F460FF1BC0DA
:103AE0006F5F7F4F8F4F9F4F16C0882311F096E96D
:103AF00011C0772321F09EE8872F762F05C066231B
:103B000071F096E8862F70E060E02AF09A95660FD3
:103B1000771F881FDAF7880F9695879597F908958C
:103B2000990F0008550FAA0BE0E8FEEF16161706CE
:103B3000E807F907C0F012161306E407F50798F036
:103B4000621B730B840B950B39F40A2661F0232B4F
:103B5000242B252B21F408950A2609F4A140A695CB
:103B60008FEF811D811D08950E94C71D0C943B1E7F
:103B70000E942D1E38F00E94341E20F0952311F073
:103B80000C94241E0C942A1E11240C946F1E0E9467
:103B90004C1E70F3959FC1F3950F50E0551F629F27
:103BA000F001729FBB27F00DB11D639FAA27F00D96
:103BB000B11DAA1F649F6627B00DA11D661F829FBD
:103BC0002227B00DA11D621F739FB00DA11D621FA2
:103BD000839FA00D611D221F749F3327A00D611DBF
:103BE000231F849F600D211D822F762F6A2F1124A1
:103BF0009F5750409AF0F1F088234AF0EE0FFF1FD4
:103C0000BB1F661F771F881F91505040A9F79E3F2A
:103C1000510580F00C94241E0C946F1E5F3FE4F35A
:103C2000983ED4F3869577956795B795F795E79580
:103C30009F5FC1F7FE2B880F911D9695879597F989
:103C4000089599278827089597F99F6780E870E07D
:103C500060E008959FEF80EC089500240A94161602
:103C6000170618060906089500240A94121613066A
:103C7000140605060895092E0394000C11F48823F8
:103C800052F0BB0F40F4BF2B11F460FF04C06F5F14
:103C90007F4F8F4F9F4F089557FD9058440F551FEA
:103CA00059F05F3F71F04795880F97FB991F61F0BE
:103CB0009F3F79F087950895121613061406551F35
:103CC000F2CF4695F1DF08C0161617061806991FA1
:103CD000F1CF86957105610508940895E894BB2796
:103CE00066277727CB0197F908950F931F93CF93FA
:103CF000DF939C01029710F422E030E0E0915E0433
:103D0000F0915F0480E090E0A0E0B0E0309791F4A3
:103D1000009709F448C0821B930B84309105D0F5BD
:103D20008A819B816115710581F1FB0193838283F7
:103D3000FE0111C040815181028113814217530756
:103D4000D8F04217530799F4109761F012960C932C
:103D5000129713961C933296CF01DF91CF911F914A
:103D60000F91089500935E0410935F04F4CF0097C1
:103D700051F04817590738F0AC01DB01CA01BD0109
:103D8000DF01F801C3CFEF01F9CF90935F04809377
:103D90005E04CECFFE01E80FF91F21933193029705
:103DA00099838883D9CF4091600450916104411573
:103DB000510541F440911F0150912001509361043D
:103DC0004093600480911D0190911E01009741F481
:103DD0008DB79EB76091210170912201861B970BD0
:103DE0004817590708F0B8CF841B950B8217930723
:103DF00008F4B2CFB9016E5F7F4F8617970708F4BA
:103E0000ABCF640F751F7093610460936004FA0177
:103E100021933193A1CFCF93DF939C010097E9F0D9
:103E2000FC01329713821282C0915E04D0915F042C
:103E3000DE0180E090E02097A1F480819181280F3D
:103E4000391F80916004909161048217930709F0F3
:103E500068C0F0936104E0936004DF91CF9108950E
:103E6000DA01AE17BF0708F042C012964D915C917F
:103E70001397CD014115510599F7DC011396FC9379
:103E8000EE9312974D915D919D01240F351FE2171E
:103E9000F30781F4208131812E5F3F4F240F351FBE
:103EA000DC0111963C932E932281338113963C932F
:103EB0002E931297E0E0F0E08A819B810097B1F5A4
:103EC000DE018D919D918A0F9B1F2091600430919E
:103ED00061042817390709F6309759F510925F04E5
:103EE00010925E04D0936104C0936004B6CFB38394
:103EF000A28340815181240F351FA217B30771F4AB
:103F00004E5F5F4F2D913C911197240F351F3183E8
:103F1000208312962D913C9133832283009709F0E0
:103F2000ACCFF0935F04E0935E0497CFFE01EC0109
:103F3000C3CF13821282D6CFA0E0B0E0E2EAFFE165
:103F40000C9404247C019B01009751F4CB010E9446
:103F5000751EEC01CE01CDB7DEB7E0E10C94202454
:103F6000FC01E60FF71FDC011297C0E0D0E0EA1772
:103F7000FB0780F30D911C91119706171707A8F006
:103F80000530110580F0C80104978617970758F08F
:103F9000061B170B02501109019311936D937C932B
:103FA000CF010E940B1FE701D5CF4B01801A910A68
:103FB0005C01A00EB11EC0915E04D0915F04412C43
:103FC000512C60E070E0209729F580916004909179
:103FD00061048A159B0509F056C04216530608F085
:103FE00052C080911D0190911E01009741F48DB740
:103FF0009EB74091210150912201841B950BE81737
:10400000F90708F0A7CFF0936104E09360042D93C3
:104010003C93C9CF888199816A807B80CA15DB0572
:1040200059F56C0142E0C40ED11CC814D90420F12A
:10403000A801421B530B480F591FEA0122962597EE
:1040400078F062827382518340832D933C93611593
:10405000710569F0DB011396FC93EE931297A3CFE1
:1040600098012E5F3F4F280F391FF301EECFF093D9
:104070005F04E0935E0497CF4816590608F42C01BC
:10408000BE01E301A0CFC9010E94751EEC0100979B
:1040900009F460CFA801B7010E945A20C7010E940D
:1040A0000B1F58CF9111089581568A5108F4805200
:1040B00085580895FB01DC0102C001900D9241502A
:1040C0005040D8F70895FC018191861721F088238C
:1040D000D9F7992708953197CF010895FB01DC01A5
:1040E0008D91019080190110D9F3990B0895FB016E
:1040F000DC0101900D920020E1F70895FB01DC0145
:104100004150504030F08D910190801919F40020F9
:10411000B9F7881B990B0895FC0181E090E00190AC
:10412000061609F4CF010020D1F701970895AEE0FB
:10413000B0E0EDE9F0E20C94122485E08C838B89E9
:104140009C899A838983AE01495E5F4F6D897E8920
:10415000CE0101960E9437222E96E2E00C942E2486
:10416000CF92DF92EF92FF92FC016A017B0120FD6A
:1041700008C023FD05C022FF02C0F382E282D18283
:10418000C082FF90EF90DF90CF900895CF92DF92A2
:10419000EF92FF926B017C0183E044FD10C084E04C
:1041A00046FD0DC0D601F701AA0FBB1FEE1FFF1F72
:1041B0001094D1F7CA0EDB1EEE1EFF1E81E0CC0C60
:1041C000DD1CEE1CFF1C8A95D1F7C701B601620FFA
:1041D000711D811D911DFF90EF90DF90CF9008958C
:1041E0000F931F93CF93DF938C01C8010E9471231B
:1041F000EC0197FD08C00E94451D892BB1F7B8015D
:10420000CE010E94B423CE01DF91CF911F910F9177
:104210000895A0E0B0E0EFE0F1E20C9408245C0126
:10422000162F4A01F22E0E947123EC019927CB32FE
:1042300021F08D9781F46894F7F81A9531F480E0B5
:10424000CDB7DEB7ECE00C942424C5010E947123A5
:10425000EC0197FDF4CF0F2D0D7F8F2D8073811111
:104260002FC0C03369F5EE24EA94E10EE11431F079
:10427000C5010E947123EC0197FF15C0C12CD12C00
:10428000760107FF08C0F094E094D094C094C11C5C
:10429000D11CE11CF11C202FB701A601C4010E9412
:1042A000B02081E0CDCF8F7D0F2D883511F50264D0
:1042B000125021F3C5010E947123EC0197FDDECF5E
:1042C000C12CD12C76012C2F20532830D0F004FDA6
:1042D00009C02A30B0F006FF05C02F7D8FEE820F97
:1042E000863070F0B501CE010E94B42301FFA7CF44
:1042F000C8CFF6FE03C002601E2DE2CF0261FCCFE4
:104300002750402FC701B6010E94C6206B017C01D7
:1043100002601A9509F4B5CFC5010E947123EC0122
:1043200097FFD1CFAECFA0E2B0E0E9E9F1E20C9483
:1043300004244C01B62E7A01CE0101963C0180E2A4
:10434000F30111928A95E9F7F401B381890180E0C4
:1043500090E0A0E050E070E021E030E0F801B3FD33
:104360004591B3FF4191642F8F01411107C000E0D7
:1043700010E0C801A096E0E10C9420244E3511F421
:10438000009741F178171906FCF44D3551F14D3283
:10439000D9F4511511F1E62FE695E695E695E60D6F
:1043A000F72DF11D462F4770290102C0440C551C02
:1043B0004A95E2F7A2015081452B40836A1779F0B4
:1043C0006A1730F46F5FE7CF5111E5CFA42FE3CF29
:1043D0006150E1CF71E00196C1CF51E0FCCF50E0D8
:1043E000FACF511519F08E8180628E83711561F0BC
:1043F000F3019E012F5D3F4F8081DF013196809553
:104400008C93E217F307C1F7AA24A394C4010E9476
:1044100071236C0197FD17C0E82FE695E695E695A8
:10442000E60DF72DF11D808190E09601277033276E
:1044300002C0959587952A95E2F780FD07C0B401E3
:10444000C6010E94B423A11459F091CFE114F104E4
:1044500019F0F701C1927F01BA94A12CB110D6CF07
:10446000E114F10409F485CFF701108282CFA5E0B1
:10447000B0E0EDE3F2E20C9402247C016C837D83D6
:104480004B83252EFC0117821682312CF7014380C5
:10449000EC81FD8143FC659043FE6190FD83EC83DC
:1044A000611419F1862D90E00E94451D892B21F0A1
:1044B000C7010E94F020EACFF5E26F120BC0EC8139
:1044C000FD8143FC759043FE7190FD83EC8385E292
:1044D00078120EC0C7010E9471234C0197FDAAC03B
:1044E0006816A1F2B7010E94B423832D90E0A6C004
:1044F0009AE2612C79120AC0EC81FD8143FC75902F
:1045000043FE7190FD83EC8366246394512C20ED6F
:10451000270D2A3078F161FE40C0511431F3E8E6EE
:104520007E1609F43DC0FCE67F1609F446C07114FE
:10453000E1F2672D70E088E690E00E946623892B07
:10454000A1F200E010E060FC08C0AB80B22CF501E5
:10455000019111915F01EB832B2CFEE67F1238C095
:10456000F7014681578160E070E0262DC8010E9466
:10457000B0208CCF689461F8652D70E080E090E009
:1045800040E20E94C620562EEC81FD8143FC7590CE
:1045900043FE7190FD83EC83BACF55245A94BFCF6C
:1045A000EC81FD8143FC759043FE7190FD83EC83AB
:1045B00088E67812BCCF689463F8689462F8EC815E
:1045C000FD8143FC759043FE7190FD83EC83AFCF7A
:1045D000F3E67F1219C061FC02C055245394C70151
:1045E0000E94712389839A8389819A8197FD22C0D1
:1045F0000115110519F0F80181938F015A9479F78B
:1046000060FC44CF339442CF9BE579121BC02C81D0
:104610003D81A801652DC7010E9493218C839D8354
:10462000EC81FD81EF2B61F7F701838180738115A8
:1046300009F45BCF8FEF9FEF311057CF2596E2E162
:104640000C941E24C7010E94F02097FDF3CFFFE6D3
:104650007F16C9F180E7781648F494E6791661F080
:10466000E9E67E1659F0689466F808C0F3E77F160D
:10467000A9F085E77812F7CF689465F8262DA80190
:10468000652DC7010E9409218115CDCF01151105A6
:1046900019F0F801C1928F015A9471F0C7010E947C
:1046A00071236C0197FD08C00E94451D892B71F391
:1046B000B701C6010E94B4230115110509F4A0CF6A
:1046C000F80110829DCF689464F8D8CFFC01059062
:1046D000061621F00020D9F7C00108953197CF01C7
:1046E00008950F931F93CF93DF93EC018B8180FF8D
:1046F0001DC086FF0EC08F7B8B838E819F810196AC
:104700009F838E838A8190E0DF91CF911F910F91DB
:10471000089582FF19C0E881F9819081092F092E3F
:10472000000C110B911105C080628B838FEF9FEFFE
:10473000EBCF3196F983E8838E819F8101969F8329
:104740008E83C8019927E0CFEA85FB85CE010995C4
:104750008C0197FFF1CF8B810F3F1F4F19F490E130
:10476000892BE3CF90E2FCCF9C01FB01838180FF8A
:1047700011C086FD0FC02F3F320751F022838F7D7D
:10478000806483838681978101979783868333270B
:10479000C90108952FEF3FEFFBCFF999FECF92BDEE
:1047A00081BDF89A992780B50895262FF999FECFF3
:1047B0001FBA92BD81BD20BD0FB6F894FA9AF99A3E
:1047C0000FBE01960895052E97FB1EF400940E94DB
:1047D000FA2357FD07D00E94392407FC03D04EF47A
:1047E0000C94FA2350954095309521953F4F4F4FAB
:1047F0005F4F089590958095709561957F4F8F4F8D
:104800009F4F08952F923F924F925F926F927F92A7
:104810008F929F92AF92BF92CF92DF92EF92FF92D0
:104820000F931F93CF93DF93CDB7DEB7CA1BDB0B7C
:104830000FB6F894DEBF0FBECDBF09942A88398821
:1048400048885F846E847D848C849B84AA84B98428
:10485000C884DF80EE80FD800C811B81AA81B98134
:10486000CE0FD11D0FB6F894DEBF0FBECDBFED0148
:104870000895A1E21A2EAA1BBB1BFD010DC0AA1FA1
:10488000BB1FEE1FFF1FA217B307E407F50720F0B9
:10489000A21BB30BE40BF50B661F771F881F991F34
:1048A0001A9469F760957095809590959B01AC017D
:1048B000BD01CF010895A29FB001B39FC001A39F86
:1048C000700D811D1124911DB29F700D811D112449
:1048D000911D08955058BB27AA270E9482240C944A
:1048E0003B1E0E942D1E38F00E94341E20F039F429
:1048F0009F3F19F426F40C942A1E0EF4E095E7FB72
:104900000C94241EE92F0E944C1E58F3BA1762071C
:1049100073078407950720F079F4A6F50C946E1EB2
:104920000EF4E0950B2EBA2FA02D0B01B9019001CA
:104930000C01CA01A0011124FF27591B99F0593F0E
:1049400050F4503E68F11A16F040A22F232F342F56
:104950004427585FF3CF469537952795A795F040A4
:104960005395C9F77EF41F16BA0B620B730B840BB9
:10497000BAF09150A1F0FF0FBB1F661F771F881F71
:10498000C2F70EC0BA0F621F731F841F48F48795C9
:1049900077956795B795F7959E3F08F0B0CF9395BB
:1049A000880F08F09927EE0F9795879508950E9434
:1049B000EB240C943B1E0E94341E58F00E942D1EC6
:1049C00040F029F45F3F29F00C94241E51110C94FF
:1049D0006F1E0C942A1E0E944C1E68F39923B1F39B
:1049E000552391F3951B550BBB27AA276217730715
:1049F000840738F09F5F5F4F220F331F441FAA1FA9
:104A0000A9F335D00E2E3AF0E0E832D09150504064
:104A1000E695001CCAF72BD0FE2F29D0660F771F12
:104A2000881FBB1F261737074807AB07B0E809F0F8
:104A3000BB0B802DBF01FF2793585F4F3AF09E3F7D
:104A4000510578F00C94241E0C946F1E5F3FE4F324
:104A5000983ED4F3869577956795B795F7959F5FC0
:104A6000C9F7880F911D9695879597F90895E1E00C
:104A7000660F771F881FBB1F621773078407BA076B
:104A800020F0621B730B840BBA0BEE1F88F7E095C6
:104A900008950E94541E88F09F5798F0B92F9927C7
:104AA000B751B0F0E1F0660F771F881F991F1AF019
:104AB000BA95C9F714C0B13091F00E946E1EB1E0F2
:104AC00008950C946E1E672F782F8827B85F39F0F1
:104AD000B93FCCF3869577956795B395D9F73EF4B2
:104AE00090958095709561957F4F8F4F9F4F08955A
:0E4AF0000E94901D08F48FEF0895F894FFCFF8
:104AFE005A00A50073000F00E7FF1E00E7FF5A00E3
:104B0E005A00B40087005A00017502750200006257
:104B1E0004200000000000E703160455036D044452
:104B2E00044B045E040000000008035803D902E899
:104B3E00029802C502B7020D0A00424C4F434B00C9
:104B4E00524554524945564500535441545553000D
:104B5E00484F4D450042415345004F50454E004F82
:104B6E0000434C4F53450043005345544F50454E60
:104B7E002000534554434C4F5345200050554C5341
:104B8E004520352000474554475249505045520064
:104B9E00534554484F4C442035200053544F500039
:104BAE005055544241434B0044524F504F464600DD
:104BBE005345545049434B5550200053455450498A
:104BCE00434B555020256420256420256420256400
:104BDE00004745545049434B5550005049434B559F
:104BEE00504D4F4445200043415244200042415312
:104BFE004520435720003020435720004241534563
:104C0E002043435720003020434357200042415356
:104C1E0045204C454654200030204C45465420003B
:104C2E0042415345205249474854200030205249B2
:104C3E00474854200042415345205350494E2000CE
:104C4E0030205350494E20004241534520005752C8
:104C5E00495354332043572000575249535433205D
:104C6E004343572000575249535433204C45465422
:104C7E00200057524953543320524947485420007C
:104C8E004D4F44452033203138300033204D4F44B2
:104C9E004520313830004D4F4445203320333630D7
:104CAE000033204D4F444520333630005245534596
:104CBE005420330033205245534554005752495324
:104CCE0054332000534552564F203520005049543E
:044CDE004348200027
:00000001FF
