:100000000C9476010C94A3180C94CA180C949E01BD
:100010000C949E010C949E010C949E010C949E01E4
:100020000C949E010C949E010C949E010C949E01D4
:100030000C949E010C949E010C949E010C949E01C4
:100040000C945B180C949E010C94F1180C941E19DE
:100050000C949E010C949E010C949E010C949E01A4
:100060000C9444190C949E016364696E6F707375EF
:1000700078585B0053544154455F444F434B4544CB
:100080000053544154455F42555359005354415411
:10009000455F424C4F434B454400424C4F434B5FFE
:1000A0004F4B00424C4F434B5F4F4B004552524F1A
:1000B000525F554E4B4E4F574E5F434F4D4D414E45
:1000C00044004D4F56455F4F4B0050495443485FE5
:1000D0004F4B00534552564F355F4F4B00575249D7
:1000E0005354335F4F4B005752495354335F52457B
:1000F0005345545F4F4B005752495354335F4D4F54
:1001000044455F3336305F4F4B00575249535433A9
:100110005F4D4F44455F3138305F4F4B0057524978
:100120005354335F52494748545F4F4B005752492D
:100130005354335F4C4546545F4F4B00575249531D
:1001400054335F4343575F4F4B0057524953543327
:100150005F43575F4F4B00424153455F4F4B004257
:100160004153455F5350494E5F4F4B004241534509
:100170005F52494748545F4F4B00424153455F4CE3
:100180004546545F4F4B00424153455F4343575FE1
:100190004F4B00424153455F43575F4F4B00434134
:1001A00052445F4F4B005049434B55504D4F4445CF
:1001B0005F4F4B005049434B55505F414E474C45B4
:1001C0005320004552524F525F4241445F415247D3
:1001D00053005345545049434B55505F4F4B0050CB
:1001E00055544241434B5F4F4B005049434B555090
:1001F0005F4F4B0053544F505F4F4B00484F4C44A0
:10020000355F4F4B00534554434C4F53455F4F4B65
:10021000005345544F50454E5F4F4B00434C4F5396
:10022000455F4F4B004F50454E5F4F4B00484F4D81
:10023000455F4F4B0052455452494556455F4F4B21
:100240000052455452494556455F4F4B00506F731D
:10025000747572654775617264204669726D776165
:1002600072652076312E35205265616479202846EA
:10027000756C6C2D546F7271756520477269707062
:100280006572204163746976652D486F6C642C201B
:100290005A65726F2D5265626F756E64204261738C
:1002A00065292E0000000000250028002B00040412
:1002B000040404040404020202020202030303030E
:1002C00003030102040810204080010204081020EA
:1002D00001020408102000000008000201000003D1
:1002E00004070000000000000000D81B11241FBEFE
:1002F000CFEFD8E0DEBFCDBF12E0A0E0B1E0E0E993
:10030000F9E402C005900D92A03DB107D9F724E0B1
:10031000A0EDB2E001C01D92AE34B207E1F711E0EA
:10032000C6E7D1E004C02197FE010E944C1CC537EE
:10033000D107C9F70E94611A0C94C6240C940000DE
:100340003FB7F8948091410490914204A0914304F6
:10035000B091440426B5A89B05C02F3F19F0019623
:10036000A11DB11D3FBFBA2FA92F982F8827BC010F
:10037000CD01620F711D811D911D42E0660F771F37
:10038000881F991F4A95D1F708954F925F926F92F7
:100390007F928F929F92AF92BF92CF92DF92EF9215
:1003A000FF920F931F93CF93DF938B01D82FC92F09
:1003B0000E94A001262F822E972E5C016801ED2E4F
:1003C000FC2E05C0C114D104E104F10409F10E941E
:1003D000A0012B013C01481859086A087B088601D6
:1003E000DE2DCF2D31E0C31AD108E108F108282D08
:1003F000792DC50138EE830E33E0931EA11CB11C8C
:1004000038EE431633E0530661047104D8F6D3CFB7
:10041000DF91CF911F910F91FF90EF90DF90CF90E0
:10042000BF90AF909F908F907F906F905F904F9014
:10043000089590E0FC01EA52FD4F2491FC01EE5337
:10044000FD4F3491FC01E255FD4FE491E11519F1A6
:10045000211589F0243001F150F4223029F12330A4
:10046000F9F4809180008F778093800004C027305A
:10047000F1F0283011F1F0E0EE0FFF1FEC55FD4FC9
:10048000A591B5919FB7F8948C9161111AC03095E0
:1004900038233C939FBF0895809180008F7DE4CFE7
:1004A00084B58F7784BDE7CF84B58F7DFBCF8091F6
:1004B000B0008F778093B000DECF8091B0008F7D49
:1004C000F9CF832B8C93E6CF0895FC01A48DA80F60
:1004D000B92FB11DA35ABF4F2C91848D90E0019686
:1004E0008F739927848FA689B7892C93A089B189A6
:1004F0008C91837080648C93938D848D981306C047
:100500000288F389E02D80818F7D80830895FC012E
:10051000818D228D90E0805C9F4F821B91098F73AB
:100520009927089584EA93E00E9487029C0181E064
:10053000232B09F480E0089580E090E0892B29F0D6
:100540000E94920281110C9400000895FC01918D8B
:10055000828D981731F0828DE80FF11D858D90E026
:1005600008958FEF9FEF0895FC01918D828D98176C
:1005700061F0A28DAE0FBF2FB11D5D968C91928D53
:100580009F5F9F73928F90E008958FEF9FEF089584
:10059000FC01538D448D842F90E0252F30E0821B89
:1005A000930B541710F0CF96089501970895CF93A9
:1005B000DF93EC01888D81110FC0DF91CF910895F9
:1005C0000FB607FC0DC08C9185FF0AC0808185FFA6
:1005D00007C0CE010E946502AA89BB89E889F98912
:1005E0008C9185FDEDCF808186FFEACFE6CFEF923B
:1005F000FF920F931F93CF93DF93EC01F62E81E0D0
:10060000888F9B8D8C8D98131AC0E889F989808119
:1006100085FF15C09FB7F894EE89FF896083E8894C
:10062000F98980818370806480839FBF81E090E03E
:10063000DF91CF911F910F91FF90EF9008950B8D57
:1006400010E00F5F1F4F0F731127E02E8C8D8E155A
:1006500079F0EB8DEC0FFD2FF11DE35AFF4FF08287
:100660009FB7F8940B8FEA89FB8980818062DCCF89
:100670000FB607FCEBCFE889F989808185FFE6CFCB
:10068000CE010E946502E2CF80E090E00895CF9213
:10069000DF92EF92FF920F931F93CF93DF937C0132
:1006A0006A0100E010E00C151D0551F4C801DF914E
:1006B000CF911F910F91FF90EF90DF90CF90089511
:1006C000EB01D701ED91FC910190F081E02D699152
:1006D000C7010995892B51F30F5F1F4FBE01E3CF6F
:1006E00010928B0381E080938A031092890361E06A
:1006F00082E10E94190261E083E10E941902E9EBA4
:10070000F0E080818E7F808380818D7F808388E48C
:100710008093B80085E48093BC00089520918803FD
:10072000260F3327331F21323105ECF420918B0340
:10073000FC0180E090E0243069F082E00895A0910F
:1007400088032191AC0148595C4FA40FB52FB11D0E
:100750002C930196861798F380918803680F609315
:10076000880380E0089581E00895CF93DF9391E0BE
:10077000909362038115B9F0C091B800D091BA008E
:100780008091BC008A7B8093BC0060E082E10E9483
:10079000190260E083E10E9419020E947003D09365
:1007A000BA00C093B800DF91CF910895CF93DF9343
:1007B0000F92CDB7DEB7FC016983809117038115D5
:1007C000F1F080911603803250F081E090E0938345
:1007D000828380E090E00F90DF91CF910895809127
:1007E0001503E82FF0E0EB50FD4F998190838F5F68
:1007F000809315038093160381E090E0ECCF61E0D5
:10080000CE0101960E948E03F7CFCF92DF92EF9236
:10081000FF920F931F93CF93DF937C01CB018A014B
:10082000209117032115D9F0EB016B01C40ED51EE1
:10083000CC15DD0551F4C801DF91CF911F910F91C7
:10084000FF90EF90DF90CF9008956991D701ED91DF
:10085000FC910190F081E02DC7010995E9CF642F4B
:100860000E948E03E8CF8091F4029091F302891BDD
:10087000990B08959091F3028091F4022FEF3FEFCE
:10088000981748F4E92FF0E0ED52FD4F208130E059
:100890009F5F9093F302C9010895E091F302809164
:1008A000F402E81730F4F0E0ED52FD4F808190E063
:1008B00008958FEF9FEF0895089508950895CF93B9
:1008C000DF932FB7F8948091460490914704A0914C
:1008D0004804B09149042FBF8093AC039093AD03BB
:1008E000A093AE03B093AF0384EA93E00E94B402F6
:1008F000EC01CF3FDC0721F52FB7F8948091460437
:1009000090914704A0914804B09149042FBF4091B1
:10091000AC035091AD036091AE037091AF03841BA3
:10092000950BA60BB70B4091A8035091A9036091BA
:10093000AA037091AB0384179507A607B707A0F227
:10094000CE01DF91CF910895CF93DF93EC01FE01AB
:1009500064912196611529F084EA93E00E94F702E0
:10096000F6CFDF91CF910895682F84EA93E00C943D
:10097000F7024F925F926F927F928F929F92AF9207
:10098000BF92CF92DF92EF92FF920F931F93CF937C
:10099000DF93082F10911603C1E0113208F09DC0BB
:1009A000D091D2020E94A0012B013C01C0918B0387
:1009B000C1116DC082E080938B0300938A038FEF97
:1009C00080933E031092600310935F0325EF32E0A3
:1009D000AFE3B3E0F9018E2F821B811708F495C0B5
:1009E0001092610380916103DD0FD82BD0936103D6
:1009F00080918903813009F08BC0109289030E9495
:100A0000A0014B015C01809161038093BB00809148
:100A1000640390916503A0916603B0916703892BED
:100A20008A2B8B2BA1F00E94A001009164031091EE
:100A300065032091660330916703681979098A0973
:100A40009B09061717072807390708F441C080914A
:100A5000BC0083FDD8CF85EC8093BC000E94A00130
:100A60006B017C0180918B03823009F453C080912B
:100A70003E038F3F91F180913E03C2E0803269F1E5
:100A800080913E03C3E0803341F1C4E026C08091F1
:100A9000640390916503A0916603B0916703892B6D
:100AA0008A2B8B2B09F482CF0E94A0012091640332
:100AB000309165034091660350916703641975098D
:100AC00086099709261737074807590708F06ECF98
:100AD000809163030E94B503C5E010921503109244
:100AE0001603109217038C2FDF91CF911F910F9156
:100AF000FF90EF90DF90CF90BF90AF909F908F903E
:100B00007F906F905F904F90089581918D9363CF08
:100B100085EEA2CF8091640390916503A091660356
:100B2000B0916703892B8A2B8B2B09F49BCF0E94F2
:100B3000A001009164031091650320916603309138
:100B400067036C197D098E099F0906171707280787
:100B5000390708F087CFBCCF1092F3021092F4024D
:100B600010921503109216030E9470038EE594E014
:100B700090931903809318038DE594E090931C03E0
:100B800080931B030895CF93DF93EC018B81811534
:100B9000A1F0888191E0909317038093D202109284
:100BA00015031092160381E00E94B904982F81E08A
:100BB000911180E0DF91CF9108950E94AC0581E012
:100BC0008B83CE010E94C3058111E3CFF3CFEF9257
:100BD000FF920F931F93CF93DF93EC017B018881EA
:100BE0009981009729F02A813B8126173707A0F4C5
:100BF000B7016F5F7F4F0E94E51E8C0180E00115F9
:100C0000110559F019830883FB82EA828C819D814A
:100C1000892B11F4F801108281E0DF91CF911F91AF
:100C20000F91FF90EF900895FC01DB018481958185
:100C3000892B31F481E09C91911509F080E00895B1
:100C4000808191810E94B71F9C0181E021153105AF
:100C5000F4CFDC01FB014481558114968D919C9168
:100C600015978417950778F08D919C91009759F00E
:100C7000608171816115710531F00E94C71F9C016F
:100C800081E0232B09F080E00895BC01009761F01A
:100C9000FC0101900020E9F73197AF01481B590B87
:100CA00084EA93E00C94470308950E94A40487E427
:100CB00091E00C9445064F925F926F927F928F92D3
:100CC0009F92AF92BF92CF92DF92EF92FF92CF931B
:100CD000DF93CDB7DEB7A1970FB6F894DEBF0FBE96
:100CE000CDBF6B017C01F7FE3DC08DE20E94B404D4
:100CF00022273327A9012C193D094E095F0919A2A2
:100D0000CE0181967C016AE0462E512C612C712C1B
:100D100049015A01CA01B901A30192010E9482232B
:100D2000605DF70162937F01FAE08F169104A104E0
:100D3000B10470F7C7010E944506A1960FB6F8945A
:100D4000DEBF0FBECDBFDF91CF91FF90EF90DF9060
:100D5000CF90BF90AF909F908F907F906F905F905B
:100D60004F9008959B0119A2AE014F5D5F4F7A012C
:100D70004AE0442E512C612C712C49015C01B901CF
:100D8000A30192010E948223CA01605DF701629370
:100D90007F01FAE08F169104A104B10470F7CACF65
:100DA000009711F00C94541E08951F93CF93DF9376
:100DB000FC01EA01122F848195818417950710F4B4
:100DC00080E01DC0808191E0909317038093D20250
:100DD000109215031092160381819281DC01ED912E
:100DE000FC910280F381E02D0995C817D90741F7DE
:100DF000812F0E94B904982F81E09111E1CFDF91FA
:100E0000CF911F910895CF93DF9300D0CDB7DEB778
:100E100089836A8321E042E050E0BE016F5F7F4F2B
:100E200080919203909193030E94D5060F900F90AA
:100E3000DF91CF9108952F923F924F925F926F92E0
:100E40007F928F929F92AF92BF92CF92DF92EF925A
:100E5000FF920F931F93CF93DF93CDB7DEB7AD977C
:100E60000FB6F894DEBF0FBECDBF7B018C0120E032
:100E700030E040E85FE36E87FF86888B198B6E85D4
:100E80007F85888999890E94971C87FD32C120E05F
:100E900030EC4AE555E44E2C5F2C602E712EC301D8
:100EA000B2010E94C12418162CF4E12C30ECF32E70
:100EB0000AE515E46091940370919503809196037F
:100EC000909197030E949C1C2B013C0120E030E094
:100ED00040E855E4EA8AFB8A0C8B1D8B6A897B8982
:100EE0008C899D890E94FD1C4B015C01A501940128
:100EF0004E8A5F8A688E798E6E897F89888D998DFA
:100F00000E94202420E030E040E05FE36A8F7B8F86
:100F10008C8F9D8F6A8D7B8D8C8D9D8D0E94B423CF
:100F200020E030E040E85FE36E8F7F8F88A399A3D5
:100F30006E8D7F8D88A199A10E94B3237B018C01C6
:100F400020E030E040E450E46AA3FBA28CA31DA3A0
:100F50006AA17BA18CA19DA10E94971C87FDCEC098
:100F600020E030E04FE753E4EEA2FFA208A719A764
:100F70006EA17FA188A599A50E94C124181624F40A
:100F8000E12CF12C0FE713E4EAA6FBA60CA71DA7A2
:100F90006AA57BA58CA59DA50E949224562E198238
:100FA000C0909203D0909303DF86CE8620E041E08C
:100FB00050E0BE016F5F7F4FC6010E94D5068115CC
:100FC00009F4EAC0442443948FE3682E83E0782E2A
:100FD00095EE392E25EC222EAE85BF851496AD9068
:100FE000BC904501A114B10419F088248394912C7C
:100FF000DD24D394A114B10409F4D12C182DEE856D
:10100000FF8500810E94A0016A837B838C839D837E
:1010100080918B03811177C040928B03D0928A0319
:101020003FEF30933E03109260038FEF810F809368
:101030005F034092610380916103000F082B0093CE
:10104000610380918903813009F0D8C0109289032F
:101050000E94A0016E837F838887998780916103B6
:101060008093BB008091640390916503A091660317
:10107000B0916703892B8A2B8B2BC1F00E94A001B2
:10108000209164033091650340916603509167039A
:10109000CE80DF80E884F9846C197D098E099F0970
:1010A000261737074807590708F45AC08091BC0033
:1010B00083FDD4CF2092BC000E94A0016A877B8769
:1010C0008C879D8780918B03813009F49AC0809131
:1010D0006003811710F410916003A3EDB2E0EFE319
:1010E000F3E08E2F8619811708F03FC081918D9310
:1010F000F8CFE12CF12C00E81FE3DCCEE12CF12C41
:1011000000E410E441CF8091640390916503A091C5
:101110006603B0916703892B8A2B8B2B09F478CF58
:101120000E94A00120916403309165034091660301
:10113000509167032A8B3B8B4C8B5D8B2A813B81C3
:101140004C815D81621B730B840B950B2A893B8953
:101150004C895D89261737074807590708F058CF8B
:10116000809163030E94B50310E01092F302109384
:10117000F4021815190481F4AB2809F42DCFAE85BB
:10118000BF8511968D919C91DC01ED91FC910284BB
:10119000F385E02D099589831981612F6F76606150
:1011A00080E00E940307652D8EEF0E940307612FE8
:1011B00080E00E94030765E070E080E090E00E941C
:1011C000C501612F606A80E0AD960FB6F894DEBF6E
:1011D0000FBECDBFDF91CF911F910F91FF90EF9088
:1011E000DF90CF90BF90AF909F908F907F906F9047
:1011F0005F904F903F902F900C9403073092BC006B
:101200005BCF8091640390916503A0916603B091D8
:101210006703892B8A2B8B2B09F454CF0E94A001E2
:1012200020916403309165034091660350916703F8
:10123000CA84DB84EC84FD846C197D098E099F09C6
:10124000261737074807590708F03CCF89CFCF93B7
:10125000DF9300D000D00F92CDB7DEB7880F880F94
:101260008A5F89831A821B827D836C8321E045E03B
:1012700050E0BE016F5F7F4F809192039091930386
:101280000E94D5060F900F900F900F900F90DF9156
:10129000CF910895CF93C0E060E070E08C2F0E9462
:1012A0002709CF5FC031C1F7CF910895CF93DF9366
:1012B000EB0162E971E0019711F064ED70E080E00C
:1012C0000E942709BE01DD0F880B990B0E94C50102
:1012D00060E070E080E0DF91CF910C9427099B01E2
:1012E00064E670E01216130664F460E177E22131DF
:1012F00047E2340734F4B9012A30310514F46AE0C6
:1013000070E00C945609CF93DF93EC01C93681E06D
:10131000D8075CF1C8E6D1E02091160130911701A1
:10132000CE01821B930BC217D307E1F0AC0197FFEC
:1013300003C0A9014C1B5D0B24E1249FB001259F34
:10134000700D11246E31710514F46EE170E0181601
:10135000190684F481E090E00E945609D0931701A9
:10136000C0931601DF91CF910895D7FFD5CFC0E08C
:10137000D0E0D2CF8FEF9FEFEFCF8F929F92AF92BF
:10138000BF92CF92DF92EF92FF920F931F93CF9372
:10139000DF938C019B01643981E078070CF07CC0FD
:1013A000CB019595879595958795AC01440F551F71
:1013B000E901C41BD50BD7FF05C0C90195958795D9
:1013C000C0E0D0E06AE070E08E31910524F063E087
:1013D00070E00E941D1C83E4E82EFF24F39496E63F
:1013E000C92E92E0D92E4B01770FAA08BB08B6018F
:1013F0006E197F090130110509F4B70183E00E94DD
:101400002709C501B4010E94C50180E1E80EF11C65
:1014100083E7E81681E0F80651F7209781F063E64C
:1014200071E00130110511F063E071E083E00E948A
:101430002709BE01DD0F880B990B0E94C50163E1EE
:1014400071E00130110511F463E571E083E00E9461
:101450002709C501B4010E94C50163E271E00130B2
:10146000110511F463E471E083E00E942709C501CE
:10147000B4010E94C50160E070E083E0DF91CF918C
:101480001F910F91FF90EF90DF90CF90BF90AF90A2
:101490009F908F900C94270984E690E086CF9B0163
:1014A00064E670E01216130664F468E873E1293804
:1014B00043E1340734F4B9012F30310514F46FE0FF
:1014C00070E00C94BD09CF93DF93EC018B3A91054A
:1014D00064F1CAEAD0E028EB31E0DE010E94311C61
:1014E00024EB30E040E050E00E942C23CA01B90117
:1014F00064577F4F8F4F9F4F85E00E9427096EE50D
:1015000071E080E090E00E94C5018091D0028111DD
:1015100005C060E070E085E00E942709D0930D01CE
:10152000C0930C01DF91CF9108950A97A4F6CAE009
:10153000D0E0D1CF80910A0190910B010C94630A05
:1015400080910801909109010C94630A2F923F92B7
:101550004F925F926F927F928F929F92AF92BF92C3
:10156000CF92DF92EF92FF920F931F93CF93DF936F
:1015700000D00F92CDB7DEB77C016A837B83EA810E
:10158000FB81E53BF1058CF184EB90E09B838A8342
:10159000F3E0EF16F10409F464C074F581E0E81695
:1015A000F10409F455C00091120110911301B2E148
:1015B0004B2EB1E05B2E92E0E916F10449F10F9059
:1015C0000F900F90DF91CF911F910F91FF90EF90AF
:1015D000DF90CF90BF90AF909F908F907F906F9053
:1015E0005F904F903F902F900895EA81FB81F7FF25
:1015F000CFCF1B821A82CCCF00910E0110910F0128
:10160000FEE04F2EF1E05F2EE4E0EE16F104B9F6B5
:10161000E9828A819B818017910761F560E070E023
:101620008E2D0F900F900F90DF91CF911F910F9102
:10163000FF90EF90DF90CF90BF90AF909F908F90F2
:101640007F906F905F904F903F902F900C94270960
:10165000009114011091150184E1482E81E0582E6B
:10166000D7CF0091100110911101A0E14A2EA1E005
:101670005A2ECECFEA81FB8166246A94762C0E170F
:101680001F071CF466246394712C8A809B80801A47
:10169000910AA12CB12C1701F1E02F1A3108D801C1
:1016A000053B11050CF475C0A4EBB0E028EB31E06C
:1016B0000E94311C24EB30E040E050E00E942C23DB
:1016C000CA01B90164577F4F8F4F9F4F89810E9494
:1016D0002709C501B7FE04C0882799278A199B09E5
:1016E000940197FE04C022273327281939092817A7
:1016F00039070CF4C90122E02216310408F04DC06C
:10170000843091050CF453C032E2C32ED12C8830C2
:10171000910544F068E1C62ED12C0E971CF42CE103
:10172000C22ED12CB601DD0C880B990B0E94C5018D
:10173000060D171DA60CB71C861897088A819B8179
:101740008017910709F0ABCF28EB31E0DC010E9454
:10175000311C24EB30E040E050E00E942C23CA0111
:10176000B90164577F4F8F4F9F4F8E2D0E942709DD
:1017700064E071E080E090E00E94C50160E070E00C
:101780008E2D0E9427098A819B81F201918380839B
:1017900016CF17FF8BCFA0E088CF843091055CF087
:1017A00052E1C52E08972CF488E1C82E02C04AE207
:1017B000C42ED12CB7CF90E2C92EFBCFCF93DF93AD
:1017C000BC018091D102811531F083E090E0DF917E
:1017D000CF910C94A60AC4EBD0E0653B71052CF4C4
:1017E000EB0177FF02C0C0E0D0E020911001309102
:1017F0001101CE01821B930BC217D307E1F0AC019C
:1018000097FF03C0A9014C1B5D0B2CE0249FB00186
:10181000259F700D11246832710514F468E270E0A0
:10182000181619065CF481E090E00E94BD09D0937F
:101830001101C0931001DF91CF9108958FEF9FEFB9
:10184000F4CF85ED8093BC00809164039091650393
:10185000A0916603B09167030796A11DB11D23E017
:10186000B695A795979587952A95D1F72091BC00B5
:1018700024FD03C010928B0308954091640350919E
:1018800065036091660370916703452B462B472BD8
:1018900069F30097A105B10541F02AE22A95F1F715
:1018A00000C00197A109B109E1CF809163030C94B5
:1018B000B503DF92EF92FF920F931F93CF93DF93C5
:1018C000CDB7DEB72B970FB6F894DEBF0FBECDBFF6
:1018D00085EA898380918D038A8380918C038B8331
:1018E000809118018C8380911601909117019E833D
:1018F0008D83809114018F8380911201888780915C
:101900001001898780910E018A8780910C018B8755
:10191000CE0101967C0100E010E0F701D0809FEF3E
:10192000E91AF90AC8010E941623D81621F06D2D74
:10193000C8010E941E230F5F1F4F0B30110569F76E
:101940002B960FB6F894DEBF0FBECDBFDF91CF91BF
:101950001F910F91FF90EF90DF9008950E949A0AD7
:1019600066E970E080E090E00E94C5018091060188
:10197000909107010E94830968EC70E080E090E09C
:101980000E94C501609104017091050181E090E021
:101990000E94A60A66E970E080E090E00E94C5011E
:1019A000609102017091030182E090E00E94A60A1A
:1019B00066E970E080E090E00E94C501609100015E
:1019C0007091010184E090E00E94A60A68EC70E04A
:1019D00080E090E00E94C5010E94A00A6AEF70E0DA
:1019E00080E090E00E94C50181E080938C036AE56D
:1019F00070E084E090E00E94A60A66E970E080E072
:101A000090E00E94C5016FEA70E082E090E00E94E1
:101A1000A60A66E970E080E090E00E94C50168E7F0
:101A200070E081E090E00E94A60A68EC70E080E03F
:101A300090E00E94C5018AE590E00E9483096AEF68
:101A400070E080E090E00E94C5010C94590C0E9467
:101A5000A00A64E670E080E090E00E94C5016AE5BB
:101A600070E084E090E00E94A60A64E670E080E006
:101A700090E00E94C5018AE590E00E94DE0B64E6DA
:101A800070E080E090E00E94C50164EB70E082E0CD
:101A900090E00E94A60A66E970E080E090E00E9473
:101AA000C50167E870E081E090E00E94A60A66E95F
:101AB00070E080E090E00E94C50180910601909165
:101AC00007010E94830968EC70E080E090E00E94CA
:101AD000C501609104017091050181E090E00E94D0
:101AE000A60A66E970E080E090E00E94C50160917E
:101AF00002017091030182E090E00E94A60A66E96B
:101B000070E080E090E00E94C5016091000170915A
:101B1000010184E090E00E94A60A68EC70E080E099
:101B200090E00E94C5010E949A0A6AEF70E080E08E
:101B300090E00E94C50110928C030E94A00A64E606
:101B400070E080E090E00E94C5016AE570E084E00A
:101B500090E00E94A60A64E670E080E090E00E94B7
:101B6000C5018AE590E00E94DE0B64E670E080E04B
:101B700090E00E94C50164EB70E082E090E00E947A
:101B8000A60A66E970E080E090E00E94C50167E87F
:101B900070E081E090E00E94A60A66E970E080E0D3
:101BA00090E00E94C5018AE590E00E9483096AEFF7
:101BB00070E080E090E00E94C5010C94590C809187
:101BC0008D0390918E03892B41F480918C038111B8
:101BD00004C081E492E00C94550682E090E090937A
:101BE0008E0380938D030E94590C0E94A00A64E624
:101BF00070E080E090E00E94C5016AE570E084E05A
:101C000090E00E94A60A64E670E080E090E00E9406
:101C1000C5018AE590E00E94DE0B64E670E080E09A
:101C200090E00E94C50164EB70E082E090E00E94C9
:101C3000A60A66E970E080E090E00E94C50167E8CE
:101C400070E081E090E00E94A60A66E970E080E022
:101C500090E00E94C5018AE590E00E94830968EC4B
:101C600070E080E090E00E94C5018091180181152C
:101C700029F080918C0381110E94270D0E94590C3C
:101C800010928E0310928D0385E392E0A4CFEF9221
:101C9000FF920F931F93CF93DF93EC017B018A0197
:101CA000BA010E94E705282F88819981211111C06E
:101CB000009711F00E94541E198218821D821C8206
:101CC0001B821A82DF91CF911F910F91FF90EF90AD
:101CD00008950C831D83B701DF91CF911F910F9160
:101CE000FF90EF900C94C01FFB0101900020E9F7DA
:101CF0003197AF01461B570B0C94470EAF92BF9222
:101D0000CF92DF92EF92FF920F931F93CF93DF93C7
:101D1000EC015B016A0179012417350720F08F2D52
:101D20007A01C22ED82E198218821B821A821D8235
:101D30001C8269E471E0CE010E94740ED5011496F4
:101D40000D911C91E016F10620F5C016D10608F49D
:101D50008601D501ED91FC911197E00FF11FD08024
:101D600010826D917C916E0D7F1D61157105E9F0FA
:101D7000FB0101900020E9F73197AF01461B570B9B
:101D8000CE010E94470ED501ED91FC91E00FF11FAD
:101D9000D082CE01DF91CF911F910F91FF90EF90F4
:101DA000DF90CF90BF90AF90089588819981009780
:101DB00011F00E94541E198218821D821C821B82FF
:101DC0001A82E1CFCF93DF93D82FC92FFB01248153
:101DD00035810E947E0E8D2F9C2FDF91CF9108952B
:101DE000BF92CF92DF92EF92FF920F931F93CF9308
:101DF000DF938C01DC011496CD90DC901597C11413
:101E0000D10461F48FEF9FEFDF91CF911F910F917C
:101E1000FF90EF90DF90CF90BF900895ED91FC91EF
:101E20001197EC0DFD1DB0801082ED90FC9060E2EA
:101E300070E0C7010E94D51FEC01EC0CFD1CF701FE
:101E4000B082892BF9F2D8018D919C91FE01E81B9B
:101E5000F90BCF01D9CF009711F00C94521C60E020
:101E600070E0CB0108952F923F924F925F926F9254
:101E70007F928F929F92AF92BF92CF92DF92EF921A
:101E8000FF920F931F93CF93DF93CDB7DEB7C0556B
:101E9000D1090FB6F894DEBF0FBECDBF1E8A1D8AD2
:101EA0001C8A1B8A188E1F8A7E0123E1E20EF11C18
:101EB00069E471E0C7010E94740ECB88DC880F8949
:101EC000188D0E945F045C018FEFA816B80621F000
:101ED0009AE0A916B104A9F5C114D10409F45FC0B0
:101EE0000115110561F146015401F40181914F0181
:101EF000082E000C990B0E948E1C892BA9F701500B
:101F000011090C0D1D1DF8018081082E000C990B84
:101F10000E948E1C892B19F00A151B0588F50F5F8E
:101F20001F4F0A191B09CA14DB0428F4A801B501C4
:101F3000C6010E94A31FF601E00FF11F1082560197
:101F400029C0A9821A8248013FEF831A930ADC8ACA
:101F5000CB8A188F0F8BB401C7010E94E705CB888D
:101F6000DC880F89188D811509F4ABCFBE016F5F36
:101F70007F4FC601800F911F0E94C01F8401A1CF17
:101F800001501109C0CF082E000C990B0E949B1F15
:101F9000F5018293F50181915F018111F4CF011563
:101FA0001105E1F4C601C05BDF4F0FB6F894DEBF48
:101FB0000FBECDBFDF91CF911F910F91FF90EF909A
:101FC000DF90CF90BF90AF909F908F907F906F9059
:101FD0005F904F903F902F900C94D006DC8ACB8A74
:101FE000188F0F8B6AE471E0C7010E9414068115F7
:101FF00009F46AC080918D0390918E03019729F4B2
:1020000083EA90E00E94550668C082E090E09093D9
:102010008E0380938D030E94590C809118018115C5
:1020200009F449C080918C03811145C00E94AE0C17
:102030008AE590E00E94830966E970E080E090E024
:102040000E94C50168E770E084E090E00E94A60A63
:1020500068EC70E080E090E00E94C5018AE590E0C5
:102060000E94DE0B66E970E080E090E00E94C5010E
:102070006CE870E082E090E00E94A60A68EC70E0F4
:1020800080E090E00E94C5016BE470E081E090E0A8
:102090000E94A60A68EC70E080E090E00E94C50112
:1020A0000E94590C81E090E090938E0380938D0301
:1020B0008AE990E0A7CF0E94A00A66E970E080E07C
:1020C00090E00E94C501B4CF60E571E0C7010E94B5
:1020D0001406811529F00E94DF0D0E94590C62CF71
:1020E00069E571E0C7010E9414068115A9F080918D
:1020F0008D0390918E038130910541F082309105DE
:1021000041F0892B51F784E790E07CCF8CE890E098
:1021100079CF81E890E076CF60E671E0C7010E9458
:102120001406811108C065E671E0C7010E9414061B
:10213000811509F45AC082E090E090938E03809359
:102140008D0380911801811529F080918C038111F4
:102150000E94270D0E94A00A66E970E080E090E0EE
:102160000E94C5016AE570E084E090E00E94A60A42
:1021700066E970E080E090E00E94C5018AE590E0A9
:102180000E94DE0B64E670E080E090E00E94C501F2
:1021900064EB70E082E090E00E94A60A68EC70E0D8
:1021A00080E090E00E94C50167E870E081E090E087
:1021B0000E94A60A68EC70E080E090E00E94C501F1
:1021C0008AE590E00E9483096AEF70E080E090E089
:1021D0000E94C50110928C0310928E0310928D0301
:1021E0000E94590C8DE292E00DCF6AE671E0C701C2
:1021F0000E941406811164C06FE671E0C7010E945D
:10220000140681115DC061E771E0C7010E941406E8
:1022100081115BC067E771E0C7010E94140681115C
:1022200054C01C821B821E821D821A82198269E799
:1022300071E08E010F5F1F4FC8010E94740EA980CC
:10224000BA80B801C7010E942906982EC5010E94D4
:10225000D00691103FC01C821B821E821D821A82F2
:10226000198262E871E0C8010E94740EA980BA80E8
:10227000B801C7010E942906982EC5010E94D00608
:10228000911409F4A5C049E050E0B701C8010E94CB
:10229000E20E09811A81C8010E942B0F6A30710574
:1022A000810591050CF061C08AE090E090930901EE
:1022B00080930801C8010E94D00685E092E0A2CE7A
:1022C0000E949A0A85E292E09DCE0E94A00A8CE1CB
:1022D00092E098CE48E050E0B701C8010E94E20EBB
:1022E00009811A81C8010E942B0F6A30710581058E
:1022F000910564F48AE090E090930B0180930A01C9
:10230000C8010E94D00681E192E07CCE48E050E016
:10231000B701CE0107960E94E20EAF80B884C501D6
:102320000E942B0F6B3A71058105910554F08AEAE2
:1023300090E090930B0180930A01C5010E94D006A2
:10234000DFCF48E050E0B701CE010D960E94E20ECB
:10235000ED84FE84C7010E942B0F70930B016093E4
:102360000A01C7010E94D006E8CF49E050E0B7015A
:10237000CE0107960E94E20EAF80B884C5010E948C
:102380002B0F6B3A71058105910554F08AEA90E0B4
:102390009093090180930801C5010E94D0068ACF5D
:1023A00049E050E0B701CE010D960E94E20EED84A7
:1023B000FE84C7010E942B0F6DA77EA72DA53EA509
:1023C0003093090120930801C7010E94D006E4CF91
:1023D0001C821B821E821D821A8219826FE871E0A4
:1023E000C8010E94740EA980BA80B801C7010E947A
:1023F000290633243394811119C01A8619861C8644
:102400001B8618861F826CE871E0CE0107960E9439
:10241000740E8F809884BE01695F7F4FC7010E9450
:1024200029068170382EC4010E94D006C5010E9481
:10243000D006311409F1C7010E94F00EAC014F5FC4
:102440005F4FB701C8010E94E20E09811A81C801DD
:102450000E942B0F6F8F78A389A39AA3C8010E94B3
:10246000D00681E0EF8DF8A1EF2B09F480E0809396
:10247000D0028CEF91E0C6CD67E971E0C7010E9400
:102480001406811175C068EA71E0C7010E94140644
:1024900081116EC060ED71E0C7010E9414068111C8
:1024A0006CC06CE971E0C7010E94140681116AC01A
:1024B00064EA71E0C7010E941406811163C01C82A6
:1024C0001B821E821D821A8219826CEA71E0C80189
:1024D0000E94740EA980BA80B801C7010E94290623
:1024E000982EC5010E94D006911051C06DEC71E08C
:1024F000C7010E941406811509F4ABC084EB91E07A
:102500000E94A4046091060170910701072E000C3F
:10251000880B990B0E945B0680E20E94B4046091D4
:10252000040170910501072E000C880B990B0E9485
:102530005B0680E20E94B404609102017091030185
:10254000072E000C880B990B0E945B0680E20E940C
:10255000B4046091000170910101072E000C880BFA
:10256000990B0E945B0687E491E00E944506B5CD79
:102570000E944A0984EF91E045CD0E94AE0C8AEE9C
:1025800091E040CD0E94270D8FED91E03BCDCE0133
:1025900049969F938F930C979F938F9306979F9342
:1025A0008F931F930F9387EB91E09F938F93DF920D
:1025B000CF920E94E01F0FB6F894DEBF0FBECDBFD2
:1025C000049709F043C089819A81853B910554F1B4
:1025D00084EB90E090930701809306018F819885AA
:1025E000853B910524F184EB90E090930501809365
:1025F00004018D859E85853B9105F4F084EB90E088
:102600009093030180930201898D9A8D853B9105FA
:10261000C4F084EB90E0909301018093000182ED7F
:1026200091E0F0CC97FFD6CF80E090E0D3CF97FF3A
:10263000DCCF80E090E0D9CF97FFE2CF80E090E060
:10264000DFCF97FFE8CF80E090E0E5CF83EC91E02B
:10265000D9CC1C821B821E821D821A82198267EDD0
:1026600071E0C8010E94740EA980BA80B801C70148
:102670000E942906982EC5010E94D0069114E9F007
:102680004BE050E0B701C8010E94E20E09811A81B7
:10269000C8010E942B0F6BA37CA38DA39EA3C8012E
:1026A0000E94D00681E0EBA1FCA1EF2B09F480E0B1
:1026B0008093180186EA91E0A5CC1C821B821E82C1
:1026C0001D821A82198263EE71E0C8010E94740EA5
:1026D000A980BA80B801C7010E942906982EC501B9
:1026E0000E94D0069114E9F045E050E0B701C8011E
:1026F0000E94E20E09811A81C8010E942B0F6FA36C
:1027000078A789A79AA7C8010E94D00681E02FA1C7
:1027100038A5232B09F480E080938C038EE991E0A7
:1027200071CC1C821B821E821D821A82198269EE64
:1027300071E0C8010E94740EA980BA80B801C70177
:102740000E94290633243394811119C01A861986F0
:102750001C861B8618861F8262EF71E0CE010796E9
:102760000E94740E8F809884BE01695F7F4FC701FD
:102770000E9429068170382EC4010E94D006C5012E
:102780000E94D0063114F1F0C7010E94F00EAC0196
:102790004F5F5F4FB701C8010E94E20EE980FA80E7
:1027A000C7010E942B0F8B01C7010E94D0060FA703
:1027B00018AB6FA578A981E090E00E946F0983E9CA
:1027C00091E020CC1C821B821E821D821A821982FB
:1027D00068EF71E0C8010E94740EA980BA80B80148
:1027E000C7010E94290633243394811119C01A8627
:1027F00019861C861B8618861F8262E072E0CE0155
:1028000007960E94740E8F809884BE01695F7F4F87
:10281000C7010E9429068170382EC4010E94D0068B
:10282000C5010E94D0063114F1F0C7010E94F00EDC
:10283000AC014F5F5F4FB701C8010E94E20EE98013
:10284000FA80C7010E942B0F8B01C7010E94D0069E
:1028500009AB1AAB69A97AA98FEF9FEF0E946F09A4
:1028600087E891E0CFCB1C821B821E821D821A82D8
:10287000198269E072E0C8010E94740EA980BA80D2
:10288000B801C7010E94290681113FC01A86198626
:102890001C861B8618861F8264E172E0CE010796B3
:1028A0000E94740E8F809884BE01695F7F4FC701BC
:1028B0000E9429068170F82EC4010E94D006C5012D
:1028C0000E94D006F11421F1CE0143960E94F00E31
:1028D000AC014F5F5F4FBE016D5E7F4FC8010E942C
:1028E000E20EE980FA80C7010E942B0F8B01C7011D
:1028F0000E94D0060BAB1CAB6BA97CA98FEF9FEF9E
:102900000E946F098AE791E07DCBFF24F394D7CF33
:102910001C821B821E821D821A8219826CE172E067
:10292000C8010E94740EE980FA80B801CE01439676
:102930000E9429069924939481111AC01A86198637
:102940001C861B8618861F8268E272E0CE010796FD
:102950000E94740EAF80B884BE01695F7F4FCE01C4
:1029600043960E9429068170982EC5010E94D006C8
:10297000C7010E94D006911409F1CE0143960E942E
:10298000F00EAC014F5F5F4FBE016D5E7F4FC8011F
:102990000E94E20EE980FA80C7010E942B0F8B0192
:1029A000C7010E94D0060DAB1EAB6DA97EA981E0C8
:1029B00090E00E946F098CE691E024CB1C821B8280
:1029C0001E821D821A82198261E372E0C8010E9490
:1029D000740EE980FA80B801CE0143960E94290660
:1029E0009924939481111AC01A8619861C861B8615
:1029F00018861F826CE372E0CE0107960E94740E67
:102A0000AF80B884BE01695F7F4FCE0143960E94BC
:102A100029068170982EC5010E94D006C7010E9428
:102A2000D006911499F1CE0143960E94F00EAC01AC
:102A30004F5F5F4FBE016D5E7F4FC8010E94E20E87
:102A400009811A81C8010E942B0F6B8F7C8F8D8F9B
:102A50009E8FEB8CFC8CC8010E94D0068B8D9C8DC8
:102A6000F7FE03C091958195910924E1289FB0015B
:102A7000299F700D112481E090E0F7FE02C08FEFD6
:102A80009FEF0E946F098FE591E0BCCA1C821B82F8
:102A90001E821D821A82198264E472E0C8010E94BB
:102AA000740EE980FA80B801CE0143960E9429068F
:102AB000B82EC7010E94D006B114D1F045E050E015
:102AC000BE016D5E7F4FC8010E94E20EE980FA8070
:102AD000C7010E942B0F8B01C7010E94D0060FABCC
:102AE00018AF8FA998AD0E94830987E591E08ACA43
:102AF0001C821B821E821D821A8219826AE472E085
:102B0000C8010E94740EE980FA80B801CE01439694
:102B10000E9429069924939481111AC01A86198655
:102B20001C861B8618861F826FE472E0CE01079612
:102B30000E94740EAF80B884BE01695F7F4FCE01E2
:102B400043960E9429068170982EC5010E94D006E6
:102B5000C7010E94D006911409F1CE0143960E944C
:102B6000F00EAC014F5F5F4FBE016D5E7F4FC8013D
:102B70000E94E20EE980FA80C7010E942B0F8B01B0
:102B8000C7010E94D00609AF1AAF69AD7AAD81E0E6
:102B900090E00E944F0A8AE491E034CA1C821B82B2
:102BA0001E821D821A82198265E572E0C8010E94A8
:102BB000740EE980FA80B801CE0143960E9429067E
:102BC0009924939481111AC01A8619861C861B8633
:102BD00018861F826AE572E0CE0107960E94740E85
:102BE000AF80B884BE01695F7F4FCE0143960E94DB
:102BF00029068170982EC5010E94D006C7010E9447
:102C0000D006911409F1CE0143960E94F00EAC015A
:102C10004F5F5F4FBE016D5E7F4FC8010E94E20EA5
:102C2000E980FA80C7010E942B0F8B01C7010E9427
:102C3000D0060BAF1CAF6BAD7CAD8FEF9FEF0E944A
:102C40004F0A8CE391E0DEC91C821B821E821D822A
:102C50001A82198261E672E0C8010E94740EE9804E
:102C6000FA80B801CE0143960E94290699249394D4
:102C700081111AC01A8619861C861B8618861F8227
:102C800066E672E0CE0107960E94740EAF80B884AB
:102C9000BE01695F7F4FCE0143960E942906817075
:102CA000982EC5010E94D006C7010E94D00691143B
:102CB00009F1CE0143960E94F00EAC014F5F5F4FC9
:102CC000BE016D5E7F4FC8010E94E20EE980FA806E
:102CD000C7010E942B0F8B01C7010E94D0060DAFC8
:102CE0001EAF6DAD7EAD8FEF9FEF0E944F0A8DE25C
:102CF00091E088C91C821B821E821D821A82198261
:102D00006EE672E0C8010E94740EE980FA80B80194
:102D1000CE0143960E942906BB24B39481111AC0A8
:102D20001A8619861C861B8618861F8263E772E046
:102D3000CE0107960E94740E0F811885BE01695F4F
:102D40007F4FCE0143960E9429068170B82EC8019C
:102D50000E94D006C7010E94D006B11431F1CE0105
:102D600043960E94F00EAC014F5F5F4FBE016D5E57
:102D70007F4FCE0101960E94E20EE980FA80C701E2
:102D80000E942B0F8B01C7010E94D0060FAF219626
:102D90001FAF219721966EAD7FAD219781E090E026
:102DA0000E944F0A8DE191E02DC96CE772E0CE01DF
:102DB00043960E94140681117DC067E872E0CE013F
:102DC00043960E941406811175C062E972E0CE013B
:102DD00043960E941406811173C06DE972E0CE0122
:102DE00043960E94140681116BC068EA72E0CE011E
:102DF00043960E941406811168C060EB72E0CE0118
:102E000043960E941406811160C01C821B821E82A0
:102E10001D821A82198268EB72E08E010F5F1F4FCC
:102E2000C8010E94740EE980FA80B801CE01439671
:102E30000E942906982EC7010E94D00658019110C1
:102E40004DC01C821B821E821D821A82198260EC78
:102E500072E0C8010E94740EE980FA80B801CE01C8
:102E600043960E942906982EC7010E94D00691140D
:102E700009F454C048E050E0BE016D5E7F4FC801C8
:102E80000E94E20EE980FA80C7010E942B0F8B019D
:102E9000C7010E94D00624960FAF249725961FAF36
:102EA000259725968EAD9FAD25970E94630A83EDE9
:102EB00090E0A8C881E08093D1028AE091E0A2C8A6
:102EC0001092D10287EF90E09DC88AE590E0909340
:102ED00011018093100187EE90E094C847E050E024
:102EE000BE016D5E7F4FC8010E94E20EE980FA804C
:102EF000C7010E942B0F8B01C7010E94D0062296AA
:102F00000FAF229723961FAF239723968EAD9FADC9
:102F100023970E94DE0B8DED90E074C81C821B820B
:102F20001E821D821A82198269EC72E0C8010E9419
:102F3000740EE980FA80B801CE0143960E942906FA
:102F4000182FC7010E94D006111511F146E050E07C
:102F5000BE016D5E7F4FC5010E94E20EE980FA80DE
:102F6000C7010E942B0F8B01C7010E94D006269635
:102F70000FAF269727961FAF279727966EAD7FAD89
:102F8000279784E090E00E94A60A8AEC90E03AC875
:102F900060E270E0C6010E94AC1F8BA79CA78BA5C6
:102FA0009CA5009709F483C08C010C191D0910160B
:102FB00011060CF07CC0980140E050E0BE016D5E4F
:102FC0007F4FC5010E947E0E89809A80C4010E94B5
:102FD0002B0F2B01C4010E94D006A8014F5F5F4F49
:102FE000BE016D5E7F4FC5010E94E20E09811A810C
:102FF000C8010E942B0F5B01C8010E94D00641143A
:10300000510481F42896AFAE28972996BFAE299730
:1030100029968EAD9FAD29970E94830982EC90E09E
:103020000C94021095E04916510469F42A96AFAE4B
:103030002A972B96BFAE2B972B968EAD9FAD2B97D5
:103040000E94630AEBCFE3E04E16510469F42C961C
:10305000AFAE2C972D96BFAE2D972D968EAD9FAD12
:103060002D970E94DE0BDACFF4E04F16510479F46D
:103070002E96AFAE2E972F96BFAE2F972F966EAD92
:103080007FAD2F9784E090E00E94A60AC7CFC201CF
:103090000197029718F66096AFAE60976196BFAE43
:1030A000619761966EAD7FAD6197C201EDCF8CEAFD
:1030B00090E00C9402101F921FB61F9211242F93C0
:1030C0003F938F939F93AF93BF93809146049091CA
:1030D0004704A0914804B09149043091450423E08D
:1030E000230F2D3750F50196A11DB11D20934504E6
:1030F0008093460490934704A0934804B0934904F6
:103100008091410490914204A0914304B091440401
:103110000196A11DB11D8093410490934204A09398
:103120004304B0934404BF91AF919F918F913F911D
:103130002F911F901FBE1F90189526E8230F02960F
:10314000A11DB11DD3CF1F920F920FB60F92112464
:103150002F933F934F935F936F937F938F939F939F
:10316000AF93BF93EF93FF93E0911901F0911A0190
:103170000995FF91EF91BF91AF919F918F917F91B1
:103180006F915F914F913F912F910F900FBE0F90D4
:103190001F9018951F920F920FB60F9211242F9324
:1031A0003F934F935F936F937F938F939F93AF93CF
:1031B000BF93EF93FF93E0911B01F0911C010995E0
:1031C000FF91EF91BF91AF919F918F917F916F91FF
:1031D0005F914F913F912F910F900FBE0F901F90D5
:1031E00018952F932FB72F938F939F93EF93FF9360
:1031F000E091B403F091B5038081E091BA03F091BE
:10320000BB0382FD19C090818091BD038F5F8F73D6
:103210002091BE03821741F0E091BD03F0E0EC5530
:10322000FC4F958F8093BD03FF91EF919F918F91FC
:103230002F912FBF2F9118958081F6CF1F920F925B
:103240000FB60F9211242F933F934F935F936F9379
:103250007F938F939F93AF93BF93EF93FF9384EAF2
:1032600093E00E946502FF91EF91BF91AF919F9112
:103270008F917F916F915F914F913F912F910F901F
:103280000FBE0F901F9018951F920F920FB60F92BE
:1032900011242F933F934F935F936F937F938F935B
:1032A0009F93AF93BF93EF93FF939091B900892FB2
:1032B000887F803509F4C0C008F042C0803309F42B
:1032C000B6C098F5883101F1D0F4883009F4A7C070
:1032D000803109F4A4C0811509F4F0C0FF91EF9189
:1032E000BF91AF919F918F917F916F915F914F911E
:1032F0003F912F910F900FBE0F901F901895803225
:1033000009F495C0883251F79091600380915F0372
:10331000981778F5E091600381E08E0F8093600349
:10332000F0E0E15CFC4F80817CC0803409F490C007
:10333000883409F47EC0883389F680933E036DC0DB
:10334000803A09F49FC0B8F5803809F489C050F577
:10335000803611F1D8F4883509F6E091600381E0F8
:103360008E0F809360038091BB00F0E0E15CFC4F26
:10337000808380918A0381115CC081E080938903FE
:1033800084EA8093BC0010928B03A8CF803721F091
:10339000987E983609F0A2CF83E080938B03109239
:1033A0003D0341C0803909F45BC0987E983809F02C
:1033B00095CF85E839C0883BD9F058F5883A19F09F
:1033C000803B09F08BCF84E080938B0310921A032B
:1033D00010928803E0911803F091190309958091E8
:1033E0008803811105C081E08093880310926803EF
:1033F000E0911A0381E08E0F80931A03F0E0E85900
:10340000FC4F80818093BB0090911A0380918803C8
:1034100023C0907F903C09F061CF85ECB2CF8091C2
:1034200061038093BB0085EC8093BC0057CF8093F1
:103430003E030E94210C52CFE091600381E08E0F89
:10344000809360038091BB00F0E0E15CFC4F8083DF
:103450009091600380915F03981708F0AACFE3CFA3
:1034600080913D03803208F0A4CFE0913D0381E0DC
:103470008E0F80933D038091BB00F0E0E35EFC4F34
:103480008083D1CF85EC8093BC0010928B03809118
:103490003D03803230F4E0913D03F0E0E35EFC4F09
:1034A000108260913D0370E0E0911B03F0911C03DA
:1034B0008DE193E0099510923D0310CF10923E03E9
:1034C000B8CFCDB7DEB72B970FB6F894DEBF0FBEDF
:1034D000CDBF789484B5826084BD84B5816084BD9D
:1034E00085B5826085BD85B5816085BD80916E00A2
:1034F000816080936E0010928100809181008260D3
:10350000809381008091810081608093810080910F
:1035100080008160809380008091B10084608093FE
:10352000B1008091B00081608093B00080917A00FA
:10353000846080937A0080917A00826080937A0020
:1035400080917A00816080937A0080917A0080680F
:1035500080937A001092C100E091B403F091B5031A
:1035600082E08083E091B003F091B1031082E0919A
:10357000B203F091B30380E180831092BC03E09129
:10358000B803F091B90386E08083E091B603F0912F
:10359000B703808180618083E091B603F091B70327
:1035A000808188608083E091B603F091B7038081C9
:1035B00080688083E091B603F091B70380818F7DAE
:1035C00080830E94AC0564E670E080E090E00E9499
:1035D000C5018091920390919303009711F00E948E
:1035E000541E86E090E00E94BE1D8C0180919003E5
:1035F0009091910320918F03F8012083928381831E
:10360000138280E290E09583848310939303009368
:1036100092030E94AC0581E0F8018383C8010E94F7
:10362000C3058115E1F060E880E00E9403076AE0CD
:1036300070E080E090E00E94C50180E498E7ADE78B
:10364000B1E08093940390939503A0939603B09375
:10365000970360E070E08AE794E40E941B0780EC27
:103660009CEFABE9B1E08093940390939503A09312
:103670009603B093970360E070E088E492E40E94C0
:103680001B070E944A0910928E0310928D03CE01EF
:1036900001967C0100E010E0C8010E941623F701AA
:1036A00081937F010F5F1F4F0B301105A9F78981AF
:1036B000853A09F05AC08A81833028F490E09093CB
:1036C0008E0380938D032B8181E0213009F080E00F
:1036D00080938C0381E09C81913009F080E080939D
:1036E00018018D819E818936F1E09F070CF45BC043
:1036F00088E691E090931701809316018F81853BB6
:1037000008F084EB90E09093150180931401888574
:10371000853B08F084EB90E09093130180931201B5
:103720008985853B08F084EB90E0909311018093AC
:1037300010018A85853B08F084EB90E090930F019F
:1037400080930E018B85853B08F084EB90E090938D
:103750000D0180930C01213031F080918D03909107
:103760008E03892B11F00E94DF0D10928E031092B0
:103770008D030E94590C8DE492E00E94550600E0F2
:1037800010E084EA93E00E948702892B11F00E94E6
:10379000330F01151105A9F30E949202811589F3D7
:1037A0000E940000EECF97FFA5CF80E090E0A2CF6F
:1037B000AFE8B3E080E48C93E8E9F3E01296FC9381
:1037C000EE93119714961C921E92139713821282F5
:1037D00088EE93E0A0E0B0E084839583A683B7836E
:1037E00027E231E031832083E4EAF3E0138212829E
:1037F00084839583A683B78389E391E09183808353
:1038000085EC90E09587848784EC90E097878687A5
:1038100080EC90E0918B808B81EC90E0938B828B9D
:1038200082EC90E0958B848B86EC90E0978B868B76
:10383000118E128E138E148E089597FB072E16F498
:10384000009407D077FD09D00E94381C07FC05D0F2
:103850003EF4909581959F4F0895709561957F4FA7
:1038600008950E94A423B7FF0895821B930B089527
:10387000AA1BBB1B51E107C0AA1FBB1FA617B70796
:1038800010F0A61BB70B881F991F5A95A9F78095B2
:103890009095BC01CD010895EE0FFF1F0590F491A6
:1038A000E02D09941F93FC0199278827BC01E89417
:1038B00011911032E9F3193010F01E30C8F31B32A9
:1038C00051F01D3249F4689406C00E94791C610FC2
:1038D000711D811D911D119110531A30B0F33EF4EA
:1038E00090958095709561957F4F8F4F9F4F1F9159
:1038F0000895592F482F372F262F660F771F881FBF
:10390000991F660F771F881F991F620F731F841FEF
:10391000951F660F771F881F991F089591110C94AA
:103920006A1D803219F089508550C8F708950E94A9
:10393000D91C08F481E00895E89409C097FB3EF48F
:1039400090958095709561957F4F8F4F9F4F9923EC
:10395000A9F0F92F96E9BB279395F695879577956A
:103960006795B795F111F8CFFAF4BB0F11F460FF2A
:103970001BC06F5F7F4F8F4F9F4F16C0882311F082
:1039800096E911C0772321F09EE8872F762F05C096
:10399000662371F096E8862F70E060E02AF09A9531
:1039A000660F771F881FDAF7880F9695879597F926
:1039B0000895990F0008550FAA0BE0E8FEEF1616C0
:1039C0001706E807F907C0F012161306E407F50713
:1039D00098F0621B730B840B950B39F40A2661F087
:1039E000232B242B252B21F408950A2609F4A1402A
:1039F000A6958FEF811D811D08950E94101D0C94C6
:103A0000841D0E94761D38F00E947D1D20F09523B4
:103A100011F00C946D1D0C94731D11240C94B81DA1
:103A20000E94951D70F3959FC1F3950F50E0551FAF
:103A3000629FF001729FBB27F00DB11D639FAA2703
:103A4000F00DB11DAA1F649F6627B00DA11D661F52
:103A5000829F2227B00DA11D621F739FB00DA11D73
:103A6000621F839FA00D611D221F749F3327A00D2D
:103A7000611D231F849F600D211D822F762F6A2FC9
:103A800011249F5750409AF0F1F088234AF0EE0F2E
:103A9000FF1FBB1F661F771F881F91505040A9F75B
:103AA0009E3F510580F00C946D1D0C94B81D5F3F36
:103AB000E4F3983ED4F3869577956795B795F79597
:103AC000E7959F5FC1F7FE2B880F911D969587950F
:103AD00097F9089599278827089597F99F6780E8AF
:103AE00070E060E008959FEF80EC089500240A9450
:103AF0001616170618060906089500240A941216C9
:103B00001306140605060895092E0394000C11F4FB
:103B1000882352F0BB0F40F4BF2B11F460FF04C0A8
:103B20006F5F7F4F8F4F9F4F089557FD9058440F01
:103B3000551F59F05F3F71F04795880F97FB991F0C
:103B400061F09F3F79F087950895121613061406C9
:103B5000551FF2CF4695F1DF08C016161706180656
:103B6000991FF1CF86957105610508940895E89431
:103B7000BB2766277727CB0197F908950F931F93EB
:103B8000CF93DF939C01029710F422E030E0E091A4
:103B90004A04F0914B0480E090E0A0E0B0E0309760
:103BA00091F4009709F448C0821B930B843091056F
:103BB000D0F58A819B816115710581F1FB019383A9
:103BC0008283FE0111C0408151810281138142171D
:103BD0005307D8F04217530799F4109761F01296E3
:103BE0000C93129713961C933296CF01DF91CF91CD
:103BF0001F910F91089500934A0410934B04F4CF42
:103C0000009751F04817590738F0AC01DB01CA01A1
:103C1000BD01DF01F801C3CFEF01F9CF90934B0451
:103C200080934A04CECFFE01E80FF91F2193319310
:103C3000029799838883D9CF40914C0450914D04C9
:103C40004115510541F440911F01509120015093BD
:103C50004D0440934C0480911D0190911E010097EA
:103C600041F48DB79EB76091210170912201861BAE
:103C7000970B4817590708F0B8CF841B950B82178C
:103C8000930708F4B2CFB9016E5F7F4F861797078D
:103C900008F4ABCF640F751F70934D0460934C0410
:103CA000FA0121933193A1CFCF93DF939C01009729
:103CB000E9F0FC01329713821282C0914A04D0913C
:103CC0004B04DE0180E090E02097A1F48081918197
:103CD000280F391F80914C0490914D04821793074F
:103CE00009F068C0F0934D04E0934C04DF91CF914C
:103CF0000895DA01AE17BF0708F042C012964D9141
:103D00005C911397CD014115510599F7DC0113968C
:103D1000FC93EE9312974D915D919D01240F351FF9
:103D2000E217F30781F4208131812E5F3F4F240F8A
:103D3000351FDC0111963C932E932281338113961B
:103D40003C932E931297E0E0F0E08A819B810097EC
:103D5000B1F5DE018D919D918A0F9B1F20914C043E
:103D600030914D042817390709F6309759F510920C
:103D70004B0410924A04D0934D04C0934C04B6CF28
:103D8000B383A28340815181240F351FA217B3074B
:103D900071F44E5F5F4F2D913C911197240F351FA9
:103DA0003183208312962D913C9133832283009797
:103DB00009F0ACCFF0934B04E0934A0497CFFE0197
:103DC000EC01C3CF13821282D6CFA0E0B0E0EBEEBD
:103DD000FEE10C944D237C019B01009751F4CB0133
:103DE0000E94BE1DEC01CE01CDB7DEB7E0E10C9420
:103DF0006923FC01E60FF71FDC011297C0E0D0E059
:103E0000EA17FB0780F30D911C911197061717070E
:103E1000A8F00530110580F0C801049786179707B0
:103E200058F0061B170B02501109019311936D9363
:103E30007C93CF010E94541EE701D5CF4B01801A1D
:103E4000910A5C01A00EB11EC0914A04D0914B04AE
:103E5000412C512C60E070E0209729F580914C04B2
:103E600090914D048A159B0509F056C042165306E1
:103E700008F052C080911D0190911E01009741F4FD
:103E80008DB79EB74091210150912201841B950B63
:103E9000E817F90708F0A7CFF0934D04E0934C041E
:103EA0002D933C93C9CF888199816A807B80CA1504
:103EB000DB0559F56C0142E0C40ED11CC814D904CD
:103EC00020F1A801421B530B480F591FEA0122960B
:103ED000259778F062827382518340832D933C93BF
:103EE0006115710569F0DB011396FC93EE9312974F
:103EF000A3CF98012E5F3F4F280F391FF301EECF5C
:103F0000F0934B04E0934A0497CF4816590608F4FF
:103F10002C01BE01E301A0CFC9010E94BE1DEC012E
:103F2000009709F460CFA801B7010E94A31FC70141
:103F30000E94541E58CF9111089581568A5108F459
:103F4000805285580895FB01DC0102C001900D925A
:103F500041505040D8F70895FC018191861721F017
:103F60008823D9F7992708953197CF010895FB0148
:103F7000DC018D91019080190110D9F3990B0895FE
:103F8000FB01DC0101900D920020E1F70895FB0197
:103F9000DC014150504030F08D910190801919F4AE
:103FA0000020B9F7881B990B0895FC0181E090E08F
:103FB0000190061609F4CF010020D1F7019708956A
:103FC000AEE0B0E0E6EEFFE10C945B2385E08C838D
:103FD0008B899C899A838983AE01495E5F4F6D8985
:103FE0007E89CE0101960E9480212E96E2E00C94FB
:103FF0007723CF92DF92EF92FF92FC016A017B015F
:1040000020FD08C023FD05C022FF02C0F382E2822A
:10401000D182C082FF90EF90DF90CF900895CF9231
:10402000DF92EF92FF926B017C0183E044FD10C0B0
:1040300084E046FD0DC0D601F701AA0FBB1FEE1F9D
:10404000FF1F1094D1F7CA0EDB1EEE1EFF1E81E08B
:10405000CC0CDD1CEE1CFF1C8A95D1F7C701B60104
:10406000620F711D811D911DFF90EF90DF90CF9029
:1040700008950F931F93CF93DF938C01C8010E9483
:10408000BA22EC0197FD08C00E948E1C892BB1F763
:10409000B801CE010E94FD22CE01DF91CF911F9188
:1040A0000F910895A0E0B0E0E8E5F0E20C94512310
:1040B0005C01162F4A01F22E0E94BA22EC019927C8
:1040C000CB3221F08D9781F46894F7F81A9531F48A
:1040D00080E0CDB7DEB7ECE00C946D23C5010E9403
:1040E000BA22EC0197FDF4CF0F2D0D7F8F2D807339
:1040F00081112FC0C03369F5EE24EA94E10EE1147A
:1041000031F0C5010E94BA22EC0197FF15C0C12C05
:10411000D12C760107FF08C0F094E094D094C094AD
:10412000C11CD11CE11CF11C202FB701A601C40148
:104130000E94F91F81E0CDCF8F7D0F2D883511F5BD
:104140000264125021F3C5010E94BA22EC0197FDCE
:10415000DECFC12CD12C76012C2F20532830D0F06B
:1041600004FD09C02A30B0F006FF05C02F7D8FEE98
:10417000820F863070F0B501CE010E94FD2201FF52
:10418000A7CFC8CFF6FE03C002601E2DE2CF0261AA
:10419000FCCF2750402FC701B6010E940F206B01B2
:1041A0007C0102601A9509F4B5CFC5010E94BA22BC
:1041B000EC0197FFD1CFAECFA0E2B0E0E2EEF0E2AB
:1041C0000C944D234C01B62E7A01CE0101963C0190
:1041D00080E2F30111928A95E9F7F401B381890134
:1041E00080E090E0A0E050E070E021E030E0F801F5
:1041F000B3FD4591B3FF4191642F8F01411107C079
:1042000000E010E0C801A096E0E10C9469234E356F
:1042100011F4009741F178171906FCF44D3551F16E
:104220004D32D9F4511511F1E62FE695E695E69554
:10423000E60DF72DF11D462F4770290102C0440CF1
:10424000551C4A95E2F7A2015081452B40836A171D
:1042500079F06A1730F46F5FE7CF5111E5CFA42FE3
:10426000E3CF6150E1CF71E00196C1CF51E0FCCFC7
:1042700050E0FACF511519F08E8180628E8371154E
:1042800061F0F3019E012F5D3F4F8081DF01319688
:1042900080958C93E217F307C1F7AA24A394C40175
:1042A0000E94BA226C0197FD17C0E82FE695E695AB
:1042B000E695E60DF72DF11D808190E096012770BF
:1042C000332702C0959587952A95E2F780FD07C0B0
:1042D000B401C6010E94FD22A11459F091CFE1144E
:1042E000F10419F0F701C1927F01BA94A12CB11029
:1042F000D6CFE114F10409F485CFF701108282CF03
:10430000A5E0B0E0E6E8F1E20C944B237C016C837D
:104310007D834B83252EFC0117821682312CF701F9
:104320004380EC81FD8143FC659043FE6190FD83F9
:10433000EC83611419F1862D90E00E948E1C892B6C
:1043400021F0C7010E943920EACFF5E26F120BC0BD
:10435000EC81FD8143FC759043FE7190FD83EC83FD
:1043600085E278120EC0C7010E94BA224C0197FD67
:10437000AAC06816A1F2B7010E94FD22832D90E029
:10438000A6C09AE2612C79120AC0EC81FD8143FC3F
:10439000759043FE7190FD83EC8366246394512CE9
:1043A00020ED270D2A3078F161FE40C0511431F321
:1043B000E8E67E1609F43DC0FCE67F1609F446C027
:1043C0007114E1F2672D70E088E690E00E94AF2260
:1043D000892BA1F200E010E060FC08C0AB80B22C99
:1043E000F501019111915F01EB832B2CFEE67F1209
:1043F00038C0F7014681578160E070E0262DC80182
:104400000E94F91F8CCF689461F8652D70E080E000
:1044100090E040E20E940F20562EEC81FD8143FC8B
:10442000759043FE7190FD83EC83BACF55245A9466
:10443000BFCFEC81FD8143FC759043FE7190FD83FD
:10444000EC8388E67812BCCF689463F8689462F8CD
:10445000EC81FD8143FC759043FE7190FD83EC83FC
:10446000AFCFF3E67F1219C061FC02C0552453940C
:10447000C7010E94BA2289839A8389819A8197FD14
:1044800022C00115110519F0F80181938F015A948A
:1044900079F760FC44CF339442CF9BE579121BC07F
:1044A0002C813D81A801652DC7010E94DC208C83F1
:1044B0009D83EC81FD81EF2B61F7F7018381807390
:1044C000811509F45BCF8FEF9FEF311057CF259601
:1044D000E2E10C946723C7010E94392097FDF3CFD6
:1044E000FFE67F16C9F180E7781648F494E679165E
:1044F00061F0E9E67E1659F0689466F808C0F3E7C3
:104500007F16A9F085E77812F7CF689465F8262D15
:10451000A801652DC7010E9452208115CDCF01153C
:10452000110519F0F801C1928F015A9471F0C70179
:104530000E94BA226C0197FD08C00E948E1C892B34
:1045400071F3B701C6010E94FD220115110509F49E
:10455000A0CFF80110829DCF689464F8D8CFFC01F9
:104560000590061621F00020D9F7C0010895319773
:10457000CF0108950F931F93CF93DF93EC018B81AD
:1045800080FF1DC086FF0EC08F7B8B838E819F8135
:1045900001969F838E838A8190E0DF91CF911F9156
:1045A0000F91089582FF19C0E881F9819081092F48
:1045B000092E000C110B911105C080628B838FEFC7
:1045C0009FEFEBCF3196F983E8838E819F8101962F
:1045D0009F838E83C8019927E0CFEA85FB85CE01B2
:1045E00009958C0197FFF1CF8B810F3F1F4F19F475
:1045F00090E1892BE3CF90E2FCCF9C01FB0183810A
:1046000080FF11C086FD0FC02F3F320751F022837B
:104610008F7D8064838386819781019797838683CA
:104620003327C90108952FEF3FEFFBCFF999FECF54
:1046300092BD81BDF89A992780B50895262FF999E2
:10464000FECF1FBA92BD81BD20BD0FB6F894FA9A75
:10465000F99A0FBE01960895052E97FB1EF400945B
:104660000E94432357FD07D00E94822307FC03D0FA
:104670004EF40C94432350954095309521953F4F2F
:104680004F4F5F4F089590958095709561957F4F3E
:104690008F4F9F4F08952F923F924F925F926F924C
:1046A0007F928F929F92AF92BF92CF92DF92EF92C2
:1046B000FF920F931F93CF93DF93CDB7DEB7CA1B43
:1046C000DB0B0FB6F894DEBF0FBECDBF09942A886E
:1046D000398848885F846E847D848C849B84AA8416
:1046E000B984C884DF80EE80FD800C811B81AA81A3
:1046F000B981CE0FD11D0FB6F894DEBF0FBECDBF6E
:10470000ED010895A1E21A2EAA1BBB1BFD010DC0ED
:10471000AA1FBB1FEE1FFF1FA217B307E407F50771
:1047200020F0A21BB30BE40BF50B661F771F881F4D
:10473000991F1A9469F760957095809590959B01E3
:10474000AC01BD01CF010895A29FB001B39FC0018C
:10475000A39F700D811D1124911DB29F700D811DAD
:104760001124911D08955058BB27AA270E94CB23DE
:104770000C94841D0E94761D38F00E947D1D20F04F
:1047800039F49F3F19F426F40C94731D0EF4E09550
:10479000E7FB0C946D1DE92F0E94951D58F3BA1785
:1047A000620773078407950720F079F4A6F50C9447
:1047B000B71D0EF4E0950B2EBA2FA02D0B01B901F9
:1047C00090010C01CA01A0011124FF27591B99F087
:1047D000593F50F4503E68F11A16F040A22F232F93
:1047E000342F4427585FF3CF469537952795A795E3
:1047F000F0405395C9F77EF41F16BA0B620B730B8A
:10480000840BBAF09150A1F0FF0FBB1F661F771FFA
:10481000881FC2F70EC0BA0F621F731F841F48F4AF
:10482000879577956795B795F7959E3F08F0B0CF38
:104830009395880F08F09927EE0F9795879508951F
:104840000E9434240C94841D0E947D1D58F00E9407
:10485000761D40F029F45F3F29F00C946D1D511135
:104860000C94B81D0C94731D0E94951D68F3992338
:10487000B1F3552391F3951B550BBB27AA2762175C
:104880007307840738F09F5F5F4F220F331F441F69
:10489000AA1FA9F335D00E2E3AF0E0E832D091509D
:1048A0005040E695001CCAF72BD0FE2F29D0660F8A
:1048B000771F881FBB1F261737074807AB07B0E8CD
:1048C00009F0BB0B802DBF01FF2793585F4F3AF0D3
:1048D0009E3F510578F00C946D1D0C94B81D5F3F00
:1048E000E4F3983ED4F3869577956795B795F79559
:1048F0009F5FC9F7880F911D9695879597F9089541
:10490000E1E0660F771F881FBB1F621773078407DC
:10491000BA0720F0621B730B840BBA0BEE1F88F7EB
:10492000E09508950E949D1D88F09F5798F0B92F3B
:104930009927B751B0F0E1F0660F771F881F991FD4
:104940001AF0BA95C9F714C0B13091F00E94B71DA2
:10495000B1E008950C94B71D672F782F8827B85FB2
:1049600039F0B93FCCF3869577956795B395D9F72C
:104970003EF490958095709561957F4F8F4F9F4F36
:1049800008950E94D91C08F48FEF0895F894FFCF82
:104990005A00A50073000F005000730050005A0029
:1049A0005A00B40087005A00016402640200004EFD
:1049B00004200000000000D603050444035C043317
:1049C000043A044D0400000000F7024703C802D770
:1049D000028702B402A6020D0A00424C4F434B006C
:1049E000524554524945564500535441545553007D
:1049F000484F4D450042415345004F50454E004FF2
:104A000000434C4F53450043005345544F50454ECF
:104A10002000534554434C4F5345200053455448C0
:104A20004F4C442035200053544F500050555442B1
:104A300041434B0044524F504F464600534554505B
:104A400049434B555020005345545049434B555012
:104A500020256420256420256420256400474554D2
:104A60005049434B5550005049434B55504D4F44CE
:104A700045200043415244200042415345204357C2
:104A800020003020435720004241534520434357E4
:104A900020003020434357200042415345204C45DD
:104AA0004654200030204C45465420004241534596
:104AB000205249474854200030205249474854204A
:104AC0000042415345205350494E2000302053505E
:104AD000494E200042415345200057524953543318
:104AE0002043572000575249535433204343572003
:104AF00000575249535433204C45465420005752D6
:104B00004953543320524947485420004D4F44459F
:104B10002033203138300033204D4F444520313888
:104B200030004D4F44452033203336300033204D84
:104B30004F4445203336300052455345542033000E
:104B400033205245534554005752495354332000A3
:104B5000534552564F2035200050495443482000B9
:00000001FF
